{
  "_format": "hh-sol-artifact-1",
  "contractName": "DecentralizedBlog",
  "sourceName": "contracts/Blog.sol",
  "abi": [
    {
      "inputs": [],
      "stateMutability": "nonpayable",
      "type": "constructor"
    },
    {
      "inputs": [
        {
          "internalType": "address",
          "name": "owner",
          "type": "address"
        }
      ],
      "name": "OwnableInvalidOwner",
      "type": "error"
    },
    {
      "inputs": [
        {
          "internalType": "address",
          "name": "account",
          "type": "address"
        }
      ],
      "name": "OwnableUnauthorizedAccount",
      "type": "error"
    },
    {
      "anonymous": false,
      "inputs": [
        {
          "indexed": true,
          "internalType": "uint256",
          "name": "postId",
          "type": "uint256"
        },
        {
          "indexed": false,
          "internalType": "uint256",
          "name": "commentId",
          "type": "uint256"
        },
        {
          "indexed": false,
          "internalType": "address",
          "name": "author",
          "type": "address"
        },
        {
          "indexed": false,
          "internalType": "string",
          "name": "content",
          "type": "string"
        }
      ],
      "name": "CommentAdded",
      "type": "event"
    },
    {
      "anonymous": false,
      "inputs": [
        {
          "indexed": true,
          "internalType": "address",
          "name": "previousOwner",
          "type": "address"
        },
        {
          "indexed": true,
          "internalType": "address",
          "name": "newOwner",
          "type": "address"
        }
      ],
      "name": "OwnershipTransferred",
      "type": "event"
    },
    {
      "anonymous": false,
      "inputs": [
        {
          "indexed": true,
          "internalType": "uint256",
          "name": "id",
          "type": "uint256"
        },
        {
          "indexed": true,
          "internalType": "address",
          "name": "author",
          "type": "address"
        },
        {
          "indexed": false,
          "internalType": "string",
          "name": "title",
          "type": "string"
        },
        {
          "indexed": false,
          "internalType": "string",
          "name": "contentHash",
          "type": "string"
        },
        {
          "indexed": false,
          "internalType": "uint256",
          "name": "timestamp",
          "type": "uint256"
        },
        {
          "indexed": false,
          "internalType": "string[]",
          "name": "tags",
          "type": "string[]"
        }
      ],
      "name": "PostCreated",
      "type": "event"
    },
    {
      "anonymous": false,
      "inputs": [
        {
          "indexed": true,
          "internalType": "uint256",
          "name": "id",
          "type": "uint256"
        }
      ],
      "name": "PostDeleted",
      "type": "event"
    },
    {
      "anonymous": false,
      "inputs": [
        {
          "indexed": true,
          "internalType": "uint256",
          "name": "id",
          "type": "uint256"
        },
        {
          "indexed": false,
          "internalType": "string",
          "name": "newTitle",
          "type": "string"
        },
        {
          "indexed": false,
          "internalType": "string",
          "name": "newContentHash",
          "type": "string"
        },
        {
          "indexed": false,
          "internalType": "string[]",
          "name": "newTags",
          "type": "string[]"
        }
      ],
      "name": "PostUpdated",
      "type": "event"
    },
    {
      "anonymous": false,
      "inputs": [
        {
          "indexed": true,
          "internalType": "address",
          "name": "follower",
          "type": "address"
        },
        {
          "indexed": true,
          "internalType": "address",
          "name": "followed",
          "type": "address"
        }
      ],
      "name": "UserFollowed",
      "type": "event"
    },
    {
      "anonymous": false,
      "inputs": [
        {
          "indexed": true,
          "internalType": "address",
          "name": "follower",
          "type": "address"
        },
        {
          "indexed": true,
          "internalType": "address",
          "name": "unfollowed",
          "type": "address"
        }
      ],
      "name": "UserUnfollowed",
      "type": "event"
    },
    {
      "inputs": [
        {
          "internalType": "uint256",
          "name": "_postId",
          "type": "uint256"
        },
        {
          "internalType": "string",
          "name": "_content",
          "type": "string"
        }
      ],
      "name": "addComment",
      "outputs": [],
      "stateMutability": "nonpayable",
      "type": "function"
    },
    {
      "inputs": [
        {
          "internalType": "string",
          "name": "_title",
          "type": "string"
        },
        {
          "internalType": "string",
          "name": "_contentHash",
          "type": "string"
        },
        {
          "internalType": "string[]",
          "name": "_tags",
          "type": "string[]"
        }
      ],
      "name": "createPost",
      "outputs": [
        {
          "internalType": "uint256",
          "name": "",
          "type": "uint256"
        }
      ],
      "stateMutability": "nonpayable",
      "type": "function"
    },
    {
      "inputs": [
        {
          "internalType": "uint256",
          "name": "_postId",
          "type": "uint256"
        }
      ],
      "name": "deletePost",
      "outputs": [],
      "stateMutability": "nonpayable",
      "type": "function"
    },
    {
      "inputs": [
        {
          "internalType": "address",
          "name": "_userToFollow",
          "type": "address"
        }
      ],
      "name": "followUser",
      "outputs": [],
      "stateMutability": "nonpayable",
      "type": "function"
    },
    {
      "inputs": [],
      "name": "getAllPostIds",
      "outputs": [
        {
          "internalType": "uint256[]",
          "name": "",
          "type": "uint256[]"
        }
      ],
      "stateMutability": "view",
      "type": "function"
    },
    {
      "inputs": [],
      "name": "getAllTags",
      "outputs": [
        {
          "internalType": "string[]",
          "name": "",
          "type": "string[]"
        }
      ],
      "stateMutability": "view",
      "type": "function"
    },
    {
      "inputs": [
        {
          "internalType": "uint256",
          "name": "_postId",
          "type": "uint256"
        }
      ],
      "name": "getComments",
      "outputs": [
        {
          "components": [
            {
              "internalType": "uint256",
              "name": "id",
              "type": "uint256"
            },
            {
              "internalType": "uint256",
              "name": "postId",
              "type": "uint256"
            },
            {
              "internalType": "address",
              "name": "author",
              "type": "address"
            },
            {
              "internalType": "string",
              "name": "content",
              "type": "string"
            },
            {
              "internalType": "uint256",
              "name": "timestamp",
              "type": "uint256"
            }
          ],
          "internalType": "struct DecentralizedBlog.Comment[]",
          "name": "",
          "type": "tuple[]"
        }
      ],
      "stateMutability": "view",
      "type": "function"
    },
    {
      "inputs": [
        {
          "internalType": "address",
          "name": "_user",
          "type": "address"
        }
      ],
      "name": "getFollowerCount",
      "outputs": [
        {
          "internalType": "uint256",
          "name": "",
          "type": "uint256"
        }
      ],
      "stateMutability": "view",
      "type": "function"
    },
    {
      "inputs": [
        {
          "internalType": "address",
          "name": "_user",
          "type": "address"
        }
      ],
      "name": "getFollowers",
      "outputs": [
        {
          "internalType": "address[]",
          "name": "",
          "type": "address[]"
        }
      ],
      "stateMutability": "view",
      "type": "function"
    },
    {
      "inputs": [
        {
          "internalType": "address",
          "name": "_user",
          "type": "address"
        }
      ],
      "name": "getFollowing",
      "outputs": [
        {
          "internalType": "address[]",
          "name": "",
          "type": "address[]"
        }
      ],
      "stateMutability": "view",
      "type": "function"
    },
    {
      "inputs": [
        {
          "internalType": "uint256",
          "name": "_postId",
          "type": "uint256"
        }
      ],
      "name": "getLikeCount",
      "outputs": [
        {
          "internalType": "uint256",
          "name": "",
          "type": "uint256"
        }
      ],
      "stateMutability": "view",
      "type": "function"
    },
    {
      "inputs": [
        {
          "internalType": "address",
          "name": "_user",
          "type": "address"
        }
      ],
      "name": "getLikedPosts",
      "outputs": [
        {
          "internalType": "uint256[]",
          "name": "",
          "type": "uint256[]"
        }
      ],
      "stateMutability": "view",
      "type": "function"
    },
    {
      "inputs": [
        {
          "internalType": "uint256[]",
          "name": "_postIds",
          "type": "uint256[]"
        }
      ],
      "name": "getMultiplePosts",
      "outputs": [
        {
          "components": [
            {
              "internalType": "uint256",
              "name": "id",
              "type": "uint256"
            },
            {
              "internalType": "address",
              "name": "author",
              "type": "address"
            },
            {
              "internalType": "string",
              "name": "title",
              "type": "string"
            },
            {
              "internalType": "string",
              "name": "contentHash",
              "type": "string"
            },
            {
              "internalType": "uint256",
              "name": "timestamp",
              "type": "uint256"
            },
            {
              "internalType": "bool",
              "name": "published",
              "type": "bool"
            },
            {
              "internalType": "string[]",
              "name": "tags",
              "type": "string[]"
            }
          ],
          "internalType": "struct DecentralizedBlog.Post[]",
          "name": "",
          "type": "tuple[]"
        }
      ],
      "stateMutability": "view",
      "type": "function"
    },
    {
      "inputs": [
        {
          "internalType": "uint256",
          "name": "_postId",
          "type": "uint256"
        }
      ],
      "name": "getPost",
      "outputs": [
        {
          "components": [
            {
              "internalType": "uint256",
              "name": "id",
              "type": "uint256"
            },
            {
              "internalType": "address",
              "name": "author",
              "type": "address"
            },
            {
              "internalType": "string",
              "name": "title",
              "type": "string"
            },
            {
              "internalType": "string",
              "name": "contentHash",
              "type": "string"
            },
            {
              "internalType": "uint256",
              "name": "timestamp",
              "type": "uint256"
            },
            {
              "internalType": "bool",
              "name": "published",
              "type": "bool"
            },
            {
              "internalType": "string[]",
              "name": "tags",
              "type": "string[]"
            }
          ],
          "internalType": "struct DecentralizedBlog.Post",
          "name": "",
          "type": "tuple"
        }
      ],
      "stateMutability": "view",
      "type": "function"
    },
    {
      "inputs": [],
      "name": "getPostCount",
      "outputs": [
        {
          "internalType": "uint256",
          "name": "",
          "type": "uint256"
        }
      ],
      "stateMutability": "view",
      "type": "function"
    },
    {
      "inputs": [
        {
          "internalType": "string",
          "name": "_tag",
          "type": "string"
        }
      ],
      "name": "getPostsByTag",
      "outputs": [
        {
          "internalType": "uint256[]",
          "name": "",
          "type": "uint256[]"
        }
      ],
      "stateMutability": "view",
      "type": "function"
    },
    {
      "inputs": [],
      "name": "getTagCount",
      "outputs": [
        {
          "internalType": "uint256",
          "name": "",
          "type": "uint256"
        }
      ],
      "stateMutability": "view",
      "type": "function"
    },
    {
      "inputs": [
        {
          "internalType": "address",
          "name": "_user",
          "type": "address"
        }
      ],
      "name": "getUserCommentCount",
      "outputs": [
        {
          "internalType": "uint256",
          "name": "",
          "type": "uint256"
        }
      ],
      "stateMutability": "view",
      "type": "function"
    },
    {
      "inputs": [
        {
          "internalType": "address",
          "name": "_user",
          "type": "address"
        }
      ],
      "name": "getUserComments",
      "outputs": [
        {
          "components": [
            {
              "internalType": "uint256",
              "name": "postId",
              "type": "uint256"
            },
            {
              "internalType": "uint256",
              "name": "commentId",
              "type": "uint256"
            },
            {
              "internalType": "string",
              "name": "content",
              "type": "string"
            },
            {
              "internalType": "uint256",
              "name": "timestamp",
              "type": "uint256"
            }
          ],
          "internalType": "struct DecentralizedBlog.UserComment[]",
          "name": "",
          "type": "tuple[]"
        }
      ],
      "stateMutability": "view",
      "type": "function"
    },
    {
      "inputs": [
        {
          "internalType": "uint256",
          "name": "_postId",
          "type": "uint256"
        },
        {
          "internalType": "address",
          "name": "_user",
          "type": "address"
        }
      ],
      "name": "hasLiked",
      "outputs": [
        {
          "internalType": "bool",
          "name": "",
          "type": "bool"
        }
      ],
      "stateMutability": "view",
      "type": "function"
    },
    {
      "inputs": [
        {
          "internalType": "address",
          "name": "_user",
          "type": "address"
        },
        {
          "internalType": "address",
          "name": "_follower",
          "type": "address"
        }
      ],
      "name": "isFollower",
      "outputs": [
        {
          "internalType": "bool",
          "name": "",
          "type": "bool"
        }
      ],
      "stateMutability": "view",
      "type": "function"
    },
    {
      "inputs": [
        {
          "internalType": "address",
          "name": "_follower",
          "type": "address"
        },
        {
          "internalType": "address",
          "name": "_followed",
          "type": "address"
        }
      ],
      "name": "isFollowing",
      "outputs": [
        {
          "internalType": "bool",
          "name": "",
          "type": "bool"
        }
      ],
      "stateMutability": "view",
      "type": "function"
    },
    {
      "inputs": [
        {
          "internalType": "uint256",
          "name": "_postId",
          "type": "uint256"
        }
      ],
      "name": "likePost",
      "outputs": [],
      "stateMutability": "nonpayable",
      "type": "function"
    },
    {
      "inputs": [],
      "name": "owner",
      "outputs": [
        {
          "internalType": "address",
          "name": "",
          "type": "address"
        }
      ],
      "stateMutability": "view",
      "type": "function"
    },
    {
      "inputs": [],
      "name": "renounceOwnership",
      "outputs": [],
      "stateMutability": "nonpayable",
      "type": "function"
    },
    {
      "inputs": [
        {
          "internalType": "address",
          "name": "newOwner",
          "type": "address"
        }
      ],
      "name": "transferOwnership",
      "outputs": [],
      "stateMutability": "nonpayable",
      "type": "function"
    },
    {
      "inputs": [
        {
          "internalType": "address",
          "name": "_userToUnfollow",
          "type": "address"
        }
      ],
      "name": "unfollowUser",
      "outputs": [],
      "stateMutability": "nonpayable",
      "type": "function"
    },
    {
      "inputs": [
        {
          "internalType": "uint256",
          "name": "_postId",
          "type": "uint256"
        },
        {
          "internalType": "string",
          "name": "_newTitle",
          "type": "string"
        },
        {
          "internalType": "string",
          "name": "_newContentHash",
          "type": "string"
        },
        {
          "internalType": "string[]",
          "name": "_newTags",
          "type": "string[]"
        }
      ],
      "name": "updatePost",
      "outputs": [],
      "stateMutability": "nonpayable",
      "type": "function"
    }
  ],
  "bytecode": "0x6080604052600180556001600a5534801561001957600080fd5b5033600073ffffffffffffffffffffffffffffffffffffffff168173ffffffffffffffffffffffffffffffffffffffff160361008d5760006040517f1e4fbdf700000000000000000000000000000000000000000000000000000000815260040161008491906101a7565b60405180910390fd5b61009c816100a260201b60201c565b506101c2565b60008060009054906101000a900473ffffffffffffffffffffffffffffffffffffffff169050816000806101000a81548173ffffffffffffffffffffffffffffffffffffffff021916908373ffffffffffffffffffffffffffffffffffffffff1602179055508173ffffffffffffffffffffffffffffffffffffffff168173ffffffffffffffffffffffffffffffffffffffff167f8be0079c531659141344cd1fd0a4f28419497f9722a3daafe3b4186f6b6457e060405160405180910390a35050565b600073ffffffffffffffffffffffffffffffffffffffff82169050919050565b600061019182610166565b9050919050565b6101a181610186565b82525050565b60006020820190506101bc6000830184610198565b92915050565b6149ae806101d16000396000f3fe608060405234801561001057600080fd5b50600436106101c45760003560e01c8063a70806f7116100f9578063cb04c97011610097578063e5fe947711610071578063e5fe947714610565578063f107cfcb14610595578063f2fde38b146105b1578063f6f7712b146105cd576101c4565b8063cb04c970146104d5578063cdfd9b8614610505578063d8236dff14610535576101c4565b8063bcc95407116100d3578063bcc9540714610427578063c2fe202214610445578063c55a336214610475578063c88790a2146104a5576101c4565b8063a70806f7146103bf578063aa7e5683146103db578063b01c7a4d146103f7576101c4565b8063715018a6116101665780638e25df9e116101405780638e25df9e146103235780638fb7092c14610341578063986f191c1461037157806399ec3a421461038f576101c4565b8063715018a6146102df578063725009d3146102e95780638da5cb5b14610305576101c4565b806340731c24116101a257806340731c241461024557806346a3ebf3146102755780634ef576ad146102915780637038f157146102c1576101c4565b8063094cd5ee146101c957806323edf697146101e55780632b3c6e2214610215575b600080fd5b6101e360048036038101906101de91906130f4565b6105fd565b005b6101ff60048036038101906101fa91906130f4565b6109aa565b60405161020c9190613339565b60405180910390f35b61022f600480360381019061022a9190613387565b610b22565b60405161023c91906134d9565b60405180910390f35b61025f600480360381019061025a91906130f4565b610c70565b60405161026c9190613682565b60405180910390f35b61028f600480360381019061028a91906138bf565b610f6c565b005b6102ab60048036038101906102a691906130f4565b61132d565b6040516102b89190613989565b60405180910390f35b6102c961134a565b6040516102d69190613a2a565b60405180910390f35b6102e7611423565b005b61030360048036038101906102fe91906130f4565b611437565b005b61030d61156a565b60405161031a9190613a5b565b60405180910390f35b61032b611593565b6040516103389190613b25565b60405180910390f35b61035b60048036038101906103569190613b47565b6115eb565b6040516103689190613b96565b60405180910390f35b610379611653565b6040516103869190613989565b60405180910390f35b6103a960048036038101906103a49190613bb1565b611660565b6040516103b69190613b96565b60405180910390f35b6103d960048036038101906103d49190613387565b6116f4565b005b6103f560048036038101906103f09190613bf1565b611a5e565b005b610411600480360381019061040c9190613c4d565b611d6d565b60405161041e9190613989565b60405180910390f35b61042f611fd0565b60405161043c9190613989565b60405180910390f35b61045f600480360381019061045a9190613387565b611fdd565b60405161046c9190613da3565b60405180910390f35b61048f600480360381019061048a9190613dc5565b6120aa565b60405161049c9190613b25565b60405180910390f35b6104bf60048036038101906104ba9190613387565b612120565b6040516104cc9190613989565b60405180910390f35b6104ef60048036038101906104ea9190613387565b612169565b6040516104fc9190613989565b60405180910390f35b61051f600480360381019061051a9190613387565b6121b5565b60405161052c9190613b25565b60405180910390f35b61054f600480360381019061054a9190613387565b612389565b60405161055c9190613da3565b60405180910390f35b61057f600480360381019061057a9190613bb1565b612456565b60405161058c9190613b96565b60405180910390f35b6105af60048036038101906105aa9190613387565b61259d565b005b6105cb60048036038101906105c69190613387565b61291d565b005b6105e760048036038101906105e29190613e69565b6129a3565b6040516105f49190614022565b60405180910390f35b6000600260008381526020019081526020016000209050600081600001540361065b576040517f08c379a0000000000000000000000000000000000000000000000000000000008152600401610652906140a1565b60405180910390fd5b3373ffffffffffffffffffffffffffffffffffffffff168160010160009054906101000a900473ffffffffffffffffffffffffffffffffffffffff1673ffffffffffffffffffffffffffffffffffffffff16146106ed576040517f08c379a00000000000000000000000000000000000000000000000000000000081526004016106e49061410d565b60405180910390fd5b60008160050160006101000a81548160ff02191690831515021790555060005b81600601805490508110156108b65760008260060182815481106107345761073361412d565b5b9060005260206000200180546107499061418b565b80601f01602080910402602001604051908101604052809291908181526020018280546107759061418b565b80156107c25780601f10610797576101008083540402835291602001916107c2565b820191906000526020600020905b8154815290600101906020018083116107a557829003601f168201915b5050505050905060006004826040516107db91906141f8565b9081526020016040518091039020905060005b81805490508110156108a6578582828154811061080e5761080d61412d565b5b906000526020600020015403610899578160018380549050610830919061423e565b815481106108415761084061412d565b5b906000526020600020015482828154811061085f5761085e61412d565b5b90600052602060002001819055508180548061087e5761087d614272565b5b600190038181906000526020600020016000905590556108a6565b80806001019150506107ee565b505050808060010191505061070d565b5060005b6003805490508110156109785782600382815481106108dc576108db61412d565b5b90600052602060002001540361096b5760036001600380549050610900919061423e565b815481106109115761091061412d565b5b9060005260206000200154600382815481106109305761092f61412d565b5b906000526020600020018190555060038054806109505761094f614272565b5b60019003818190600052602060002001600090559055610978565b80806001019150506108ba565b50817f32d67e2131cd025eb20e7256680e338dedbe17b28943a11681860a9271ad119d60405160405180910390a25050565b606060096000838152602001908152602001600020805480602002602001604051908101604052809291908181526020016000905b82821015610b1757838290600052602060002090600502016040518060a001604052908160008201548152602001600182015481526020016002820160009054906101000a900473ffffffffffffffffffffffffffffffffffffffff1673ffffffffffffffffffffffffffffffffffffffff1673ffffffffffffffffffffffffffffffffffffffff168152602001600382018054610a7c9061418b565b80601f0160208091040260200160405190810160405280929190818152602001828054610aa89061418b565b8015610af55780601f10610aca57610100808354040283529160200191610af5565b820191906000526020600020905b815481529060010190602001808311610ad857829003601f168201915b50505050508152602001600482015481525050815260200190600101906109df565b505050509050919050565b6060600760008373ffffffffffffffffffffffffffffffffffffffff1673ffffffffffffffffffffffffffffffffffffffff168152602001908152602001600020805480602002602001604051908101604052809291908181526020016000905b82821015610c6557838290600052602060002090600402016040518060800160405290816000820154815260200160018201548152602001600282018054610bca9061418b565b80601f0160208091040260200160405190810160405280929190818152602001828054610bf69061418b565b8015610c435780601f10610c1857610100808354040283529160200191610c43565b820191906000526020600020905b815481529060010190602001808311610c2657829003601f168201915b5050505050815260200160038201548152505081526020019060010190610b83565b505050509050919050565b610c78612f7b565b6000600260008481526020019081526020016000206040518060e0016040529081600082015481526020016001820160009054906101000a900473ffffffffffffffffffffffffffffffffffffffff1673ffffffffffffffffffffffffffffffffffffffff1673ffffffffffffffffffffffffffffffffffffffff168152602001600282018054610d089061418b565b80601f0160208091040260200160405190810160405280929190818152602001828054610d349061418b565b8015610d815780601f10610d5657610100808354040283529160200191610d81565b820191906000526020600020905b815481529060010190602001808311610d6457829003601f168201915b50505050508152602001600382018054610d9a9061418b565b80601f0160208091040260200160405190810160405280929190818152602001828054610dc69061418b565b8015610e135780601f10610de857610100808354040283529160200191610e13565b820191906000526020600020905b815481529060010190602001808311610df657829003601f168201915b50505050508152602001600482015481526020016005820160009054906101000a900460ff1615151515815260200160068201805480602002602001604051908101604052809291908181526020016000905b82821015610f12578382906000526020600020018054610e859061418b565b80601f0160208091040260200160405190810160405280929190818152602001828054610eb19061418b565b8015610efe5780601f10610ed357610100808354040283529160200191610efe565b820191906000526020600020905b815481529060010190602001808311610ee157829003601f168201915b505050505081526020019060010190610e66565b505050508152505090506000816000015103610f63576040517f08c379a0000000000000000000000000000000000000000000000000000000008152600401610f5a906140a1565b60405180910390fd5b80915050919050565b60006002600086815260200190815260200160002090506000816000015403610fca576040517f08c379a0000000000000000000000000000000000000000000000000000000008152600401610fc1906140a1565b60405180910390fd5b3373ffffffffffffffffffffffffffffffffffffffff168160010160009054906101000a900473ffffffffffffffffffffffffffffffffffffffff1673ffffffffffffffffffffffffffffffffffffffff161461105c576040517f08c379a00000000000000000000000000000000000000000000000000000000081526004016110539061410d565b60405180910390fd5b60005b81600601805490508110156112085760008260060182815481106110865761108561412d565b5b90600052602060002001805461109b9061418b565b80601f01602080910402602001604051908101604052809291908181526020018280546110c79061418b565b80156111145780601f106110e957610100808354040283529160200191611114565b820191906000526020600020905b8154815290600101906020018083116110f757829003601f168201915b50505050509050600060048260405161112d91906141f8565b9081526020016040518091039020905060005b81805490508110156111f857888282815481106111605761115f61412d565b5b9060005260206000200154036111eb578160018380549050611182919061423e565b815481106111935761119261412d565b5b90600052602060002001548282815481106111b1576111b061412d565b5b9060005260206000200181905550818054806111d0576111cf614272565b5b600190038181906000526020600020016000905590556111f8565b8080600101915050611140565b505050808060010191505061105f565b508381600201908161121a919061444d565b508281600301908161122c919061444d565b505b600081600601805490501115611275578060060180548061125257611251614272565b5b60019003818190600052602060002001600061126e9190612fd0565b905561122e565b60005b82518110156112df57816006018382815181106112985761129761412d565b5b60200260200101519080600181540180825580915050600190039060005260206000200160009091909190915090816112d1919061444d565b508080600101915050611278565b506112ea8583612cfd565b847f60944e494f6efd304ca8f340b1f251e65c2b3d605e6a26d0b8d62016c93c6fe385858560405161131e93929190614558565b60405180910390a25050505050565b6000600c6000838152602001908152602001600020549050919050565b60606005805480602002602001604051908101604052809291908181526020016000905b8282101561141a57838290600052602060002001805461138d9061418b565b80601f01602080910402602001604051908101604052809291908181526020018280546113b99061418b565b80156114065780601f106113db57610100808354040283529160200191611406565b820191906000526020600020905b8154815290600101906020018083116113e957829003601f168201915b50505050508152602001906001019061136e565b50505050905090565b61142b612e28565b6114356000612eaf565b565b600b600082815260200190815260200160002060003373ffffffffffffffffffffffffffffffffffffffff1673ffffffffffffffffffffffffffffffffffffffff16815260200190815260200160002060009054906101000a900460ff16156114d5576040517f08c379a00000000000000000000000000000000000000000000000000000000081526004016114cc906145f0565b60405180910390fd5b6001600b600083815260200190815260200160002060003373ffffffffffffffffffffffffffffffffffffffff1673ffffffffffffffffffffffffffffffffffffffff16815260200190815260200160002060006101000a81548160ff021916908315150217905550600c6000828152602001908152602001600020600081548092919061156290614610565b919050555050565b60008060009054906101000a900473ffffffffffffffffffffffffffffffffffffffff16905090565b606060038054806020026020016040519081016040528092919081815260200182805480156115e157602002820191906000526020600020905b8154815260200190600101908083116115cd575b5050505050905090565b6000600b600084815260200190815260200160002060008373ffffffffffffffffffffffffffffffffffffffff1673ffffffffffffffffffffffffffffffffffffffff16815260200190815260200160002060009054906101000a900460ff16905092915050565b6000600580549050905090565b6000600e60008473ffffffffffffffffffffffffffffffffffffffff1673ffffffffffffffffffffffffffffffffffffffff16815260200190815260200160002060008373ffffffffffffffffffffffffffffffffffffffff1673ffffffffffffffffffffffffffffffffffffffff16815260200190815260200160002060009054906101000a900460ff16905092915050565b600e60003373ffffffffffffffffffffffffffffffffffffffff1673ffffffffffffffffffffffffffffffffffffffff16815260200190815260200160002060008273ffffffffffffffffffffffffffffffffffffffff1673ffffffffffffffffffffffffffffffffffffffff16815260200190815260200160002060009054906101000a900460ff16156117be576040517f08c379a00000000000000000000000000000000000000000000000000000000081526004016117b5906146a4565b60405180910390fd5b3373ffffffffffffffffffffffffffffffffffffffff168173ffffffffffffffffffffffffffffffffffffffff160361182c576040517f08c379a000000000000000000000000000000000000000000000000000000000815260040161182390614710565b60405180910390fd5b600d60003373ffffffffffffffffffffffffffffffffffffffff1673ffffffffffffffffffffffffffffffffffffffff168152602001908152602001600020819080600181540180825580915050600190039060005260206000200160009091909190916101000a81548173ffffffffffffffffffffffffffffffffffffffff021916908373ffffffffffffffffffffffffffffffffffffffff1602179055506001600e60003373ffffffffffffffffffffffffffffffffffffffff1673ffffffffffffffffffffffffffffffffffffffff16815260200190815260200160002060008373ffffffffffffffffffffffffffffffffffffffff1673ffffffffffffffffffffffffffffffffffffffff16815260200190815260200160002060006101000a81548160ff021916908315150217905550600f60008273ffffffffffffffffffffffffffffffffffffffff1673ffffffffffffffffffffffffffffffffffffffff168152602001908152602001600020339080600181540180825580915050600190039060005260206000200160009091909190916101000a81548173ffffffffffffffffffffffffffffffffffffffff021916908373ffffffffffffffffffffffffffffffffffffffff1602179055508073ffffffffffffffffffffffffffffffffffffffff163373ffffffffffffffffffffffffffffffffffffffff167f30b3435b456f45779984ddfa456115ee4c20d9e446979b1b9e90dbb7e12b90b760405160405180910390a350565b6000600260008481526020019081526020016000206000015403611ab7576040517f08c379a0000000000000000000000000000000000000000000000000000000008152600401611aae906140a1565b60405180910390fd5b6000815111611afb576040517f08c379a0000000000000000000000000000000000000000000000000000000008152600401611af29061477c565b60405180910390fd5b6000600a6000815480929190611b1090614610565b91905055905060006040518060a001604052808381526020018581526020013373ffffffffffffffffffffffffffffffffffffffff16815260200184815260200142815250905060096000858152602001908152602001600020819080600181540180825580915050600190039060005260206000209060050201600090919091909150600082015181600001556020820151816001015560408201518160020160006101000a81548173ffffffffffffffffffffffffffffffffffffffff021916908373ffffffffffffffffffffffffffffffffffffffff1602179055506060820151816003019081611c04919061444d565b5060808201518160040155505060006040518060800160405280868152602001848152602001858152602001428152509050600760003373ffffffffffffffffffffffffffffffffffffffff1673ffffffffffffffffffffffffffffffffffffffff16815260200190815260200160002081908060018154018082558091505060019003906000526020600020906004020160009091909190915060008201518160000155602082015181600101556040820151816002019081611cc8919061444d565b50606082015181600301555050600860003373ffffffffffffffffffffffffffffffffffffffff1673ffffffffffffffffffffffffffffffffffffffff1681526020019081526020016000206000815480929190611d2590614610565b9190505550847f96d81cac001a263174d42d42cfad470fec9d863bcf6d52ba8b93d47c7ee00de3843387604051611d5e9392919061479c565b60405180910390a25050505050565b600080845111611db2576040517f08c379a0000000000000000000000000000000000000000000000000000000008152600401611da990614826565b60405180910390fd5b6000835111611df6576040517f08c379a0000000000000000000000000000000000000000000000000000000008152600401611ded90614892565b60405180910390fd5b600060016000815480929190611e0b90614610565b91905055905060006040518060e001604052808381526020013373ffffffffffffffffffffffffffffffffffffffff16815260200187815260200186815260200142815260200160011515815260200185815250905080600260008481526020019081526020016000206000820151816000015560208201518160010160006101000a81548173ffffffffffffffffffffffffffffffffffffffff021916908373ffffffffffffffffffffffffffffffffffffffff1602179055506040820151816002019081611edb919061444d565b506060820151816003019081611ef1919061444d565b506080820151816004015560a08201518160050160006101000a81548160ff02191690831515021790555060c0820151816006019080519060200190611f38929190613010565b509050506003829080600181540180825580915050600190039060005260206000200160009091909190915055611f6f8285612cfd565b3373ffffffffffffffffffffffffffffffffffffffff16827fdacee0e38aaa0223bb57054e596dbd69bb70b012e47016e5a57c9734f2a6150a88884289604051611fbc94939291906148b2565b60405180910390a381925050509392505050565b6000600380549050905090565b6060600f60008373ffffffffffffffffffffffffffffffffffffffff1673ffffffffffffffffffffffffffffffffffffffff16815260200190815260200160002080548060200260200160405190810160405280929190818152602001828054801561209e57602002820191906000526020600020905b8160009054906101000a900473ffffffffffffffffffffffffffffffffffffffff1673ffffffffffffffffffffffffffffffffffffffff1681526020019060010190808311612054575b50505050509050919050565b60606004826040516120bc91906141f8565b908152602001604051809103902080548060200260200160405190810160405280929190818152602001828054801561211457602002820191906000526020600020905b815481526020019060010190808311612100575b50505050509050919050565b6000600860008373ffffffffffffffffffffffffffffffffffffffff1673ffffffffffffffffffffffffffffffffffffffff168152602001908152602001600020549050919050565b6000600f60008373ffffffffffffffffffffffffffffffffffffffff1673ffffffffffffffffffffffffffffffffffffffff168152602001908152602001600020805490509050919050565b6060600060038054905067ffffffffffffffff8111156121d8576121d76136ae565b5b6040519080825280602002602001820160405280156122065781602001602082028036833780820191505090505b5090506000805b6003805490508110156122dd576000600382815481106122305761222f61412d565b5b90600052602060002001549050600b600082815260200190815260200160002060008773ffffffffffffffffffffffffffffffffffffffff1673ffffffffffffffffffffffffffffffffffffffff16815260200190815260200160002060009054906101000a900460ff16156122cf57808484815181106122b4576122b361412d565b5b60200260200101818152505082806122cb90614610565b9350505b50808060010191505061220d565b5060008167ffffffffffffffff8111156122fa576122f96136ae565b5b6040519080825280602002602001820160405280156123285781602001602082028036833780820191505090505b50905060005b8281101561237d578381815181106123495761234861412d565b5b60200260200101518282815181106123645761236361412d565b5b602002602001018181525050808060010191505061232e565b50809350505050919050565b6060600d60008373ffffffffffffffffffffffffffffffffffffffff1673ffffffffffffffffffffffffffffffffffffffff16815260200190815260200160002080548060200260200160405190810160405280929190818152602001828054801561244a57602002820191906000526020600020905b8160009054906101000a900473ffffffffffffffffffffffffffffffffffffffff1673ffffffffffffffffffffffffffffffffffffffff1681526020019060010190808311612400575b50505050509050919050565b600080600f60008573ffffffffffffffffffffffffffffffffffffffff1673ffffffffffffffffffffffffffffffffffffffff16815260200190815260200160002080548060200260200160405190810160405280929190818152602001828054801561251857602002820191906000526020600020905b8160009054906101000a900473ffffffffffffffffffffffffffffffffffffffff1673ffffffffffffffffffffffffffffffffffffffff16815260200190600101908083116124ce575b5050505050905060005b8151811015612590578373ffffffffffffffffffffffffffffffffffffffff168282815181106125555761255461412d565b5b602002602001015173ffffffffffffffffffffffffffffffffffffffff160361258357600192505050612597565b8080600101915050612522565b5060009150505b92915050565b600e60003373ffffffffffffffffffffffffffffffffffffffff1673ffffffffffffffffffffffffffffffffffffffff16815260200190815260200160002060008273ffffffffffffffffffffffffffffffffffffffff1673ffffffffffffffffffffffffffffffffffffffff16815260200190815260200160002060009054906101000a900460ff16612666576040517f08c379a000000000000000000000000000000000000000000000000000000000815260040161265d90614958565b60405180910390fd5b6000600d60003373ffffffffffffffffffffffffffffffffffffffff1673ffffffffffffffffffffffffffffffffffffffff168152602001908152602001600020905060005b8180549050811015612829578273ffffffffffffffffffffffffffffffffffffffff168282815481106126e2576126e161412d565b5b9060005260206000200160009054906101000a900473ffffffffffffffffffffffffffffffffffffffff1673ffffffffffffffffffffffffffffffffffffffff160361281c57816001838054905061273a919061423e565b8154811061274b5761274a61412d565b5b9060005260206000200160009054906101000a900473ffffffffffffffffffffffffffffffffffffffff168282815481106127895761278861412d565b5b9060005260206000200160006101000a81548173ffffffffffffffffffffffffffffffffffffffff021916908373ffffffffffffffffffffffffffffffffffffffff160217905550818054806127e2576127e1614272565b5b6001900381819060005260206000200160006101000a81549073ffffffffffffffffffffffffffffffffffffffff02191690559055612829565b80806001019150506126ac565b506000600e60003373ffffffffffffffffffffffffffffffffffffffff1673ffffffffffffffffffffffffffffffffffffffff16815260200190815260200160002060008473ffffffffffffffffffffffffffffffffffffffff1673ffffffffffffffffffffffffffffffffffffffff16815260200190815260200160002060006101000a81548160ff0219169083151502179055508173ffffffffffffffffffffffffffffffffffffffff163373ffffffffffffffffffffffffffffffffffffffff167fe7339343c6edff57f2d15278c419523844cea30ae5ee2146aa22cb9e3107dab760405160405180910390a35050565b612925612e28565b600073ffffffffffffffffffffffffffffffffffffffff168173ffffffffffffffffffffffffffffffffffffffff16036129975760006040517f1e4fbdf700000000000000000000000000000000000000000000000000000000815260040161298e9190613a5b565b60405180910390fd5b6129a081612eaf565b50565b606060008383905067ffffffffffffffff8111156129c4576129c36136ae565b5b6040519080825280602002602001820160405280156129fd57816020015b6129ea612f7b565b8152602001906001900390816129e25790505b50905060005b84849050811015612cf25760026000868684818110612a2557612a2461412d565b5b9050602002013581526020019081526020016000206040518060e0016040529081600082015481526020016001820160009054906101000a900473ffffffffffffffffffffffffffffffffffffffff1673ffffffffffffffffffffffffffffffffffffffff1673ffffffffffffffffffffffffffffffffffffffff168152602001600282018054612ab59061418b565b80601f0160208091040260200160405190810160405280929190818152602001828054612ae19061418b565b8015612b2e5780601f10612b0357610100808354040283529160200191612b2e565b820191906000526020600020905b815481529060010190602001808311612b1157829003601f168201915b50505050508152602001600382018054612b479061418b565b80601f0160208091040260200160405190810160405280929190818152602001828054612b739061418b565b8015612bc05780601f10612b9557610100808354040283529160200191612bc0565b820191906000526020600020905b815481529060010190602001808311612ba357829003601f168201915b50505050508152602001600482015481526020016005820160009054906101000a900460ff1615151515815260200160068201805480602002602001604051908101604052809291908181526020016000905b82821015612cbf578382906000526020600020018054612c329061418b565b80601f0160208091040260200160405190810160405280929190818152602001828054612c5e9061418b565b8015612cab5780601f10612c8057610100808354040283529160200191612cab565b820191906000526020600020905b815481529060010190602001808311612c8e57829003601f168201915b505050505081526020019060010190612c13565b5050505081525050828281518110612cda57612cd961412d565b5b60200260200101819052508080600101915050612a03565b508091505092915050565b60005b8151811015612e23576000828281518110612d1e57612d1d61412d565b5b60200260200101519050600081511115612e1557600681604051612d4291906141f8565b908152602001604051809103902060009054906101000a900460ff16612dcf576001600682604051612d7491906141f8565b908152602001604051809103902060006101000a81548160ff021916908315150217905550600581908060018154018082558091505060019003906000526020600020016000909190919091509081612dcd919061444d565b505b600481604051612ddf91906141f8565b90815260200160405180910390208490806001815401808255809150506001900390600052602060002001600090919091909150555b508080600101915050612d00565b505050565b612e30612f73565b73ffffffffffffffffffffffffffffffffffffffff16612e4e61156a565b73ffffffffffffffffffffffffffffffffffffffff1614612ead57612e71612f73565b6040517f118cdaa7000000000000000000000000000000000000000000000000000000008152600401612ea49190613a5b565b60405180910390fd5b565b60008060009054906101000a900473ffffffffffffffffffffffffffffffffffffffff169050816000806101000a81548173ffffffffffffffffffffffffffffffffffffffff021916908373ffffffffffffffffffffffffffffffffffffffff1602179055508173ffffffffffffffffffffffffffffffffffffffff168173ffffffffffffffffffffffffffffffffffffffff167f8be0079c531659141344cd1fd0a4f28419497f9722a3daafe3b4186f6b6457e060405160405180910390a35050565b600033905090565b6040518060e0016040528060008152602001600073ffffffffffffffffffffffffffffffffffffffff168152602001606081526020016060815260200160008152602001600015158152602001606081525090565b508054612fdc9061418b565b6000825580601f10612fee575061300d565b601f01602090049060005260206000209081019061300c9190613069565b5b50565b828054828255906000526020600020908101928215613058579160200282015b82811115613057578251829081613047919061444d565b5091602001919060010190613030565b5b5090506130659190613086565b5090565b5b8082111561308257600081600090555060010161306a565b5090565b5b808211156130a6576000818161309d9190612fd0565b50600101613087565b5090565b6000604051905090565b600080fd5b600080fd5b6000819050919050565b6130d1816130be565b81146130dc57600080fd5b50565b6000813590506130ee816130c8565b92915050565b60006020828403121561310a576131096130b4565b5b6000613118848285016130df565b91505092915050565b600081519050919050565b600082825260208201905092915050565b6000819050602082019050919050565b613156816130be565b82525050565b600073ffffffffffffffffffffffffffffffffffffffff82169050919050565b60006131878261315c565b9050919050565b6131978161317c565b82525050565b600081519050919050565b600082825260208201905092915050565b60005b838110156131d75780820151818401526020810190506131bc565b60008484015250505050565b6000601f19601f8301169050919050565b60006131ff8261319d565b61320981856131a8565b93506132198185602086016131b9565b613222816131e3565b840191505092915050565b600060a083016000830151613245600086018261314d565b506020830151613258602086018261314d565b50604083015161326b604086018261318e565b506060830151848203606086015261328382826131f4565b9150506080830151613298608086018261314d565b508091505092915050565b60006132af838361322d565b905092915050565b6000602082019050919050565b60006132cf82613121565b6132d9818561312c565b9350836020820285016132eb8561313d565b8060005b85811015613327578484038952815161330885826132a3565b9450613313836132b7565b925060208a019950506001810190506132ef565b50829750879550505050505092915050565b6000602082019050818103600083015261335381846132c4565b905092915050565b6133648161317c565b811461336f57600080fd5b50565b6000813590506133818161335b565b92915050565b60006020828403121561339d5761339c6130b4565b5b60006133ab84828501613372565b91505092915050565b600081519050919050565b600082825260208201905092915050565b6000819050602082019050919050565b60006080830160008301516133f8600086018261314d565b50602083015161340b602086018261314d565b506040830151848203604086015261342382826131f4565b9150506060830151613438606086018261314d565b508091505092915050565b600061344f83836133e0565b905092915050565b6000602082019050919050565b600061346f826133b4565b61347981856133bf565b93508360208202850161348b856133d0565b8060005b858110156134c757848403895281516134a88582613443565b94506134b383613457565b925060208a0199505060018101905061348f565b50829750879550505050505092915050565b600060208201905081810360008301526134f38184613464565b905092915050565b60008115159050919050565b613510816134fb565b82525050565b600081519050919050565b600082825260208201905092915050565b6000819050602082019050919050565b600061354e83836131f4565b905092915050565b6000602082019050919050565b600061356e82613516565b6135788185613521565b93508360208202850161358a85613532565b8060005b858110156135c657848403895281516135a78582613542565b94506135b283613556565b925060208a0199505060018101905061358e565b50829750879550505050505092915050565b600060e0830160008301516135f0600086018261314d565b506020830151613603602086018261318e565b506040830151848203604086015261361b82826131f4565b9150506060830151848203606086015261363582826131f4565b915050608083015161364a608086018261314d565b5060a083015161365d60a0860182613507565b5060c083015184820360c08601526136758282613563565b9150508091505092915050565b6000602082019050818103600083015261369c81846135d8565b905092915050565b600080fd5b600080fd5b7f4e487b7100000000000000000000000000000000000000000000000000000000600052604160045260246000fd5b6136e6826131e3565b810181811067ffffffffffffffff82111715613705576137046136ae565b5b80604052505050565b60006137186130aa565b905061372482826136dd565b919050565b600067ffffffffffffffff821115613744576137436136ae565b5b61374d826131e3565b9050602081019050919050565b82818337600083830152505050565b600061377c61377784613729565b61370e565b905082815260208101848484011115613798576137976136a9565b5b6137a384828561375a565b509392505050565b600082601f8301126137c0576137bf6136a4565b5b81356137d0848260208601613769565b91505092915050565b600067ffffffffffffffff8211156137f4576137f36136ae565b5b602082029050602081019050919050565b600080fd5b600061381d613818846137d9565b61370e565b905080838252602082019050602084028301858111156138405761383f613805565b5b835b8181101561388757803567ffffffffffffffff811115613865576138646136a4565b5b80860161387289826137ab565b85526020850194505050602081019050613842565b5050509392505050565b600082601f8301126138a6576138a56136a4565b5b81356138b684826020860161380a565b91505092915050565b600080600080608085870312156138d9576138d86130b4565b5b60006138e7878288016130df565b945050602085013567ffffffffffffffff811115613908576139076130b9565b5b613914878288016137ab565b935050604085013567ffffffffffffffff811115613935576139346130b9565b5b613941878288016137ab565b925050606085013567ffffffffffffffff811115613962576139616130b9565b5b61396e87828801613891565b91505092959194509250565b613983816130be565b82525050565b600060208201905061399e600083018461397a565b92915050565b600082825260208201905092915050565b60006139c082613516565b6139ca81856139a4565b9350836020820285016139dc85613532565b8060005b85811015613a1857848403895281516139f98582613542565b9450613a0483613556565b925060208a019950506001810190506139e0565b50829750879550505050505092915050565b60006020820190508181036000830152613a4481846139b5565b905092915050565b613a558161317c565b82525050565b6000602082019050613a706000830184613a4c565b92915050565b600081519050919050565b600082825260208201905092915050565b6000819050602082019050919050565b6000613aae838361314d565b60208301905092915050565b6000602082019050919050565b6000613ad282613a76565b613adc8185613a81565b9350613ae783613a92565b8060005b83811015613b18578151613aff8882613aa2565b9750613b0a83613aba565b925050600181019050613aeb565b5085935050505092915050565b60006020820190508181036000830152613b3f8184613ac7565b905092915050565b60008060408385031215613b5e57613b5d6130b4565b5b6000613b6c858286016130df565b9250506020613b7d85828601613372565b9150509250929050565b613b90816134fb565b82525050565b6000602082019050613bab6000830184613b87565b92915050565b60008060408385031215613bc857613bc76130b4565b5b6000613bd685828601613372565b9250506020613be785828601613372565b9150509250929050565b60008060408385031215613c0857613c076130b4565b5b6000613c16858286016130df565b925050602083013567ffffffffffffffff811115613c3757613c366130b9565b5b613c43858286016137ab565b9150509250929050565b600080600060608486031215613c6657613c656130b4565b5b600084013567ffffffffffffffff811115613c8457613c836130b9565b5b613c90868287016137ab565b935050602084013567ffffffffffffffff811115613cb157613cb06130b9565b5b613cbd868287016137ab565b925050604084013567ffffffffffffffff811115613cde57613cdd6130b9565b5b613cea86828701613891565b9150509250925092565b600081519050919050565b600082825260208201905092915050565b6000819050602082019050919050565b6000613d2c838361318e565b60208301905092915050565b6000602082019050919050565b6000613d5082613cf4565b613d5a8185613cff565b9350613d6583613d10565b8060005b83811015613d96578151613d7d8882613d20565b9750613d8883613d38565b925050600181019050613d69565b5085935050505092915050565b60006020820190508181036000830152613dbd8184613d45565b905092915050565b600060208284031215613ddb57613dda6130b4565b5b600082013567ffffffffffffffff811115613df957613df86130b9565b5b613e05848285016137ab565b91505092915050565b600080fd5b60008083601f840112613e2957613e286136a4565b5b8235905067ffffffffffffffff811115613e4657613e45613e0e565b5b602083019150836020820283011115613e6257613e61613805565b5b9250929050565b60008060208385031215613e8057613e7f6130b4565b5b600083013567ffffffffffffffff811115613e9e57613e9d6130b9565b5b613eaa85828601613e13565b92509250509250929050565b600081519050919050565b600082825260208201905092915050565b6000819050602082019050919050565b600060e083016000830151613efa600086018261314d565b506020830151613f0d602086018261318e565b5060408301518482036040860152613f2582826131f4565b91505060608301518482036060860152613f3f82826131f4565b9150506080830151613f54608086018261314d565b5060a0830151613f6760a0860182613507565b5060c083015184820360c0860152613f7f8282613563565b9150508091505092915050565b6000613f988383613ee2565b905092915050565b6000602082019050919050565b6000613fb882613eb6565b613fc28185613ec1565b935083602082028501613fd485613ed2565b8060005b858110156140105784840389528151613ff18582613f8c565b9450613ffc83613fa0565b925060208a01995050600181019050613fd8565b50829750879550505050505092915050565b6000602082019050818103600083015261403c8184613fad565b905092915050565b600082825260208201905092915050565b7f506f737420646f6573206e6f7420657869737400000000000000000000000000600082015250565b600061408b601383614044565b915061409682614055565b602082019050919050565b600060208201905081810360008301526140ba8161407e565b9050919050565b7f4e6f742074686520617574686f72000000000000000000000000000000000000600082015250565b60006140f7600e83614044565b9150614102826140c1565b602082019050919050565b60006020820190508181036000830152614126816140ea565b9050919050565b7f4e487b7100000000000000000000000000000000000000000000000000000000600052603260045260246000fd5b7f4e487b7100000000000000000000000000000000000000000000000000000000600052602260045260246000fd5b600060028204905060018216806141a357607f821691505b6020821081036141b6576141b561415c565b5b50919050565b600081905092915050565b60006141d28261319d565b6141dc81856141bc565b93506141ec8185602086016131b9565b80840191505092915050565b600061420482846141c7565b915081905092915050565b7f4e487b7100000000000000000000000000000000000000000000000000000000600052601160045260246000fd5b6000614249826130be565b9150614254836130be565b925082820390508181111561426c5761426b61420f565b5b92915050565b7f4e487b7100000000000000000000000000000000000000000000000000000000600052603160045260246000fd5b60008190508160005260206000209050919050565b60006020601f8301049050919050565b600082821b905092915050565b6000600883026143037fffffffffffffffffffffffffffffffffffffffffffffffffffffffffffffffff826142c6565b61430d86836142c6565b95508019841693508086168417925050509392505050565b6000819050919050565b600061434a614345614340846130be565b614325565b6130be565b9050919050565b6000819050919050565b6143648361432f565b61437861437082614351565b8484546142d3565b825550505050565b600090565b61438d614380565b61439881848461435b565b505050565b5b818110156143bc576143b1600082614385565b60018101905061439e565b5050565b601f821115614401576143d2816142a1565b6143db846142b6565b810160208510156143ea578190505b6143fe6143f6856142b6565b83018261439d565b50505b505050565b600082821c905092915050565b600061442460001984600802614406565b1980831691505092915050565b600061443d8383614413565b9150826002028217905092915050565b6144568261319d565b67ffffffffffffffff81111561446f5761446e6136ae565b5b614479825461418b565b6144848282856143c0565b600060209050601f8311600181146144b757600084156144a5578287015190505b6144af8582614431565b865550614517565b601f1984166144c5866142a1565b60005b828110156144ed578489015182556001820191506020850194506020810190506144c8565b8683101561450a5784890151614506601f891682614413565b8355505b6001600288020188555050505b505050505050565b600061452a8261319d565b6145348185614044565b93506145448185602086016131b9565b61454d816131e3565b840191505092915050565b60006060820190508181036000830152614572818661451f565b90508181036020830152614586818561451f565b9050818103604083015261459a81846139b5565b9050949350505050565b7f416c7265616479206c696b656400000000000000000000000000000000000000600082015250565b60006145da600d83614044565b91506145e5826145a4565b602082019050919050565b60006020820190508181036000830152614609816145cd565b9050919050565b600061461b826130be565b91507fffffffffffffffffffffffffffffffffffffffffffffffffffffffffffffffff820361464d5761464c61420f565b5b600182019050919050565b7f416c726561647920666f6c6c6f77696e67000000000000000000000000000000600082015250565b600061468e601183614044565b915061469982614658565b602082019050919050565b600060208201905081810360008301526146bd81614681565b9050919050565b7f43616e6e6f7420666f6c6c6f7720796f757273656c6600000000000000000000600082015250565b60006146fa601683614044565b9150614705826146c4565b602082019050919050565b60006020820190508181036000830152614729816146ed565b9050919050565b7f436f6d6d656e742063616e6e6f7420626520656d707479000000000000000000600082015250565b6000614766601783614044565b915061477182614730565b602082019050919050565b6000602082019050818103600083015261479581614759565b9050919050565b60006060820190506147b1600083018661397a565b6147be6020830185613a4c565b81810360408301526147d0818461451f565b9050949350505050565b7f5469746c652063616e6e6f7420626520656d7074790000000000000000000000600082015250565b6000614810601583614044565b915061481b826147da565b602082019050919050565b6000602082019050818103600083015261483f81614803565b9050919050565b7f436f6e74656e7420686173682063616e6e6f7420626520656d70747900000000600082015250565b600061487c601c83614044565b915061488782614846565b602082019050919050565b600060208201905081810360008301526148ab8161486f565b9050919050565b600060808201905081810360008301526148cc818761451f565b905081810360208301526148e0818661451f565b90506148ef604083018561397a565b818103606083015261490181846139b5565b905095945050505050565b7f4e6f7420666f6c6c6f77696e6700000000000000000000000000000000000000600082015250565b6000614942600d83614044565b915061494d8261490c565b602082019050919050565b6000602082019050818103600083015261497181614935565b905091905056fea26469706673582212208abb79609c53534836c3fd50d8475dcd9f577c835d80e02ea93a9b13f193a99e64736f6c634300081c0033",
  "linkReferences": {},
  "deployedLinkReferences": {}
}