{
  "_format": "hh-sol-artifact-1",
  "contractName": "DecentralizedBlog",
  "sourceName": "contracts/Blog.sol",
  "abi": [
    {
      "inputs": [],
      "stateMutability": "nonpayable",
      "type": "constructor"
    },
    {
      "inputs": [
        {
          "internalType": "address",
          "name": "owner",
          "type": "address"
        }
      ],
      "name": "OwnableInvalidOwner",
      "type": "error"
    },
    {
      "inputs": [
        {
          "internalType": "address",
          "name": "account",
          "type": "address"
        }
      ],
      "name": "OwnableUnauthorizedAccount",
      "type": "error"
    },
    {
      "anonymous": false,
      "inputs": [
        {
          "indexed": true,
          "internalType": "uint256",
          "name": "postId",
          "type": "uint256"
        },
        {
          "indexed": false,
          "internalType": "uint256",
          "name": "commentId",
          "type": "uint256"
        },
        {
          "indexed": false,
          "internalType": "address",
          "name": "author",
          "type": "address"
        },
        {
          "indexed": false,
          "internalType": "string",
          "name": "content",
          "type": "string"
        }
      ],
      "name": "CommentAdded",
      "type": "event"
    },
    {
      "anonymous": false,
      "inputs": [
        {
          "indexed": true,
          "internalType": "address",
          "name": "previousOwner",
          "type": "address"
        },
        {
          "indexed": true,
          "internalType": "address",
          "name": "newOwner",
          "type": "address"
        }
      ],
      "name": "OwnershipTransferred",
      "type": "event"
    },
    {
      "anonymous": false,
      "inputs": [
        {
          "indexed": true,
          "internalType": "uint256",
          "name": "id",
          "type": "uint256"
        },
        {
          "indexed": true,
          "internalType": "address",
          "name": "author",
          "type": "address"
        },
        {
          "indexed": false,
          "internalType": "string",
          "name": "title",
          "type": "string"
        },
        {
          "indexed": false,
          "internalType": "string",
          "name": "contentHash",
          "type": "string"
        },
        {
          "indexed": false,
          "internalType": "uint256",
          "name": "timestamp",
          "type": "uint256"
        }
      ],
      "name": "PostCreated",
      "type": "event"
    },
    {
      "anonymous": false,
      "inputs": [
        {
          "indexed": true,
          "internalType": "uint256",
          "name": "id",
          "type": "uint256"
        }
      ],
      "name": "PostDeleted",
      "type": "event"
    },
    {
      "anonymous": false,
      "inputs": [
        {
          "indexed": true,
          "internalType": "uint256",
          "name": "id",
          "type": "uint256"
        },
        {
          "indexed": false,
          "internalType": "string",
          "name": "newTitle",
          "type": "string"
        },
        {
          "indexed": false,
          "internalType": "string",
          "name": "newContentHash",
          "type": "string"
        }
      ],
      "name": "PostUpdated",
      "type": "event"
    },
    {
      "anonymous": false,
      "inputs": [
        {
          "indexed": true,
          "internalType": "address",
          "name": "follower",
          "type": "address"
        },
        {
          "indexed": true,
          "internalType": "address",
          "name": "followed",
          "type": "address"
        }
      ],
      "name": "UserFollowed",
      "type": "event"
    },
    {
      "anonymous": false,
      "inputs": [
        {
          "indexed": true,
          "internalType": "address",
          "name": "follower",
          "type": "address"
        },
        {
          "indexed": true,
          "internalType": "address",
          "name": "unfollowed",
          "type": "address"
        }
      ],
      "name": "UserUnfollowed",
      "type": "event"
    },
    {
      "inputs": [
        {
          "internalType": "uint256",
          "name": "_postId",
          "type": "uint256"
        },
        {
          "internalType": "string",
          "name": "_content",
          "type": "string"
        }
      ],
      "name": "addComment",
      "outputs": [],
      "stateMutability": "nonpayable",
      "type": "function"
    },
    {
      "inputs": [
        {
          "internalType": "string",
          "name": "_title",
          "type": "string"
        },
        {
          "internalType": "string",
          "name": "_contentHash",
          "type": "string"
        }
      ],
      "name": "createPost",
      "outputs": [
        {
          "internalType": "uint256",
          "name": "",
          "type": "uint256"
        }
      ],
      "stateMutability": "nonpayable",
      "type": "function"
    },
    {
      "inputs": [
        {
          "internalType": "uint256",
          "name": "_postId",
          "type": "uint256"
        }
      ],
      "name": "deletePost",
      "outputs": [],
      "stateMutability": "nonpayable",
      "type": "function"
    },
    {
      "inputs": [
        {
          "internalType": "address",
          "name": "_userToFollow",
          "type": "address"
        }
      ],
      "name": "followUser",
      "outputs": [],
      "stateMutability": "nonpayable",
      "type": "function"
    },
    {
      "inputs": [],
      "name": "getAllPostIds",
      "outputs": [
        {
          "internalType": "uint256[]",
          "name": "",
          "type": "uint256[]"
        }
      ],
      "stateMutability": "view",
      "type": "function"
    },
    {
      "inputs": [
        {
          "internalType": "uint256",
          "name": "_postId",
          "type": "uint256"
        }
      ],
      "name": "getComments",
      "outputs": [
        {
          "components": [
            {
              "internalType": "uint256",
              "name": "id",
              "type": "uint256"
            },
            {
              "internalType": "uint256",
              "name": "postId",
              "type": "uint256"
            },
            {
              "internalType": "address",
              "name": "author",
              "type": "address"
            },
            {
              "internalType": "string",
              "name": "content",
              "type": "string"
            },
            {
              "internalType": "uint256",
              "name": "timestamp",
              "type": "uint256"
            }
          ],
          "internalType": "struct DecentralizedBlog.Comment[]",
          "name": "",
          "type": "tuple[]"
        }
      ],
      "stateMutability": "view",
      "type": "function"
    },
    {
      "inputs": [
        {
          "internalType": "address",
          "name": "_user",
          "type": "address"
        }
      ],
      "name": "getFollowerCount",
      "outputs": [
        {
          "internalType": "uint256",
          "name": "",
          "type": "uint256"
        }
      ],
      "stateMutability": "view",
      "type": "function"
    },
    {
      "inputs": [
        {
          "internalType": "address",
          "name": "_user",
          "type": "address"
        }
      ],
      "name": "getFollowers",
      "outputs": [
        {
          "internalType": "address[]",
          "name": "",
          "type": "address[]"
        }
      ],
      "stateMutability": "view",
      "type": "function"
    },
    {
      "inputs": [
        {
          "internalType": "address",
          "name": "_user",
          "type": "address"
        }
      ],
      "name": "getFollowing",
      "outputs": [
        {
          "internalType": "address[]",
          "name": "",
          "type": "address[]"
        }
      ],
      "stateMutability": "view",
      "type": "function"
    },
    {
      "inputs": [
        {
          "internalType": "uint256",
          "name": "_postId",
          "type": "uint256"
        }
      ],
      "name": "getLikeCount",
      "outputs": [
        {
          "internalType": "uint256",
          "name": "",
          "type": "uint256"
        }
      ],
      "stateMutability": "view",
      "type": "function"
    },
    {
      "inputs": [
        {
          "internalType": "address",
          "name": "_user",
          "type": "address"
        }
      ],
      "name": "getLikedPosts",
      "outputs": [
        {
          "internalType": "uint256[]",
          "name": "",
          "type": "uint256[]"
        }
      ],
      "stateMutability": "view",
      "type": "function"
    },
    {
      "inputs": [
        {
          "internalType": "uint256[]",
          "name": "_postIds",
          "type": "uint256[]"
        }
      ],
      "name": "getMultiplePosts",
      "outputs": [
        {
          "components": [
            {
              "internalType": "uint256",
              "name": "id",
              "type": "uint256"
            },
            {
              "internalType": "address",
              "name": "author",
              "type": "address"
            },
            {
              "internalType": "string",
              "name": "title",
              "type": "string"
            },
            {
              "internalType": "string",
              "name": "contentHash",
              "type": "string"
            },
            {
              "internalType": "uint256",
              "name": "timestamp",
              "type": "uint256"
            },
            {
              "internalType": "bool",
              "name": "published",
              "type": "bool"
            }
          ],
          "internalType": "struct DecentralizedBlog.Post[]",
          "name": "",
          "type": "tuple[]"
        }
      ],
      "stateMutability": "view",
      "type": "function"
    },
    {
      "inputs": [
        {
          "internalType": "uint256",
          "name": "_postId",
          "type": "uint256"
        }
      ],
      "name": "getPost",
      "outputs": [
        {
          "components": [
            {
              "internalType": "uint256",
              "name": "id",
              "type": "uint256"
            },
            {
              "internalType": "address",
              "name": "author",
              "type": "address"
            },
            {
              "internalType": "string",
              "name": "title",
              "type": "string"
            },
            {
              "internalType": "string",
              "name": "contentHash",
              "type": "string"
            },
            {
              "internalType": "uint256",
              "name": "timestamp",
              "type": "uint256"
            },
            {
              "internalType": "bool",
              "name": "published",
              "type": "bool"
            }
          ],
          "internalType": "struct DecentralizedBlog.Post",
          "name": "",
          "type": "tuple"
        }
      ],
      "stateMutability": "view",
      "type": "function"
    },
    {
      "inputs": [],
      "name": "getPostCount",
      "outputs": [
        {
          "internalType": "uint256",
          "name": "",
          "type": "uint256"
        }
      ],
      "stateMutability": "view",
      "type": "function"
    },
    {
      "inputs": [
        {
          "internalType": "address",
          "name": "_user",
          "type": "address"
        }
      ],
      "name": "getUserCommentCount",
      "outputs": [
        {
          "internalType": "uint256",
          "name": "",
          "type": "uint256"
        }
      ],
      "stateMutability": "view",
      "type": "function"
    },
    {
      "inputs": [
        {
          "internalType": "address",
          "name": "_user",
          "type": "address"
        }
      ],
      "name": "getUserComments",
      "outputs": [
        {
          "components": [
            {
              "internalType": "uint256",
              "name": "postId",
              "type": "uint256"
            },
            {
              "internalType": "uint256",
              "name": "commentId",
              "type": "uint256"
            },
            {
              "internalType": "string",
              "name": "content",
              "type": "string"
            },
            {
              "internalType": "uint256",
              "name": "timestamp",
              "type": "uint256"
            }
          ],
          "internalType": "struct DecentralizedBlog.UserComment[]",
          "name": "",
          "type": "tuple[]"
        }
      ],
      "stateMutability": "view",
      "type": "function"
    },
    {
      "inputs": [
        {
          "internalType": "uint256",
          "name": "_postId",
          "type": "uint256"
        },
        {
          "internalType": "address",
          "name": "_user",
          "type": "address"
        }
      ],
      "name": "hasLiked",
      "outputs": [
        {
          "internalType": "bool",
          "name": "",
          "type": "bool"
        }
      ],
      "stateMutability": "view",
      "type": "function"
    },
    {
      "inputs": [
        {
          "internalType": "address",
          "name": "_user",
          "type": "address"
        },
        {
          "internalType": "address",
          "name": "_follower",
          "type": "address"
        }
      ],
      "name": "isFollower",
      "outputs": [
        {
          "internalType": "bool",
          "name": "",
          "type": "bool"
        }
      ],
      "stateMutability": "view",
      "type": "function"
    },
    {
      "inputs": [
        {
          "internalType": "address",
          "name": "_follower",
          "type": "address"
        },
        {
          "internalType": "address",
          "name": "_followed",
          "type": "address"
        }
      ],
      "name": "isFollowing",
      "outputs": [
        {
          "internalType": "bool",
          "name": "",
          "type": "bool"
        }
      ],
      "stateMutability": "view",
      "type": "function"
    },
    {
      "inputs": [
        {
          "internalType": "uint256",
          "name": "_postId",
          "type": "uint256"
        }
      ],
      "name": "likePost",
      "outputs": [],
      "stateMutability": "nonpayable",
      "type": "function"
    },
    {
      "inputs": [],
      "name": "owner",
      "outputs": [
        {
          "internalType": "address",
          "name": "",
          "type": "address"
        }
      ],
      "stateMutability": "view",
      "type": "function"
    },
    {
      "inputs": [],
      "name": "renounceOwnership",
      "outputs": [],
      "stateMutability": "nonpayable",
      "type": "function"
    },
    {
      "inputs": [
        {
          "internalType": "address",
          "name": "newOwner",
          "type": "address"
        }
      ],
      "name": "transferOwnership",
      "outputs": [],
      "stateMutability": "nonpayable",
      "type": "function"
    },
    {
      "inputs": [
        {
          "internalType": "address",
          "name": "_userToUnfollow",
          "type": "address"
        }
      ],
      "name": "unfollowUser",
      "outputs": [],
      "stateMutability": "nonpayable",
      "type": "function"
    },
    {
      "inputs": [
        {
          "internalType": "uint256",
          "name": "_postId",
          "type": "uint256"
        },
        {
          "internalType": "string",
          "name": "_newTitle",
          "type": "string"
        },
        {
          "internalType": "string",
          "name": "_newContentHash",
          "type": "string"
        }
      ],
      "name": "updatePost",
      "outputs": [],
      "stateMutability": "nonpayable",
      "type": "function"
    }
  ],
  "bytecode": "0x608060405260018055600160075534801561001957600080fd5b5033600073ffffffffffffffffffffffffffffffffffffffff168173ffffffffffffffffffffffffffffffffffffffff160361008d5760006040517f1e4fbdf700000000000000000000000000000000000000000000000000000000815260040161008491906101a7565b60405180910390fd5b61009c816100a260201b60201c565b506101c2565b60008060009054906101000a900473ffffffffffffffffffffffffffffffffffffffff169050816000806101000a81548173ffffffffffffffffffffffffffffffffffffffff021916908373ffffffffffffffffffffffffffffffffffffffff1602179055508173ffffffffffffffffffffffffffffffffffffffff168173ffffffffffffffffffffffffffffffffffffffff167f8be0079c531659141344cd1fd0a4f28419497f9722a3daafe3b4186f6b6457e060405160405180910390a35050565b600073ffffffffffffffffffffffffffffffffffffffff82169050919050565b600061019182610166565b9050919050565b6101a181610186565b82525050565b60006020820190506101bc6000830184610198565b92915050565b613be9806101d16000396000f3fe608060405234801561001057600080fd5b50600436106101735760003560e01c806399ec3a42116100de578063cb04c97011610097578063e5fe947711610071578063e5fe9477146104a8578063f107cfcb146104d8578063f2fde38b146104f4578063f6f7712b1461051057610173565b8063cb04c97014610418578063cdfd9b8614610448578063d8236dff1461047857610173565b806399ec3a4214610332578063a70806f714610362578063aa7e56831461037e578063bcc954071461039a578063c2fe2022146103b8578063c88790a2146103e857610173565b806366d1cac91161013057806366d1cac914610284578063715018a6146102a0578063725009d3146102aa5780638da5cb5b146102c65780638e25df9e146102e45780638fb7092c1461030257610173565b8063094cd5ee1461017857806323edf697146101945780632b3c6e22146101c4578063392338f5146101f457806340731c24146102245780634ef576ad14610254575b600080fd5b610192600480360381019061018d91906126d3565b610540565b005b6101ae60048036038101906101a991906126d3565b610740565b6040516101bb9190612918565b60405180910390f35b6101de60048036038101906101d99190612966565b6108b8565b6040516101eb9190612ab8565b60405180910390f35b61020e60048036038101906102099190612c0f565b610a06565b60405161021b9190612c96565b60405180910390f35b61023e600480360381019061023991906126d3565b610c39565b60405161024b9190612d5c565b60405180910390f35b61026e600480360381019061026991906126d3565b610e5c565b60405161027b9190612c96565b60405180910390f35b61029e60048036038101906102999190612d7e565b610e79565b005b6102a8610fcd565b005b6102c460048036038101906102bf91906126d3565b610fe1565b005b6102ce611114565b6040516102db9190612e18565b60405180910390f35b6102ec61113d565b6040516102f99190612ee2565b60405180910390f35b61031c60048036038101906103179190612f04565b611195565b6040516103299190612f53565b60405180910390f35b61034c60048036038101906103479190612f6e565b6111fd565b6040516103599190612f53565b60405180910390f35b61037c60048036038101906103779190612966565b611291565b005b61039860048036038101906103939190612fae565b6115fb565b005b6103a261190a565b6040516103af9190612c96565b60405180910390f35b6103d260048036038101906103cd9190612966565b611917565b6040516103df91906130b9565b60405180910390f35b61040260048036038101906103fd9190612966565b6119e4565b60405161040f9190612c96565b60405180910390f35b610432600480360381019061042d9190612966565b611a2d565b60405161043f9190612c96565b60405180910390f35b610462600480360381019061045d9190612966565b611a79565b60405161046f9190612ee2565b60405180910390f35b610492600480360381019061048d9190612966565b611c4d565b60405161049f91906130b9565b60405180910390f35b6104c260048036038101906104bd9190612f6e565b611d1a565b6040516104cf9190612f53565b60405180910390f35b6104f260048036038101906104ed9190612966565b611e61565b005b61050e60048036038101906105099190612966565b6121e1565b005b61052a6004803603810190610525919061313b565b612267565b60405161053791906132da565b60405180910390f35b6000600260008381526020019081526020016000209050600081600001540361059e576040517f08c379a000000000000000000000000000000000000000000000000000000000815260040161059590613359565b60405180910390fd5b3373ffffffffffffffffffffffffffffffffffffffff168160010160009054906101000a900473ffffffffffffffffffffffffffffffffffffffff1673ffffffffffffffffffffffffffffffffffffffff1614610630576040517f08c379a0000000000000000000000000000000000000000000000000000000008152600401610627906133c5565b60405180910390fd5b60008160050160006101000a81548160ff02191690831515021790555060005b60038054905081101561070e578260038281548110610672576106716133e5565b5b90600052602060002001540361070157600360016003805490506106969190613443565b815481106106a7576106a66133e5565b5b9060005260206000200154600382815481106106c6576106c56133e5565b5b906000526020600020018190555060038054806106e6576106e5613477565b5b6001900381819060005260206000200160009055905561070e565b8080600101915050610650565b50817f32d67e2131cd025eb20e7256680e338dedbe17b28943a11681860a9271ad119d60405160405180910390a25050565b606060066000838152602001908152602001600020805480602002602001604051908101604052809291908181526020016000905b828210156108ad57838290600052602060002090600502016040518060a001604052908160008201548152602001600182015481526020016002820160009054906101000a900473ffffffffffffffffffffffffffffffffffffffff1673ffffffffffffffffffffffffffffffffffffffff1673ffffffffffffffffffffffffffffffffffffffff168152602001600382018054610812906134d5565b80601f016020809104026020016040519081016040528092919081815260200182805461083e906134d5565b801561088b5780601f106108605761010080835404028352916020019161088b565b820191906000526020600020905b81548152906001019060200180831161086e57829003601f168201915b5050505050815260200160048201548152505081526020019060010190610775565b505050509050919050565b6060600460008373ffffffffffffffffffffffffffffffffffffffff1673ffffffffffffffffffffffffffffffffffffffff168152602001908152602001600020805480602002602001604051908101604052809291908181526020016000905b828210156109fb57838290600052602060002090600402016040518060800160405290816000820154815260200160018201548152602001600282018054610960906134d5565b80601f016020809104026020016040519081016040528092919081815260200182805461098c906134d5565b80156109d95780601f106109ae576101008083540402835291602001916109d9565b820191906000526020600020905b8154815290600101906020018083116109bc57829003601f168201915b5050505050815260200160038201548152505081526020019060010190610919565b505050509050919050565b600080835111610a4b576040517f08c379a0000000000000000000000000000000000000000000000000000000008152600401610a4290613552565b60405180910390fd5b6000825111610a8f576040517f08c379a0000000000000000000000000000000000000000000000000000000008152600401610a86906135be565b60405180910390fd5b600060016000815480929190610aa4906135de565b91905055905060006040518060c001604052808381526020013373ffffffffffffffffffffffffffffffffffffffff16815260200186815260200185815260200142815260200160011515815250905080600260008481526020019081526020016000206000820151816000015560208201518160010160006101000a81548173ffffffffffffffffffffffffffffffffffffffff021916908373ffffffffffffffffffffffffffffffffffffffff1602179055506040820151816002019081610b6e91906137d2565b506060820151816003019081610b8491906137d2565b506080820151816004015560a08201518160050160006101000a81548160ff02191690831515021790555090505060038290806001815401808255809150506001900390600052602060002001600090919091909150553373ffffffffffffffffffffffffffffffffffffffff16827f1947cbf766c888fc9c5f4256cf388fe32d4901ff5bd47d3a4d5318af978cddbe878742604051610c26939291906138dd565b60405180910390a3819250505092915050565b610c4161263b565b6000600260008481526020019081526020016000206040518060c0016040529081600082015481526020016001820160009054906101000a900473ffffffffffffffffffffffffffffffffffffffff1673ffffffffffffffffffffffffffffffffffffffff1673ffffffffffffffffffffffffffffffffffffffff168152602001600282018054610cd1906134d5565b80601f0160208091040260200160405190810160405280929190818152602001828054610cfd906134d5565b8015610d4a5780601f10610d1f57610100808354040283529160200191610d4a565b820191906000526020600020905b815481529060010190602001808311610d2d57829003601f168201915b50505050508152602001600382018054610d63906134d5565b80601f0160208091040260200160405190810160405280929190818152602001828054610d8f906134d5565b8015610ddc5780601f10610db157610100808354040283529160200191610ddc565b820191906000526020600020905b815481529060010190602001808311610dbf57829003601f168201915b50505050508152602001600482015481526020016005820160009054906101000a900460ff16151515158152505090506000816000015103610e53576040517f08c379a0000000000000000000000000000000000000000000000000000000008152600401610e4a90613359565b60405180910390fd5b80915050919050565b600060096000838152602001908152602001600020549050919050565b60006002600085815260200190815260200160002090506000816000015403610ed7576040517f08c379a0000000000000000000000000000000000000000000000000000000008152600401610ece90613359565b60405180910390fd5b3373ffffffffffffffffffffffffffffffffffffffff168160010160009054906101000a900473ffffffffffffffffffffffffffffffffffffffff1673ffffffffffffffffffffffffffffffffffffffff1614610f69576040517f08c379a0000000000000000000000000000000000000000000000000000000008152600401610f60906133c5565b60405180910390fd5b82816002019081610f7a91906137d2565b5081816003019081610f8c91906137d2565b50837ffcc96ab7382d1c4bc7fd817ee5ec518a9bae200bb3d1396c725178b00a2488b48484604051610fbf929190613922565b60405180910390a250505050565b610fd56124e8565b610fdf600061256f565b565b6008600082815260200190815260200160002060003373ffffffffffffffffffffffffffffffffffffffff1673ffffffffffffffffffffffffffffffffffffffff16815260200190815260200160002060009054906101000a900460ff161561107f576040517f08c379a0000000000000000000000000000000000000000000000000000000008152600401611076906139a5565b60405180910390fd5b60016008600083815260200190815260200160002060003373ffffffffffffffffffffffffffffffffffffffff1673ffffffffffffffffffffffffffffffffffffffff16815260200190815260200160002060006101000a81548160ff02191690831515021790555060096000828152602001908152602001600020600081548092919061110c906135de565b919050555050565b60008060009054906101000a900473ffffffffffffffffffffffffffffffffffffffff16905090565b6060600380548060200260200160405190810160405280929190818152602001828054801561118b57602002820191906000526020600020905b815481526020019060010190808311611177575b5050505050905090565b60006008600084815260200190815260200160002060008373ffffffffffffffffffffffffffffffffffffffff1673ffffffffffffffffffffffffffffffffffffffff16815260200190815260200160002060009054906101000a900460ff16905092915050565b6000600b60008473ffffffffffffffffffffffffffffffffffffffff1673ffffffffffffffffffffffffffffffffffffffff16815260200190815260200160002060008373ffffffffffffffffffffffffffffffffffffffff1673ffffffffffffffffffffffffffffffffffffffff16815260200190815260200160002060009054906101000a900460ff16905092915050565b600b60003373ffffffffffffffffffffffffffffffffffffffff1673ffffffffffffffffffffffffffffffffffffffff16815260200190815260200160002060008273ffffffffffffffffffffffffffffffffffffffff1673ffffffffffffffffffffffffffffffffffffffff16815260200190815260200160002060009054906101000a900460ff161561135b576040517f08c379a000000000000000000000000000000000000000000000000000000000815260040161135290613a11565b60405180910390fd5b3373ffffffffffffffffffffffffffffffffffffffff168173ffffffffffffffffffffffffffffffffffffffff16036113c9576040517f08c379a00000000000000000000000000000000000000000000000000000000081526004016113c090613a7d565b60405180910390fd5b600a60003373ffffffffffffffffffffffffffffffffffffffff1673ffffffffffffffffffffffffffffffffffffffff168152602001908152602001600020819080600181540180825580915050600190039060005260206000200160009091909190916101000a81548173ffffffffffffffffffffffffffffffffffffffff021916908373ffffffffffffffffffffffffffffffffffffffff1602179055506001600b60003373ffffffffffffffffffffffffffffffffffffffff1673ffffffffffffffffffffffffffffffffffffffff16815260200190815260200160002060008373ffffffffffffffffffffffffffffffffffffffff1673ffffffffffffffffffffffffffffffffffffffff16815260200190815260200160002060006101000a81548160ff021916908315150217905550600c60008273ffffffffffffffffffffffffffffffffffffffff1673ffffffffffffffffffffffffffffffffffffffff168152602001908152602001600020339080600181540180825580915050600190039060005260206000200160009091909190916101000a81548173ffffffffffffffffffffffffffffffffffffffff021916908373ffffffffffffffffffffffffffffffffffffffff1602179055508073ffffffffffffffffffffffffffffffffffffffff163373ffffffffffffffffffffffffffffffffffffffff167f30b3435b456f45779984ddfa456115ee4c20d9e446979b1b9e90dbb7e12b90b760405160405180910390a350565b6000600260008481526020019081526020016000206000015403611654576040517f08c379a000000000000000000000000000000000000000000000000000000000815260040161164b90613359565b60405180910390fd5b6000815111611698576040517f08c379a000000000000000000000000000000000000000000000000000000000815260040161168f90613ae9565b60405180910390fd5b6000600760008154809291906116ad906135de565b91905055905060006040518060a001604052808381526020018581526020013373ffffffffffffffffffffffffffffffffffffffff16815260200184815260200142815250905060066000858152602001908152602001600020819080600181540180825580915050600190039060005260206000209060050201600090919091909150600082015181600001556020820151816001015560408201518160020160006101000a81548173ffffffffffffffffffffffffffffffffffffffff021916908373ffffffffffffffffffffffffffffffffffffffff16021790555060608201518160030190816117a191906137d2565b5060808201518160040155505060006040518060800160405280868152602001848152602001858152602001428152509050600460003373ffffffffffffffffffffffffffffffffffffffff1673ffffffffffffffffffffffffffffffffffffffff1681526020019081526020016000208190806001815401808255809150506001900390600052602060002090600402016000909190919091506000820151816000015560208201518160010155604082015181600201908161186591906137d2565b50606082015181600301555050600560003373ffffffffffffffffffffffffffffffffffffffff1673ffffffffffffffffffffffffffffffffffffffff16815260200190815260200160002060008154809291906118c2906135de565b9190505550847f96d81cac001a263174d42d42cfad470fec9d863bcf6d52ba8b93d47c7ee00de38433876040516118fb93929190613b09565b60405180910390a25050505050565b6000600380549050905090565b6060600c60008373ffffffffffffffffffffffffffffffffffffffff1673ffffffffffffffffffffffffffffffffffffffff1681526020019081526020016000208054806020026020016040519081016040528092919081815260200182805480156119d857602002820191906000526020600020905b8160009054906101000a900473ffffffffffffffffffffffffffffffffffffffff1673ffffffffffffffffffffffffffffffffffffffff168152602001906001019080831161198e575b50505050509050919050565b6000600560008373ffffffffffffffffffffffffffffffffffffffff1673ffffffffffffffffffffffffffffffffffffffff168152602001908152602001600020549050919050565b6000600c60008373ffffffffffffffffffffffffffffffffffffffff1673ffffffffffffffffffffffffffffffffffffffff168152602001908152602001600020805490509050919050565b6060600060038054905067ffffffffffffffff811115611a9c57611a9b612ae4565b5b604051908082528060200260200182016040528015611aca5781602001602082028036833780820191505090505b5090506000805b600380549050811015611ba157600060038281548110611af457611af36133e5565b5b906000526020600020015490506008600082815260200190815260200160002060008773ffffffffffffffffffffffffffffffffffffffff1673ffffffffffffffffffffffffffffffffffffffff16815260200190815260200160002060009054906101000a900460ff1615611b935780848481518110611b7857611b776133e5565b5b6020026020010181815250508280611b8f906135de565b9350505b508080600101915050611ad1565b5060008167ffffffffffffffff811115611bbe57611bbd612ae4565b5b604051908082528060200260200182016040528015611bec5781602001602082028036833780820191505090505b50905060005b82811015611c4157838181518110611c0d57611c0c6133e5565b5b6020026020010151828281518110611c2857611c276133e5565b5b6020026020010181815250508080600101915050611bf2565b50809350505050919050565b6060600a60008373ffffffffffffffffffffffffffffffffffffffff1673ffffffffffffffffffffffffffffffffffffffff168152602001908152602001600020805480602002602001604051908101604052809291908181526020018280548015611d0e57602002820191906000526020600020905b8160009054906101000a900473ffffffffffffffffffffffffffffffffffffffff1673ffffffffffffffffffffffffffffffffffffffff1681526020019060010190808311611cc4575b50505050509050919050565b600080600c60008573ffffffffffffffffffffffffffffffffffffffff1673ffffffffffffffffffffffffffffffffffffffff168152602001908152602001600020805480602002602001604051908101604052809291908181526020018280548015611ddc57602002820191906000526020600020905b8160009054906101000a900473ffffffffffffffffffffffffffffffffffffffff1673ffffffffffffffffffffffffffffffffffffffff1681526020019060010190808311611d92575b5050505050905060005b8151811015611e54578373ffffffffffffffffffffffffffffffffffffffff16828281518110611e1957611e186133e5565b5b602002602001015173ffffffffffffffffffffffffffffffffffffffff1603611e4757600192505050611e5b565b8080600101915050611de6565b5060009150505b92915050565b600b60003373ffffffffffffffffffffffffffffffffffffffff1673ffffffffffffffffffffffffffffffffffffffff16815260200190815260200160002060008273ffffffffffffffffffffffffffffffffffffffff1673ffffffffffffffffffffffffffffffffffffffff16815260200190815260200160002060009054906101000a900460ff16611f2a576040517f08c379a0000000000000000000000000000000000000000000000000000000008152600401611f2190613b93565b60405180910390fd5b6000600a60003373ffffffffffffffffffffffffffffffffffffffff1673ffffffffffffffffffffffffffffffffffffffff168152602001908152602001600020905060005b81805490508110156120ed578273ffffffffffffffffffffffffffffffffffffffff16828281548110611fa657611fa56133e5565b5b9060005260206000200160009054906101000a900473ffffffffffffffffffffffffffffffffffffffff1673ffffffffffffffffffffffffffffffffffffffff16036120e0578160018380549050611ffe9190613443565b8154811061200f5761200e6133e5565b5b9060005260206000200160009054906101000a900473ffffffffffffffffffffffffffffffffffffffff1682828154811061204d5761204c6133e5565b5b9060005260206000200160006101000a81548173ffffffffffffffffffffffffffffffffffffffff021916908373ffffffffffffffffffffffffffffffffffffffff160217905550818054806120a6576120a5613477565b5b6001900381819060005260206000200160006101000a81549073ffffffffffffffffffffffffffffffffffffffff021916905590556120ed565b8080600101915050611f70565b506000600b60003373ffffffffffffffffffffffffffffffffffffffff1673ffffffffffffffffffffffffffffffffffffffff16815260200190815260200160002060008473ffffffffffffffffffffffffffffffffffffffff1673ffffffffffffffffffffffffffffffffffffffff16815260200190815260200160002060006101000a81548160ff0219169083151502179055508173ffffffffffffffffffffffffffffffffffffffff163373ffffffffffffffffffffffffffffffffffffffff167fe7339343c6edff57f2d15278c419523844cea30ae5ee2146aa22cb9e3107dab760405160405180910390a35050565b6121e96124e8565b600073ffffffffffffffffffffffffffffffffffffffff168173ffffffffffffffffffffffffffffffffffffffff160361225b5760006040517f1e4fbdf70000000000000000000000000000000000000000000000000000000081526004016122529190612e18565b60405180910390fd5b6122648161256f565b50565b606060008383905067ffffffffffffffff81111561228857612287612ae4565b5b6040519080825280602002602001820160405280156122c157816020015b6122ae61263b565b8152602001906001900390816122a65790505b50905060005b848490508110156124dd57600260008686848181106122e9576122e86133e5565b5b9050602002013581526020019081526020016000206040518060c0016040529081600082015481526020016001820160009054906101000a900473ffffffffffffffffffffffffffffffffffffffff1673ffffffffffffffffffffffffffffffffffffffff1673ffffffffffffffffffffffffffffffffffffffff168152602001600282018054612379906134d5565b80601f01602080910402602001604051908101604052809291908181526020018280546123a5906134d5565b80156123f25780601f106123c7576101008083540402835291602001916123f2565b820191906000526020600020905b8154815290600101906020018083116123d557829003601f168201915b5050505050815260200160038201805461240b906134d5565b80601f0160208091040260200160405190810160405280929190818152602001828054612437906134d5565b80156124845780601f1061245957610100808354040283529160200191612484565b820191906000526020600020905b81548152906001019060200180831161246757829003601f168201915b50505050508152602001600482015481526020016005820160009054906101000a900460ff1615151515815250508282815181106124c5576124c46133e5565b5b602002602001018190525080806001019150506122c7565b508091505092915050565b6124f0612633565b73ffffffffffffffffffffffffffffffffffffffff1661250e611114565b73ffffffffffffffffffffffffffffffffffffffff161461256d57612531612633565b6040517f118cdaa70000000000000000000000000000000000000000000000000000000081526004016125649190612e18565b60405180910390fd5b565b60008060009054906101000a900473ffffffffffffffffffffffffffffffffffffffff169050816000806101000a81548173ffffffffffffffffffffffffffffffffffffffff021916908373ffffffffffffffffffffffffffffffffffffffff1602179055508173ffffffffffffffffffffffffffffffffffffffff168173ffffffffffffffffffffffffffffffffffffffff167f8be0079c531659141344cd1fd0a4f28419497f9722a3daafe3b4186f6b6457e060405160405180910390a35050565b600033905090565b6040518060c0016040528060008152602001600073ffffffffffffffffffffffffffffffffffffffff1681526020016060815260200160608152602001600081526020016000151581525090565b6000604051905090565b600080fd5b600080fd5b6000819050919050565b6126b08161269d565b81146126bb57600080fd5b50565b6000813590506126cd816126a7565b92915050565b6000602082840312156126e9576126e8612693565b5b60006126f7848285016126be565b91505092915050565b600081519050919050565b600082825260208201905092915050565b6000819050602082019050919050565b6127358161269d565b82525050565b600073ffffffffffffffffffffffffffffffffffffffff82169050919050565b60006127668261273b565b9050919050565b6127768161275b565b82525050565b600081519050919050565b600082825260208201905092915050565b60005b838110156127b657808201518184015260208101905061279b565b60008484015250505050565b6000601f19601f8301169050919050565b60006127de8261277c565b6127e88185612787565b93506127f8818560208601612798565b612801816127c2565b840191505092915050565b600060a083016000830151612824600086018261272c565b506020830151612837602086018261272c565b50604083015161284a604086018261276d565b506060830151848203606086015261286282826127d3565b9150506080830151612877608086018261272c565b508091505092915050565b600061288e838361280c565b905092915050565b6000602082019050919050565b60006128ae82612700565b6128b8818561270b565b9350836020820285016128ca8561271c565b8060005b8581101561290657848403895281516128e78582612882565b94506128f283612896565b925060208a019950506001810190506128ce565b50829750879550505050505092915050565b6000602082019050818103600083015261293281846128a3565b905092915050565b6129438161275b565b811461294e57600080fd5b50565b6000813590506129608161293a565b92915050565b60006020828403121561297c5761297b612693565b5b600061298a84828501612951565b91505092915050565b600081519050919050565b600082825260208201905092915050565b6000819050602082019050919050565b60006080830160008301516129d7600086018261272c565b5060208301516129ea602086018261272c565b5060408301518482036040860152612a0282826127d3565b9150506060830151612a17606086018261272c565b508091505092915050565b6000612a2e83836129bf565b905092915050565b6000602082019050919050565b6000612a4e82612993565b612a58818561299e565b935083602082028501612a6a856129af565b8060005b85811015612aa65784840389528151612a878582612a22565b9450612a9283612a36565b925060208a01995050600181019050612a6e565b50829750879550505050505092915050565b60006020820190508181036000830152612ad28184612a43565b905092915050565b600080fd5b600080fd5b7f4e487b7100000000000000000000000000000000000000000000000000000000600052604160045260246000fd5b612b1c826127c2565b810181811067ffffffffffffffff82111715612b3b57612b3a612ae4565b5b80604052505050565b6000612b4e612689565b9050612b5a8282612b13565b919050565b600067ffffffffffffffff821115612b7a57612b79612ae4565b5b612b83826127c2565b9050602081019050919050565b82818337600083830152505050565b6000612bb2612bad84612b5f565b612b44565b905082815260208101848484011115612bce57612bcd612adf565b5b612bd9848285612b90565b509392505050565b600082601f830112612bf657612bf5612ada565b5b8135612c06848260208601612b9f565b91505092915050565b60008060408385031215612c2657612c25612693565b5b600083013567ffffffffffffffff811115612c4457612c43612698565b5b612c5085828601612be1565b925050602083013567ffffffffffffffff811115612c7157612c70612698565b5b612c7d85828601612be1565b9150509250929050565b612c908161269d565b82525050565b6000602082019050612cab6000830184612c87565b92915050565b60008115159050919050565b612cc681612cb1565b82525050565b600060c083016000830151612ce4600086018261272c565b506020830151612cf7602086018261276d565b5060408301518482036040860152612d0f82826127d3565b91505060608301518482036060860152612d2982826127d3565b9150506080830151612d3e608086018261272c565b5060a0830151612d5160a0860182612cbd565b508091505092915050565b60006020820190508181036000830152612d768184612ccc565b905092915050565b600080600060608486031215612d9757612d96612693565b5b6000612da5868287016126be565b935050602084013567ffffffffffffffff811115612dc657612dc5612698565b5b612dd286828701612be1565b925050604084013567ffffffffffffffff811115612df357612df2612698565b5b612dff86828701612be1565b9150509250925092565b612e128161275b565b82525050565b6000602082019050612e2d6000830184612e09565b92915050565b600081519050919050565b600082825260208201905092915050565b6000819050602082019050919050565b6000612e6b838361272c565b60208301905092915050565b6000602082019050919050565b6000612e8f82612e33565b612e998185612e3e565b9350612ea483612e4f565b8060005b83811015612ed5578151612ebc8882612e5f565b9750612ec783612e77565b925050600181019050612ea8565b5085935050505092915050565b60006020820190508181036000830152612efc8184612e84565b905092915050565b60008060408385031215612f1b57612f1a612693565b5b6000612f29858286016126be565b9250506020612f3a85828601612951565b9150509250929050565b612f4d81612cb1565b82525050565b6000602082019050612f686000830184612f44565b92915050565b60008060408385031215612f8557612f84612693565b5b6000612f9385828601612951565b9250506020612fa485828601612951565b9150509250929050565b60008060408385031215612fc557612fc4612693565b5b6000612fd3858286016126be565b925050602083013567ffffffffffffffff811115612ff457612ff3612698565b5b61300085828601612be1565b9150509250929050565b600081519050919050565b600082825260208201905092915050565b6000819050602082019050919050565b6000613042838361276d565b60208301905092915050565b6000602082019050919050565b60006130668261300a565b6130708185613015565b935061307b83613026565b8060005b838110156130ac5781516130938882613036565b975061309e8361304e565b92505060018101905061307f565b5085935050505092915050565b600060208201905081810360008301526130d3818461305b565b905092915050565b600080fd5b600080fd5b60008083601f8401126130fb576130fa612ada565b5b8235905067ffffffffffffffff811115613118576131176130db565b5b602083019150836020820283011115613134576131336130e0565b5b9250929050565b6000806020838503121561315257613151612693565b5b600083013567ffffffffffffffff8111156131705761316f612698565b5b61317c858286016130e5565b92509250509250929050565b600081519050919050565b600082825260208201905092915050565b6000819050602082019050919050565b600060c0830160008301516131cc600086018261272c565b5060208301516131df602086018261276d565b50604083015184820360408601526131f782826127d3565b9150506060830151848203606086015261321182826127d3565b9150506080830151613226608086018261272c565b5060a083015161323960a0860182612cbd565b508091505092915050565b600061325083836131b4565b905092915050565b6000602082019050919050565b600061327082613188565b61327a8185613193565b93508360208202850161328c856131a4565b8060005b858110156132c857848403895281516132a98582613244565b94506132b483613258565b925060208a01995050600181019050613290565b50829750879550505050505092915050565b600060208201905081810360008301526132f48184613265565b905092915050565b600082825260208201905092915050565b7f506f737420646f6573206e6f7420657869737400000000000000000000000000600082015250565b60006133436013836132fc565b915061334e8261330d565b602082019050919050565b6000602082019050818103600083015261337281613336565b9050919050565b7f4e6f742074686520617574686f72000000000000000000000000000000000000600082015250565b60006133af600e836132fc565b91506133ba82613379565b602082019050919050565b600060208201905081810360008301526133de816133a2565b9050919050565b7f4e487b7100000000000000000000000000000000000000000000000000000000600052603260045260246000fd5b7f4e487b7100000000000000000000000000000000000000000000000000000000600052601160045260246000fd5b600061344e8261269d565b91506134598361269d565b925082820390508181111561347157613470613414565b5b92915050565b7f4e487b7100000000000000000000000000000000000000000000000000000000600052603160045260246000fd5b7f4e487b7100000000000000000000000000000000000000000000000000000000600052602260045260246000fd5b600060028204905060018216806134ed57607f821691505b602082108103613500576134ff6134a6565b5b50919050565b7f5469746c652063616e6e6f7420626520656d7074790000000000000000000000600082015250565b600061353c6015836132fc565b915061354782613506565b602082019050919050565b6000602082019050818103600083015261356b8161352f565b9050919050565b7f436f6e74656e7420686173682063616e6e6f7420626520656d70747900000000600082015250565b60006135a8601c836132fc565b91506135b382613572565b602082019050919050565b600060208201905081810360008301526135d78161359b565b9050919050565b60006135e98261269d565b91507fffffffffffffffffffffffffffffffffffffffffffffffffffffffffffffffff820361361b5761361a613414565b5b600182019050919050565b60008190508160005260206000209050919050565b60006020601f8301049050919050565b600082821b905092915050565b6000600883026136887fffffffffffffffffffffffffffffffffffffffffffffffffffffffffffffffff8261364b565b613692868361364b565b95508019841693508086168417925050509392505050565b6000819050919050565b60006136cf6136ca6136c58461269d565b6136aa565b61269d565b9050919050565b6000819050919050565b6136e9836136b4565b6136fd6136f5826136d6565b848454613658565b825550505050565b600090565b613712613705565b61371d8184846136e0565b505050565b5b818110156137415761373660008261370a565b600181019050613723565b5050565b601f8211156137865761375781613626565b6137608461363b565b8101602085101561376f578190505b61378361377b8561363b565b830182613722565b50505b505050565b600082821c905092915050565b60006137a96000198460080261378b565b1980831691505092915050565b60006137c28383613798565b9150826002028217905092915050565b6137db8261277c565b67ffffffffffffffff8111156137f4576137f3612ae4565b5b6137fe82546134d5565b613809828285613745565b600060209050601f83116001811461383c576000841561382a578287015190505b61383485826137b6565b86555061389c565b601f19841661384a86613626565b60005b828110156138725784890151825560018201915060208501945060208101905061384d565b8683101561388f578489015161388b601f891682613798565b8355505b6001600288020188555050505b505050505050565b60006138af8261277c565b6138b981856132fc565b93506138c9818560208601612798565b6138d2816127c2565b840191505092915050565b600060608201905081810360008301526138f781866138a4565b9050818103602083015261390b81856138a4565b905061391a6040830184612c87565b949350505050565b6000604082019050818103600083015261393c81856138a4565b9050818103602083015261395081846138a4565b90509392505050565b7f416c7265616479206c696b656400000000000000000000000000000000000000600082015250565b600061398f600d836132fc565b915061399a82613959565b602082019050919050565b600060208201905081810360008301526139be81613982565b9050919050565b7f416c726561647920666f6c6c6f77696e67000000000000000000000000000000600082015250565b60006139fb6011836132fc565b9150613a06826139c5565b602082019050919050565b60006020820190508181036000830152613a2a816139ee565b9050919050565b7f43616e6e6f7420666f6c6c6f7720796f757273656c6600000000000000000000600082015250565b6000613a676016836132fc565b9150613a7282613a31565b602082019050919050565b60006020820190508181036000830152613a9681613a5a565b9050919050565b7f436f6d6d656e742063616e6e6f7420626520656d707479000000000000000000600082015250565b6000613ad36017836132fc565b9150613ade82613a9d565b602082019050919050565b60006020820190508181036000830152613b0281613ac6565b9050919050565b6000606082019050613b1e6000830186612c87565b613b2b6020830185612e09565b8181036040830152613b3d81846138a4565b9050949350505050565b7f4e6f7420666f6c6c6f77696e6700000000000000000000000000000000000000600082015250565b6000613b7d600d836132fc565b9150613b8882613b47565b602082019050919050565b60006020820190508181036000830152613bac81613b70565b905091905056fea2646970667358221220c25cffb3da69eac8168cfbe84b2c65e715e68fe670548cdf3392d859c4744b1464736f6c634300081c0033",
  "linkReferences": {},
  "deployedLinkReferences": {}
}