{
  "_format": "hh-sol-artifact-1",
  "contractName": "DecentralizedBlog",
  "sourceName": "contracts/Blog.sol",
  "abi": [
    {
      "inputs": [],
      "stateMutability": "nonpayable",
      "type": "constructor"
    },
    {
      "inputs": [
        {
          "internalType": "address",
          "name": "target",
          "type": "address"
        }
      ],
      "name": "AddressEmptyCode",
      "type": "error"
    },
    {
      "inputs": [
        {
          "internalType": "address",
          "name": "implementation",
          "type": "address"
        }
      ],
      "name": "ERC1967InvalidImplementation",
      "type": "error"
    },
    {
      "inputs": [],
      "name": "ERC1967NonPayable",
      "type": "error"
    },
    {
      "inputs": [],
      "name": "FailedCall",
      "type": "error"
    },
    {
      "inputs": [],
      "name": "InvalidInitialization",
      "type": "error"
    },
    {
      "inputs": [],
      "name": "NotInitializing",
      "type": "error"
    },
    {
      "inputs": [
        {
          "internalType": "address",
          "name": "owner",
          "type": "address"
        }
      ],
      "name": "OwnableInvalidOwner",
      "type": "error"
    },
    {
      "inputs": [
        {
          "internalType": "address",
          "name": "account",
          "type": "address"
        }
      ],
      "name": "OwnableUnauthorizedAccount",
      "type": "error"
    },
    {
      "inputs": [],
      "name": "UUPSUnauthorizedCallContext",
      "type": "error"
    },
    {
      "inputs": [
        {
          "internalType": "bytes32",
          "name": "slot",
          "type": "bytes32"
        }
      ],
      "name": "UUPSUnsupportedProxiableUUID",
      "type": "error"
    },
    {
      "anonymous": false,
      "inputs": [
        {
          "indexed": true,
          "internalType": "uint256",
          "name": "postId",
          "type": "uint256"
        },
        {
          "indexed": false,
          "internalType": "uint256",
          "name": "commentId",
          "type": "uint256"
        },
        {
          "indexed": false,
          "internalType": "address",
          "name": "author",
          "type": "address"
        },
        {
          "indexed": false,
          "internalType": "string",
          "name": "content",
          "type": "string"
        }
      ],
      "name": "CommentAdded",
      "type": "event"
    },
    {
      "anonymous": false,
      "inputs": [
        {
          "indexed": false,
          "internalType": "uint64",
          "name": "version",
          "type": "uint64"
        }
      ],
      "name": "Initialized",
      "type": "event"
    },
    {
      "anonymous": false,
      "inputs": [
        {
          "indexed": true,
          "internalType": "address",
          "name": "previousOwner",
          "type": "address"
        },
        {
          "indexed": true,
          "internalType": "address",
          "name": "newOwner",
          "type": "address"
        }
      ],
      "name": "OwnershipTransferred",
      "type": "event"
    },
    {
      "anonymous": false,
      "inputs": [
        {
          "indexed": true,
          "internalType": "uint256",
          "name": "id",
          "type": "uint256"
        },
        {
          "indexed": true,
          "internalType": "address",
          "name": "author",
          "type": "address"
        },
        {
          "indexed": false,
          "internalType": "string",
          "name": "title",
          "type": "string"
        },
        {
          "indexed": false,
          "internalType": "string",
          "name": "contentHash",
          "type": "string"
        },
        {
          "indexed": false,
          "internalType": "uint256",
          "name": "timestamp",
          "type": "uint256"
        },
        {
          "indexed": false,
          "internalType": "string[]",
          "name": "tags",
          "type": "string[]"
        }
      ],
      "name": "PostCreated",
      "type": "event"
    },
    {
      "anonymous": false,
      "inputs": [
        {
          "indexed": true,
          "internalType": "uint256",
          "name": "id",
          "type": "uint256"
        }
      ],
      "name": "PostDeleted",
      "type": "event"
    },
    {
      "anonymous": false,
      "inputs": [
        {
          "indexed": true,
          "internalType": "uint256",
          "name": "id",
          "type": "uint256"
        },
        {
          "indexed": false,
          "internalType": "string",
          "name": "newTitle",
          "type": "string"
        },
        {
          "indexed": false,
          "internalType": "string",
          "name": "newContentHash",
          "type": "string"
        },
        {
          "indexed": false,
          "internalType": "string[]",
          "name": "newTags",
          "type": "string[]"
        }
      ],
      "name": "PostUpdated",
      "type": "event"
    },
    {
      "anonymous": false,
      "inputs": [
        {
          "indexed": true,
          "internalType": "address",
          "name": "implementation",
          "type": "address"
        }
      ],
      "name": "Upgraded",
      "type": "event"
    },
    {
      "anonymous": false,
      "inputs": [
        {
          "indexed": true,
          "internalType": "address",
          "name": "follower",
          "type": "address"
        },
        {
          "indexed": true,
          "internalType": "address",
          "name": "followed",
          "type": "address"
        }
      ],
      "name": "UserFollowed",
      "type": "event"
    },
    {
      "anonymous": false,
      "inputs": [
        {
          "indexed": true,
          "internalType": "address",
          "name": "follower",
          "type": "address"
        },
        {
          "indexed": true,
          "internalType": "address",
          "name": "unfollowed",
          "type": "address"
        }
      ],
      "name": "UserUnfollowed",
      "type": "event"
    },
    {
      "inputs": [],
      "name": "UPGRADE_INTERFACE_VERSION",
      "outputs": [
        {
          "internalType": "string",
          "name": "",
          "type": "string"
        }
      ],
      "stateMutability": "view",
      "type": "function"
    },
    {
      "inputs": [
        {
          "internalType": "uint256",
          "name": "_postId",
          "type": "uint256"
        },
        {
          "internalType": "string",
          "name": "_content",
          "type": "string"
        }
      ],
      "name": "addComment",
      "outputs": [],
      "stateMutability": "nonpayable",
      "type": "function"
    },
    {
      "inputs": [
        {
          "internalType": "string",
          "name": "_title",
          "type": "string"
        },
        {
          "internalType": "string",
          "name": "_contentHash",
          "type": "string"
        },
        {
          "internalType": "string[]",
          "name": "_tags",
          "type": "string[]"
        }
      ],
      "name": "createPost",
      "outputs": [
        {
          "internalType": "uint256",
          "name": "",
          "type": "uint256"
        }
      ],
      "stateMutability": "nonpayable",
      "type": "function"
    },
    {
      "inputs": [
        {
          "internalType": "uint256",
          "name": "_postId",
          "type": "uint256"
        }
      ],
      "name": "deletePost",
      "outputs": [],
      "stateMutability": "nonpayable",
      "type": "function"
    },
    {
      "inputs": [
        {
          "internalType": "address",
          "name": "_userToFollow",
          "type": "address"
        }
      ],
      "name": "followUser",
      "outputs": [],
      "stateMutability": "nonpayable",
      "type": "function"
    },
    {
      "inputs": [],
      "name": "getAllPostIds",
      "outputs": [
        {
          "internalType": "uint256[]",
          "name": "",
          "type": "uint256[]"
        }
      ],
      "stateMutability": "view",
      "type": "function"
    },
    {
      "inputs": [],
      "name": "getAllTags",
      "outputs": [
        {
          "internalType": "string[]",
          "name": "",
          "type": "string[]"
        }
      ],
      "stateMutability": "view",
      "type": "function"
    },
    {
      "inputs": [
        {
          "internalType": "uint256",
          "name": "_postId",
          "type": "uint256"
        }
      ],
      "name": "getComments",
      "outputs": [
        {
          "components": [
            {
              "internalType": "uint256",
              "name": "id",
              "type": "uint256"
            },
            {
              "internalType": "uint256",
              "name": "postId",
              "type": "uint256"
            },
            {
              "internalType": "address",
              "name": "author",
              "type": "address"
            },
            {
              "internalType": "string",
              "name": "content",
              "type": "string"
            },
            {
              "internalType": "uint256",
              "name": "timestamp",
              "type": "uint256"
            }
          ],
          "internalType": "struct DecentralizedBlog.Comment[]",
          "name": "",
          "type": "tuple[]"
        }
      ],
      "stateMutability": "view",
      "type": "function"
    },
    {
      "inputs": [
        {
          "internalType": "address",
          "name": "_user",
          "type": "address"
        }
      ],
      "name": "getFollowerCount",
      "outputs": [
        {
          "internalType": "uint256",
          "name": "",
          "type": "uint256"
        }
      ],
      "stateMutability": "view",
      "type": "function"
    },
    {
      "inputs": [
        {
          "internalType": "address",
          "name": "_user",
          "type": "address"
        }
      ],
      "name": "getFollowers",
      "outputs": [
        {
          "internalType": "address[]",
          "name": "",
          "type": "address[]"
        }
      ],
      "stateMutability": "view",
      "type": "function"
    },
    {
      "inputs": [
        {
          "internalType": "address",
          "name": "_user",
          "type": "address"
        }
      ],
      "name": "getFollowing",
      "outputs": [
        {
          "internalType": "address[]",
          "name": "",
          "type": "address[]"
        }
      ],
      "stateMutability": "view",
      "type": "function"
    },
    {
      "inputs": [
        {
          "internalType": "uint256",
          "name": "_postId",
          "type": "uint256"
        }
      ],
      "name": "getLikeCount",
      "outputs": [
        {
          "internalType": "uint256",
          "name": "",
          "type": "uint256"
        }
      ],
      "stateMutability": "view",
      "type": "function"
    },
    {
      "inputs": [
        {
          "internalType": "address",
          "name": "_user",
          "type": "address"
        }
      ],
      "name": "getLikedPosts",
      "outputs": [
        {
          "internalType": "uint256[]",
          "name": "",
          "type": "uint256[]"
        }
      ],
      "stateMutability": "view",
      "type": "function"
    },
    {
      "inputs": [
        {
          "internalType": "uint256[]",
          "name": "_postIds",
          "type": "uint256[]"
        }
      ],
      "name": "getMultiplePosts",
      "outputs": [
        {
          "components": [
            {
              "internalType": "uint256",
              "name": "id",
              "type": "uint256"
            },
            {
              "internalType": "address",
              "name": "author",
              "type": "address"
            },
            {
              "internalType": "string",
              "name": "title",
              "type": "string"
            },
            {
              "internalType": "string",
              "name": "contentHash",
              "type": "string"
            },
            {
              "internalType": "uint256",
              "name": "timestamp",
              "type": "uint256"
            },
            {
              "internalType": "bool",
              "name": "published",
              "type": "bool"
            },
            {
              "internalType": "string[]",
              "name": "tags",
              "type": "string[]"
            }
          ],
          "internalType": "struct DecentralizedBlog.Post[]",
          "name": "",
          "type": "tuple[]"
        }
      ],
      "stateMutability": "view",
      "type": "function"
    },
    {
      "inputs": [
        {
          "internalType": "uint256",
          "name": "_postId",
          "type": "uint256"
        }
      ],
      "name": "getPost",
      "outputs": [
        {
          "components": [
            {
              "internalType": "uint256",
              "name": "id",
              "type": "uint256"
            },
            {
              "internalType": "address",
              "name": "author",
              "type": "address"
            },
            {
              "internalType": "string",
              "name": "title",
              "type": "string"
            },
            {
              "internalType": "string",
              "name": "contentHash",
              "type": "string"
            },
            {
              "internalType": "uint256",
              "name": "timestamp",
              "type": "uint256"
            },
            {
              "internalType": "bool",
              "name": "published",
              "type": "bool"
            },
            {
              "internalType": "string[]",
              "name": "tags",
              "type": "string[]"
            }
          ],
          "internalType": "struct DecentralizedBlog.Post",
          "name": "",
          "type": "tuple"
        }
      ],
      "stateMutability": "view",
      "type": "function"
    },
    {
      "inputs": [],
      "name": "getPostCount",
      "outputs": [
        {
          "internalType": "uint256",
          "name": "",
          "type": "uint256"
        }
      ],
      "stateMutability": "view",
      "type": "function"
    },
    {
      "inputs": [
        {
          "internalType": "string",
          "name": "_tag",
          "type": "string"
        }
      ],
      "name": "getPostsByTag",
      "outputs": [
        {
          "internalType": "uint256[]",
          "name": "",
          "type": "uint256[]"
        }
      ],
      "stateMutability": "view",
      "type": "function"
    },
    {
      "inputs": [],
      "name": "getTagCount",
      "outputs": [
        {
          "internalType": "uint256",
          "name": "",
          "type": "uint256"
        }
      ],
      "stateMutability": "view",
      "type": "function"
    },
    {
      "inputs": [
        {
          "internalType": "address",
          "name": "_user",
          "type": "address"
        }
      ],
      "name": "getUserCommentCount",
      "outputs": [
        {
          "internalType": "uint256",
          "name": "",
          "type": "uint256"
        }
      ],
      "stateMutability": "view",
      "type": "function"
    },
    {
      "inputs": [
        {
          "internalType": "address",
          "name": "_user",
          "type": "address"
        }
      ],
      "name": "getUserComments",
      "outputs": [
        {
          "components": [
            {
              "internalType": "uint256",
              "name": "postId",
              "type": "uint256"
            },
            {
              "internalType": "uint256",
              "name": "commentId",
              "type": "uint256"
            },
            {
              "internalType": "string",
              "name": "content",
              "type": "string"
            },
            {
              "internalType": "uint256",
              "name": "timestamp",
              "type": "uint256"
            }
          ],
          "internalType": "struct DecentralizedBlog.UserComment[]",
          "name": "",
          "type": "tuple[]"
        }
      ],
      "stateMutability": "view",
      "type": "function"
    },
    {
      "inputs": [
        {
          "internalType": "uint256",
          "name": "_postId",
          "type": "uint256"
        }
      ],
      "name": "getViewCount",
      "outputs": [
        {
          "internalType": "uint256",
          "name": "",
          "type": "uint256"
        }
      ],
      "stateMutability": "view",
      "type": "function"
    },
    {
      "inputs": [
        {
          "internalType": "uint256",
          "name": "_postId",
          "type": "uint256"
        },
        {
          "internalType": "address",
          "name": "_user",
          "type": "address"
        }
      ],
      "name": "hasLiked",
      "outputs": [
        {
          "internalType": "bool",
          "name": "",
          "type": "bool"
        }
      ],
      "stateMutability": "view",
      "type": "function"
    },
    {
      "inputs": [
        {
          "internalType": "uint256",
          "name": "_postId",
          "type": "uint256"
        }
      ],
      "name": "incrementViewCount",
      "outputs": [],
      "stateMutability": "nonpayable",
      "type": "function"
    },
    {
      "inputs": [],
      "name": "initialize",
      "outputs": [],
      "stateMutability": "nonpayable",
      "type": "function"
    },
    {
      "inputs": [
        {
          "internalType": "address",
          "name": "_user",
          "type": "address"
        },
        {
          "internalType": "address",
          "name": "_follower",
          "type": "address"
        }
      ],
      "name": "isFollower",
      "outputs": [
        {
          "internalType": "bool",
          "name": "",
          "type": "bool"
        }
      ],
      "stateMutability": "view",
      "type": "function"
    },
    {
      "inputs": [
        {
          "internalType": "address",
          "name": "_follower",
          "type": "address"
        },
        {
          "internalType": "address",
          "name": "_followed",
          "type": "address"
        }
      ],
      "name": "isFollowing",
      "outputs": [
        {
          "internalType": "bool",
          "name": "",
          "type": "bool"
        }
      ],
      "stateMutability": "view",
      "type": "function"
    },
    {
      "inputs": [
        {
          "internalType": "uint256",
          "name": "_postId",
          "type": "uint256"
        }
      ],
      "name": "likePost",
      "outputs": [],
      "stateMutability": "nonpayable",
      "type": "function"
    },
    {
      "inputs": [],
      "name": "owner",
      "outputs": [
        {
          "internalType": "address",
          "name": "",
          "type": "address"
        }
      ],
      "stateMutability": "view",
      "type": "function"
    },
    {
      "inputs": [],
      "name": "proxiableUUID",
      "outputs": [
        {
          "internalType": "bytes32",
          "name": "",
          "type": "bytes32"
        }
      ],
      "stateMutability": "view",
      "type": "function"
    },
    {
      "inputs": [],
      "name": "renounceOwnership",
      "outputs": [],
      "stateMutability": "nonpayable",
      "type": "function"
    },
    {
      "inputs": [
        {
          "internalType": "address",
          "name": "newOwner",
          "type": "address"
        }
      ],
      "name": "transferOwnership",
      "outputs": [],
      "stateMutability": "nonpayable",
      "type": "function"
    },
    {
      "inputs": [
        {
          "internalType": "address",
          "name": "_userToUnfollow",
          "type": "address"
        }
      ],
      "name": "unfollowUser",
      "outputs": [],
      "stateMutability": "nonpayable",
      "type": "function"
    },
    {
      "inputs": [
        {
          "internalType": "uint256",
          "name": "_postId",
          "type": "uint256"
        },
        {
          "internalType": "string",
          "name": "_newTitle",
          "type": "string"
        },
        {
          "internalType": "string",
          "name": "_newContentHash",
          "type": "string"
        },
        {
          "internalType": "string[]",
          "name": "_newTags",
          "type": "string[]"
        }
      ],
      "name": "updatePost",
      "outputs": [],
      "stateMutability": "nonpayable",
      "type": "function"
    },
    {
      "inputs": [
        {
          "internalType": "address",
          "name": "newImplementation",
          "type": "address"
        },
        {
          "internalType": "bytes",
          "name": "data",
          "type": "bytes"
        }
      ],
      "name": "upgradeToAndCall",
      "outputs": [],
      "stateMutability": "payable",
      "type": "function"
    }
  ],
  "bytecode": "0x60a06040523073ffffffffffffffffffffffffffffffffffffffff1660809073ffffffffffffffffffffffffffffffffffffffff1681525034801561004357600080fd5b5061005261005760201b60201c565b6101de565b600061006761015b60201b60201c565b90508060000160089054906101000a900460ff16156100b2576040517ff92ee8a900000000000000000000000000000000000000000000000000000000815260040160405180910390fd5b67ffffffffffffffff80168160000160009054906101000a900467ffffffffffffffff1667ffffffffffffffff16146101585767ffffffffffffffff8160000160006101000a81548167ffffffffffffffff021916908367ffffffffffffffff1602179055507fc7f505b2f371ae2175ee4913f4499e1f2633a7b5936321eed1cdaeb6115181d267ffffffffffffffff60405161014f91906101c3565b60405180910390a15b50565b60008061016c61017560201b60201c565b90508091505090565b60007ff0c57e16840df040f15088dc2f81fe391c3923bec73e23a9662efc9c229c6a0060001b905090565b600067ffffffffffffffff82169050919050565b6101bd816101a0565b82525050565b60006020820190506101d860008301846101b4565b92915050565b60805161585361020760003960008181613393015281816133e801526135a301526158536000f3fe6080604052600436106101f95760003560e01c8063a37704811161010d578063c88790a2116100a0578063dec3c6331161006f578063dec3c63314610784578063e5fe9477146107c1578063f107cfcb146107fe578063f2fde38b14610827578063f6f7712b14610850576101f9565b8063c88790a214610690578063cb04c970146106cd578063cdfd9b861461070a578063d8236dff14610747576101f9565b8063b01c7a4d116100dc578063b01c7a4d146105ae578063bcc95407146105eb578063c2fe202214610616578063c55a336214610653576101f9565b8063a377048114610508578063a70806f714610531578063aa7e56831461055a578063ad3cb1cc14610583576101f9565b80637038f157116101905780638da5cb5b1161015f5780638da5cb5b1461040d5780638e25df9e146104385780638fb7092c14610463578063986f191c146104a057806399ec3a42146104cb576101f9565b80637038f1571461038b578063715018a6146103b6578063725009d3146103cd5780638129fc1c146103f6576101f9565b806346a3ebf3116101cc57806346a3ebf3146102de5780634ef576ad146103075780634f1ef2861461034457806352d1902d14610360576101f9565b8063094cd5ee146101fe57806323edf697146102275780632b3c6e221461026457806340731c24146102a1575b600080fd5b34801561020a57600080fd5b5061022560048036038101906102209190613d83565b61088d565b005b34801561023357600080fd5b5061024e60048036038101906102499190613d83565b610c3a565b60405161025b9190613fc8565b60405180910390f35b34801561027057600080fd5b5061028b60048036038101906102869190614016565b610db2565b6040516102989190614168565b60405180910390f35b3480156102ad57600080fd5b506102c860048036038101906102c39190613d83565b610f00565b6040516102d59190614311565b60405180910390f35b3480156102ea57600080fd5b506103056004803603810190610300919061454e565b6111fc565b005b34801561031357600080fd5b5061032e60048036038101906103299190613d83565b6115bd565b60405161033b9190614618565b60405180910390f35b61035e600480360381019061035991906146d4565b6115da565b005b34801561036c57600080fd5b506103756115f9565b6040516103829190614749565b60405180910390f35b34801561039757600080fd5b506103a061162c565b6040516103ad91906147ea565b60405180910390f35b3480156103c257600080fd5b506103cb611705565b005b3480156103d957600080fd5b506103f460048036038101906103ef9190613d83565b611719565b005b34801561040257600080fd5b5061040b61184c565b005b34801561041957600080fd5b506104226119ea565b60405161042f919061481b565b60405180910390f35b34801561044457600080fd5b5061044d611a22565b60405161045a91906148e5565b60405180910390f35b34801561046f57600080fd5b5061048a60048036038101906104859190614907565b611a7a565b6040516104979190614956565b60405180910390f35b3480156104ac57600080fd5b506104b5611ae2565b6040516104c29190614618565b60405180910390f35b3480156104d757600080fd5b506104f260048036038101906104ed9190614971565b611aef565b6040516104ff9190614956565b60405180910390f35b34801561051457600080fd5b5061052f600480360381019061052a9190613d83565b611b83565b005b34801561053d57600080fd5b5061055860048036038101906105539190614016565b611c08565b005b34801561056657600080fd5b50610581600480360381019061057c91906149b1565b611f72565b005b34801561058f57600080fd5b50610598612281565b6040516105a59190614a57565b60405180910390f35b3480156105ba57600080fd5b506105d560048036038101906105d09190614a79565b6122ba565b6040516105e29190614618565b60405180910390f35b3480156105f757600080fd5b5061060061251c565b60405161060d9190614618565b60405180910390f35b34801561062257600080fd5b5061063d60048036038101906106389190614016565b612529565b60405161064a9190614bcf565b60405180910390f35b34801561065f57600080fd5b5061067a60048036038101906106759190614bf1565b6125f6565b60405161068791906148e5565b60405180910390f35b34801561069c57600080fd5b506106b760048036038101906106b29190614016565b61266c565b6040516106c49190614618565b60405180910390f35b3480156106d957600080fd5b506106f460048036038101906106ef9190614016565b6126b5565b6040516107019190614618565b60405180910390f35b34801561071657600080fd5b50610731600480360381019061072c9190614016565b612701565b60405161073e91906148e5565b60405180910390f35b34801561075357600080fd5b5061076e60048036038101906107699190614016565b6128d5565b60405161077b9190614bcf565b60405180910390f35b34801561079057600080fd5b506107ab60048036038101906107a69190613d83565b6129a2565b6040516107b89190614618565b60405180910390f35b3480156107cd57600080fd5b506107e860048036038101906107e39190614971565b6129bf565b6040516107f59190614956565b60405180910390f35b34801561080a57600080fd5b5061082560048036038101906108209190614016565b612b06565b005b34801561083357600080fd5b5061084e60048036038101906108499190614016565b612e86565b005b34801561085c57600080fd5b5061087760048036038101906108729190614c95565b612f0c565b6040516108849190614e4e565b60405180910390f35b600060016000838152602001908152602001600020905060008160000154036108eb576040517f08c379a00000000000000000000000000000000000000000000000000000000081526004016108e290614ebc565b60405180910390fd5b3373ffffffffffffffffffffffffffffffffffffffff168160010160009054906101000a900473ffffffffffffffffffffffffffffffffffffffff1673ffffffffffffffffffffffffffffffffffffffff161461097d576040517f08c379a000000000000000000000000000000000000000000000000000000000815260040161097490614f28565b60405180910390fd5b60008160050160006101000a81548160ff02191690831515021790555060005b8160060180549050811015610b465760008260060182815481106109c4576109c3614f48565b5b9060005260206000200180546109d990614fa6565b80601f0160208091040260200160405190810160405280929190818152602001828054610a0590614fa6565b8015610a525780601f10610a2757610100808354040283529160200191610a52565b820191906000526020600020905b815481529060010190602001808311610a3557829003601f168201915b505050505090506000600382604051610a6b9190615013565b9081526020016040518091039020905060005b8180549050811015610b365785828281548110610a9e57610a9d614f48565b5b906000526020600020015403610b29578160018380549050610ac09190615059565b81548110610ad157610ad0614f48565b5b9060005260206000200154828281548110610aef57610aee614f48565b5b906000526020600020018190555081805480610b0e57610b0d61508d565b5b60019003818190600052602060002001600090559055610b36565b8080600101915050610a7e565b505050808060010191505061099d565b5060005b600280549050811015610c08578260028281548110610b6c57610b6b614f48565b5b906000526020600020015403610bfb5760026001600280549050610b909190615059565b81548110610ba157610ba0614f48565b5b906000526020600020015460028281548110610bc057610bbf614f48565b5b90600052602060002001819055506002805480610be057610bdf61508d565b5b60019003818190600052602060002001600090559055610c08565b8080600101915050610b4a565b50817f32d67e2131cd025eb20e7256680e338dedbe17b28943a11681860a9271ad119d60405160405180910390a25050565b606060086000838152602001908152602001600020805480602002602001604051908101604052809291908181526020016000905b82821015610da757838290600052602060002090600502016040518060a001604052908160008201548152602001600182015481526020016002820160009054906101000a900473ffffffffffffffffffffffffffffffffffffffff1673ffffffffffffffffffffffffffffffffffffffff1673ffffffffffffffffffffffffffffffffffffffff168152602001600382018054610d0c90614fa6565b80601f0160208091040260200160405190810160405280929190818152602001828054610d3890614fa6565b8015610d855780601f10610d5a57610100808354040283529160200191610d85565b820191906000526020600020905b815481529060010190602001808311610d6857829003601f168201915b5050505050815260200160048201548152505081526020019060010190610c6f565b505050509050919050565b6060600660008373ffffffffffffffffffffffffffffffffffffffff1673ffffffffffffffffffffffffffffffffffffffff168152602001908152602001600020805480602002602001604051908101604052809291908181526020016000905b82821015610ef557838290600052602060002090600402016040518060800160405290816000820154815260200160018201548152602001600282018054610e5a90614fa6565b80601f0160208091040260200160405190810160405280929190818152602001828054610e8690614fa6565b8015610ed35780601f10610ea857610100808354040283529160200191610ed3565b820191906000526020600020905b815481529060010190602001808311610eb657829003601f168201915b5050505050815260200160038201548152505081526020019060010190610e13565b505050509050919050565b610f08613c0a565b6000600160008481526020019081526020016000206040518060e0016040529081600082015481526020016001820160009054906101000a900473ffffffffffffffffffffffffffffffffffffffff1673ffffffffffffffffffffffffffffffffffffffff1673ffffffffffffffffffffffffffffffffffffffff168152602001600282018054610f9890614fa6565b80601f0160208091040260200160405190810160405280929190818152602001828054610fc490614fa6565b80156110115780601f10610fe657610100808354040283529160200191611011565b820191906000526020600020905b815481529060010190602001808311610ff457829003601f168201915b5050505050815260200160038201805461102a90614fa6565b80601f016020809104026020016040519081016040528092919081815260200182805461105690614fa6565b80156110a35780601f10611078576101008083540402835291602001916110a3565b820191906000526020600020905b81548152906001019060200180831161108657829003601f168201915b50505050508152602001600482015481526020016005820160009054906101000a900460ff1615151515815260200160068201805480602002602001604051908101604052809291908181526020016000905b828210156111a257838290600052602060002001805461111590614fa6565b80601f016020809104026020016040519081016040528092919081815260200182805461114190614fa6565b801561118e5780601f106111635761010080835404028352916020019161118e565b820191906000526020600020905b81548152906001019060200180831161117157829003601f168201915b5050505050815260200190600101906110f6565b5050505081525050905060008160000151036111f3576040517f08c379a00000000000000000000000000000000000000000000000000000000081526004016111ea90614ebc565b60405180910390fd5b80915050919050565b6000600160008681526020019081526020016000209050600081600001540361125a576040517f08c379a000000000000000000000000000000000000000000000000000000000815260040161125190614ebc565b60405180910390fd5b3373ffffffffffffffffffffffffffffffffffffffff168160010160009054906101000a900473ffffffffffffffffffffffffffffffffffffffff1673ffffffffffffffffffffffffffffffffffffffff16146112ec576040517f08c379a00000000000000000000000000000000000000000000000000000000081526004016112e390614f28565b60405180910390fd5b60005b816006018054905081101561149857600082600601828154811061131657611315614f48565b5b90600052602060002001805461132b90614fa6565b80601f016020809104026020016040519081016040528092919081815260200182805461135790614fa6565b80156113a45780601f10611379576101008083540402835291602001916113a4565b820191906000526020600020905b81548152906001019060200180831161138757829003601f168201915b5050505050905060006003826040516113bd9190615013565b9081526020016040518091039020905060005b818054905081101561148857888282815481106113f0576113ef614f48565b5b90600052602060002001540361147b5781600183805490506114129190615059565b8154811061142357611422614f48565b5b906000526020600020015482828154811061144157611440614f48565b5b9060005260206000200181905550818054806114605761145f61508d565b5b60019003818190600052602060002001600090559055611488565b80806001019150506113d0565b50505080806001019150506112ef565b50838160020190816114aa9190615268565b50828160030190816114bc9190615268565b505b60008160060180549050111561150557806006018054806114e2576114e161508d565b5b6001900381819060005260206000200160006114fe9190613c5f565b90556114be565b60005b825181101561156f578160060183828151811061152857611527614f48565b5b60200260200101519080600181540180825580915050600190039060005260206000200160009091909190915090816115619190615268565b508080600101915050611508565b5061157a8583613266565b847f60944e494f6efd304ca8f340b1f251e65c2b3d605e6a26d0b8d62016c93c6fe38585856040516115ae9392919061533a565b60405180910390a25050505050565b6000600b6000838152602001908152602001600020549050919050565b6115e2613391565b6115eb82613477565b6115f58282613482565b5050565b60006116036135a1565b7f360894a13ba1a3210667c828492db98dca3e2076cc3735a920a3ca505d382bbc60001b905090565b60606004805480602002602001604051908101604052809291908181526020016000905b828210156116fc57838290600052602060002001805461166f90614fa6565b80601f016020809104026020016040519081016040528092919081815260200182805461169b90614fa6565b80156116e85780601f106116bd576101008083540402835291602001916116e8565b820191906000526020600020905b8154815290600101906020018083116116cb57829003601f168201915b505050505081526020019060010190611650565b50505050905090565b61170d613628565b61171760006136af565b565b600a600082815260200190815260200160002060003373ffffffffffffffffffffffffffffffffffffffff1673ffffffffffffffffffffffffffffffffffffffff16815260200190815260200160002060009054906101000a900460ff16156117b7576040517f08c379a00000000000000000000000000000000000000000000000000000000081526004016117ae906153d2565b60405180910390fd5b6001600a600083815260200190815260200160002060003373ffffffffffffffffffffffffffffffffffffffff1673ffffffffffffffffffffffffffffffffffffffff16815260200190815260200160002060006101000a81548160ff021916908315150217905550600b60008281526020019081526020016000206000815480929190611844906153f2565b919050555050565b6000611856613786565b905060008160000160089054906101000a900460ff1615905060008260000160009054906101000a900467ffffffffffffffff1690506000808267ffffffffffffffff161480156118a45750825b9050600060018367ffffffffffffffff161480156118d9575060003073ffffffffffffffffffffffffffffffffffffffff163b145b9050811580156118e7575080155b1561191e576040517ff92ee8a900000000000000000000000000000000000000000000000000000000815260040160405180910390fd5b60018560000160006101000a81548167ffffffffffffffff021916908367ffffffffffffffff160217905550831561196e5760018560000160086101000a81548160ff0219169083151502179055505b6119773361379a565b6001600081905550600160098190555083156119e35760008560000160086101000a81548160ff0219169083151502179055507fc7f505b2f371ae2175ee4913f4499e1f2633a7b5936321eed1cdaeb6115181d260016040516119da9190615489565b60405180910390a15b5050505050565b6000806119f56137ae565b90508060000160009054906101000a900473ffffffffffffffffffffffffffffffffffffffff1691505090565b60606002805480602002602001604051908101604052809291908181526020018280548015611a7057602002820191906000526020600020905b815481526020019060010190808311611a5c575b5050505050905090565b6000600a600084815260200190815260200160002060008373ffffffffffffffffffffffffffffffffffffffff1673ffffffffffffffffffffffffffffffffffffffff16815260200190815260200160002060009054906101000a900460ff16905092915050565b6000600480549050905090565b6000600d60008473ffffffffffffffffffffffffffffffffffffffff1673ffffffffffffffffffffffffffffffffffffffff16815260200190815260200160002060008373ffffffffffffffffffffffffffffffffffffffff1673ffffffffffffffffffffffffffffffffffffffff16815260200190815260200160002060009054906101000a900460ff16905092915050565b6000600160008381526020019081526020016000206000015403611bdc576040517f08c379a0000000000000000000000000000000000000000000000000000000008152600401611bd390614ebc565b60405180910390fd5b600f60008281526020019081526020016000206000815480929190611c00906153f2565b919050555050565b600d60003373ffffffffffffffffffffffffffffffffffffffff1673ffffffffffffffffffffffffffffffffffffffff16815260200190815260200160002060008273ffffffffffffffffffffffffffffffffffffffff1673ffffffffffffffffffffffffffffffffffffffff16815260200190815260200160002060009054906101000a900460ff1615611cd2576040517f08c379a0000000000000000000000000000000000000000000000000000000008152600401611cc9906154f0565b60405180910390fd5b3373ffffffffffffffffffffffffffffffffffffffff168173ffffffffffffffffffffffffffffffffffffffff1603611d40576040517f08c379a0000000000000000000000000000000000000000000000000000000008152600401611d379061555c565b60405180910390fd5b600c60003373ffffffffffffffffffffffffffffffffffffffff1673ffffffffffffffffffffffffffffffffffffffff168152602001908152602001600020819080600181540180825580915050600190039060005260206000200160009091909190916101000a81548173ffffffffffffffffffffffffffffffffffffffff021916908373ffffffffffffffffffffffffffffffffffffffff1602179055506001600d60003373ffffffffffffffffffffffffffffffffffffffff1673ffffffffffffffffffffffffffffffffffffffff16815260200190815260200160002060008373ffffffffffffffffffffffffffffffffffffffff1673ffffffffffffffffffffffffffffffffffffffff16815260200190815260200160002060006101000a81548160ff021916908315150217905550600e60008273ffffffffffffffffffffffffffffffffffffffff1673ffffffffffffffffffffffffffffffffffffffff168152602001908152602001600020339080600181540180825580915050600190039060005260206000200160009091909190916101000a81548173ffffffffffffffffffffffffffffffffffffffff021916908373ffffffffffffffffffffffffffffffffffffffff1602179055508073ffffffffffffffffffffffffffffffffffffffff163373ffffffffffffffffffffffffffffffffffffffff167f30b3435b456f45779984ddfa456115ee4c20d9e446979b1b9e90dbb7e12b90b760405160405180910390a350565b6000600160008481526020019081526020016000206000015403611fcb576040517f08c379a0000000000000000000000000000000000000000000000000000000008152600401611fc290614ebc565b60405180910390fd5b600081511161200f576040517f08c379a0000000000000000000000000000000000000000000000000000000008152600401612006906155c8565b60405180910390fd5b600060096000815480929190612024906153f2565b91905055905060006040518060a001604052808381526020018581526020013373ffffffffffffffffffffffffffffffffffffffff16815260200184815260200142815250905060086000858152602001908152602001600020819080600181540180825580915050600190039060005260206000209060050201600090919091909150600082015181600001556020820151816001015560408201518160020160006101000a81548173ffffffffffffffffffffffffffffffffffffffff021916908373ffffffffffffffffffffffffffffffffffffffff16021790555060608201518160030190816121189190615268565b5060808201518160040155505060006040518060800160405280868152602001848152602001858152602001428152509050600660003373ffffffffffffffffffffffffffffffffffffffff1673ffffffffffffffffffffffffffffffffffffffff168152602001908152602001600020819080600181540180825580915050600190039060005260206000209060040201600090919091909150600082015181600001556020820151816001015560408201518160020190816121dc9190615268565b50606082015181600301555050600760003373ffffffffffffffffffffffffffffffffffffffff1673ffffffffffffffffffffffffffffffffffffffff1681526020019081526020016000206000815480929190612239906153f2565b9190505550847f96d81cac001a263174d42d42cfad470fec9d863bcf6d52ba8b93d47c7ee00de3843387604051612272939291906155e8565b60405180910390a25050505050565b6040518060400160405280600581526020017f352e302e3000000000000000000000000000000000000000000000000000000081525081565b6000808451116122ff576040517f08c379a00000000000000000000000000000000000000000000000000000000081526004016122f690615672565b60405180910390fd5b6000835111612343576040517f08c379a000000000000000000000000000000000000000000000000000000000815260040161233a906156de565b60405180910390fd5b6000806000815480929190612357906153f2565b91905055905060006040518060e001604052808381526020013373ffffffffffffffffffffffffffffffffffffffff16815260200187815260200186815260200142815260200160011515815260200185815250905080600160008481526020019081526020016000206000820151816000015560208201518160010160006101000a81548173ffffffffffffffffffffffffffffffffffffffff021916908373ffffffffffffffffffffffffffffffffffffffff16021790555060408201518160020190816124279190615268565b50606082015181600301908161243d9190615268565b506080820151816004015560a08201518160050160006101000a81548160ff02191690831515021790555060c0820151816006019080519060200190612484929190613c9f565b5090505060028290806001815401808255809150506001900390600052602060002001600090919091909150556124bb8285613266565b3373ffffffffffffffffffffffffffffffffffffffff16827fdacee0e38aaa0223bb57054e596dbd69bb70b012e47016e5a57c9734f2a6150a8888428960405161250894939291906156fe565b60405180910390a381925050509392505050565b6000600280549050905090565b6060600e60008373ffffffffffffffffffffffffffffffffffffffff1673ffffffffffffffffffffffffffffffffffffffff1681526020019081526020016000208054806020026020016040519081016040528092919081815260200182805480156125ea57602002820191906000526020600020905b8160009054906101000a900473ffffffffffffffffffffffffffffffffffffffff1673ffffffffffffffffffffffffffffffffffffffff16815260200190600101908083116125a0575b50505050509050919050565b60606003826040516126089190615013565b908152602001604051809103902080548060200260200160405190810160405280929190818152602001828054801561266057602002820191906000526020600020905b81548152602001906001019080831161264c575b50505050509050919050565b6000600760008373ffffffffffffffffffffffffffffffffffffffff1673ffffffffffffffffffffffffffffffffffffffff168152602001908152602001600020549050919050565b6000600e60008373ffffffffffffffffffffffffffffffffffffffff1673ffffffffffffffffffffffffffffffffffffffff168152602001908152602001600020805490509050919050565b6060600060028054905067ffffffffffffffff8111156127245761272361433d565b5b6040519080825280602002602001820160405280156127525781602001602082028036833780820191505090505b5090506000805b6002805490508110156128295760006002828154811061277c5761277b614f48565b5b90600052602060002001549050600a600082815260200190815260200160002060008773ffffffffffffffffffffffffffffffffffffffff1673ffffffffffffffffffffffffffffffffffffffff16815260200190815260200160002060009054906101000a900460ff161561281b5780848481518110612800576127ff614f48565b5b6020026020010181815250508280612817906153f2565b9350505b508080600101915050612759565b5060008167ffffffffffffffff8111156128465761284561433d565b5b6040519080825280602002602001820160405280156128745781602001602082028036833780820191505090505b50905060005b828110156128c95783818151811061289557612894614f48565b5b60200260200101518282815181106128b0576128af614f48565b5b602002602001018181525050808060010191505061287a565b50809350505050919050565b6060600c60008373ffffffffffffffffffffffffffffffffffffffff1673ffffffffffffffffffffffffffffffffffffffff16815260200190815260200160002080548060200260200160405190810160405280929190818152602001828054801561299657602002820191906000526020600020905b8160009054906101000a900473ffffffffffffffffffffffffffffffffffffffff1673ffffffffffffffffffffffffffffffffffffffff168152602001906001019080831161294c575b50505050509050919050565b6000600f6000838152602001908152602001600020549050919050565b600080600e60008573ffffffffffffffffffffffffffffffffffffffff1673ffffffffffffffffffffffffffffffffffffffff168152602001908152602001600020805480602002602001604051908101604052809291908181526020018280548015612a8157602002820191906000526020600020905b8160009054906101000a900473ffffffffffffffffffffffffffffffffffffffff1673ffffffffffffffffffffffffffffffffffffffff1681526020019060010190808311612a37575b5050505050905060005b8151811015612af9578373ffffffffffffffffffffffffffffffffffffffff16828281518110612abe57612abd614f48565b5b602002602001015173ffffffffffffffffffffffffffffffffffffffff1603612aec57600192505050612b00565b8080600101915050612a8b565b5060009150505b92915050565b600d60003373ffffffffffffffffffffffffffffffffffffffff1673ffffffffffffffffffffffffffffffffffffffff16815260200190815260200160002060008273ffffffffffffffffffffffffffffffffffffffff1673ffffffffffffffffffffffffffffffffffffffff16815260200190815260200160002060009054906101000a900460ff16612bcf576040517f08c379a0000000000000000000000000000000000000000000000000000000008152600401612bc6906157a4565b60405180910390fd5b6000600c60003373ffffffffffffffffffffffffffffffffffffffff1673ffffffffffffffffffffffffffffffffffffffff168152602001908152602001600020905060005b8180549050811015612d92578273ffffffffffffffffffffffffffffffffffffffff16828281548110612c4b57612c4a614f48565b5b9060005260206000200160009054906101000a900473ffffffffffffffffffffffffffffffffffffffff1673ffffffffffffffffffffffffffffffffffffffff1603612d85578160018380549050612ca39190615059565b81548110612cb457612cb3614f48565b5b9060005260206000200160009054906101000a900473ffffffffffffffffffffffffffffffffffffffff16828281548110612cf257612cf1614f48565b5b9060005260206000200160006101000a81548173ffffffffffffffffffffffffffffffffffffffff021916908373ffffffffffffffffffffffffffffffffffffffff16021790555081805480612d4b57612d4a61508d565b5b6001900381819060005260206000200160006101000a81549073ffffffffffffffffffffffffffffffffffffffff02191690559055612d92565b8080600101915050612c15565b506000600d60003373ffffffffffffffffffffffffffffffffffffffff1673ffffffffffffffffffffffffffffffffffffffff16815260200190815260200160002060008473ffffffffffffffffffffffffffffffffffffffff1673ffffffffffffffffffffffffffffffffffffffff16815260200190815260200160002060006101000a81548160ff0219169083151502179055508173ffffffffffffffffffffffffffffffffffffffff163373ffffffffffffffffffffffffffffffffffffffff167fe7339343c6edff57f2d15278c419523844cea30ae5ee2146aa22cb9e3107dab760405160405180910390a35050565b612e8e613628565b600073ffffffffffffffffffffffffffffffffffffffff168173ffffffffffffffffffffffffffffffffffffffff1603612f005760006040517f1e4fbdf7000000000000000000000000000000000000000000000000000000008152600401612ef7919061481b565b60405180910390fd5b612f09816136af565b50565b606060008383905067ffffffffffffffff811115612f2d57612f2c61433d565b5b604051908082528060200260200182016040528015612f6657816020015b612f53613c0a565b815260200190600190039081612f4b5790505b50905060005b8484905081101561325b5760016000868684818110612f8e57612f8d614f48565b5b9050602002013581526020019081526020016000206040518060e0016040529081600082015481526020016001820160009054906101000a900473ffffffffffffffffffffffffffffffffffffffff1673ffffffffffffffffffffffffffffffffffffffff1673ffffffffffffffffffffffffffffffffffffffff16815260200160028201805461301e90614fa6565b80601f016020809104026020016040519081016040528092919081815260200182805461304a90614fa6565b80156130975780601f1061306c57610100808354040283529160200191613097565b820191906000526020600020905b81548152906001019060200180831161307a57829003601f168201915b505050505081526020016003820180546130b090614fa6565b80601f01602080910402602001604051908101604052809291908181526020018280546130dc90614fa6565b80156131295780601f106130fe57610100808354040283529160200191613129565b820191906000526020600020905b81548152906001019060200180831161310c57829003601f168201915b50505050508152602001600482015481526020016005820160009054906101000a900460ff1615151515815260200160068201805480602002602001604051908101604052809291908181526020016000905b8282101561322857838290600052602060002001805461319b90614fa6565b80601f01602080910402602001604051908101604052809291908181526020018280546131c790614fa6565b80156132145780601f106131e957610100808354040283529160200191613214565b820191906000526020600020905b8154815290600101906020018083116131f757829003601f168201915b50505050508152602001906001019061317c565b505050508152505082828151811061324357613242614f48565b5b60200260200101819052508080600101915050612f6c565b508091505092915050565b60005b815181101561338c57600082828151811061328757613286614f48565b5b6020026020010151905060008151111561337e576005816040516132ab9190615013565b908152602001604051809103902060009054906101000a900460ff166133385760016005826040516132dd9190615013565b908152602001604051809103902060006101000a81548160ff0219169083151502179055506004819080600181540180825580915050600190039060005260206000200160009091909190915090816133369190615268565b505b6003816040516133489190615013565b90815260200160405180910390208490806001815401808255809150506001900390600052602060002001600090919091909150555b508080600101915050613269565b505050565b7f000000000000000000000000000000000000000000000000000000000000000073ffffffffffffffffffffffffffffffffffffffff163073ffffffffffffffffffffffffffffffffffffffff16148061343e57507f000000000000000000000000000000000000000000000000000000000000000073ffffffffffffffffffffffffffffffffffffffff166134256137d6565b73ffffffffffffffffffffffffffffffffffffffff1614155b15613475576040517fe07c8dba00000000000000000000000000000000000000000000000000000000815260040160405180910390fd5b565b61347f613628565b50565b8173ffffffffffffffffffffffffffffffffffffffff166352d1902d6040518163ffffffff1660e01b8152600401602060405180830381865afa9250505080156134ea57506040513d601f19601f820116820180604052508101906134e791906157f0565b60015b61352b57816040517f4c9c8ce3000000000000000000000000000000000000000000000000000000008152600401613522919061481b565b60405180910390fd5b7f360894a13ba1a3210667c828492db98dca3e2076cc3735a920a3ca505d382bbc60001b811461359257806040517faa1d49a40000000000000000000000000000000000000000000000000000000081526004016135899190614749565b60405180910390fd5b61359c838361382d565b505050565b7f000000000000000000000000000000000000000000000000000000000000000073ffffffffffffffffffffffffffffffffffffffff163073ffffffffffffffffffffffffffffffffffffffff1614613626576040517fe07c8dba00000000000000000000000000000000000000000000000000000000815260040160405180910390fd5b565b6136306138a0565b73ffffffffffffffffffffffffffffffffffffffff1661364e6119ea565b73ffffffffffffffffffffffffffffffffffffffff16146136ad576136716138a0565b6040517f118cdaa70000000000000000000000000000000000000000000000000000000081526004016136a4919061481b565b60405180910390fd5b565b60006136b96137ae565b905060008160000160009054906101000a900473ffffffffffffffffffffffffffffffffffffffff169050828260000160006101000a81548173ffffffffffffffffffffffffffffffffffffffff021916908373ffffffffffffffffffffffffffffffffffffffff1602179055508273ffffffffffffffffffffffffffffffffffffffff168173ffffffffffffffffffffffffffffffffffffffff167f8be0079c531659141344cd1fd0a4f28419497f9722a3daafe3b4186f6b6457e060405160405180910390a3505050565b6000806137916138a8565b90508091505090565b6137a26138d3565b6137ab81613913565b50565b60007f9016d09d72d40fdae2fd8ceac6b6234c7706214fd39c1cd1e609a0528c199300905090565b60006138047f360894a13ba1a3210667c828492db98dca3e2076cc3735a920a3ca505d382bbc60001b613999565b60000160009054906101000a900473ffffffffffffffffffffffffffffffffffffffff16905090565b613836826139a3565b8173ffffffffffffffffffffffffffffffffffffffff167fbc7cd75a20ee27fd9adebab32041f755214dbc6bffa90cc0225b39da2e5c2d3b60405160405180910390a26000815111156138935761388d8282613a70565b5061389c565b61389b613b65565b5b5050565b600033905090565b60007ff0c57e16840df040f15088dc2f81fe391c3923bec73e23a9662efc9c229c6a0060001b905090565b6138db613ba2565b613911576040517fd7e6bcf800000000000000000000000000000000000000000000000000000000815260040160405180910390fd5b565b61391b6138d3565b600073ffffffffffffffffffffffffffffffffffffffff168173ffffffffffffffffffffffffffffffffffffffff160361398d5760006040517f1e4fbdf7000000000000000000000000000000000000000000000000000000008152600401613984919061481b565b60405180910390fd5b613996816136af565b50565b6000819050919050565b60008173ffffffffffffffffffffffffffffffffffffffff163b036139ff57806040517f4c9c8ce30000000000000000000000000000000000000000000000000000000081526004016139f6919061481b565b60405180910390fd5b80613a2c7f360894a13ba1a3210667c828492db98dca3e2076cc3735a920a3ca505d382bbc60001b613999565b60000160006101000a81548173ffffffffffffffffffffffffffffffffffffffff021916908373ffffffffffffffffffffffffffffffffffffffff16021790555050565b60606000613a7e8484613bc2565b9050808015613ab657506000613a92613bd8565b1180613ab5575060008473ffffffffffffffffffffffffffffffffffffffff163b115b5b15613acb57613ac3613be0565b915050613b5f565b8015613b0e57836040517f9996b315000000000000000000000000000000000000000000000000000000008152600401613b05919061481b565b60405180910390fd5b6000613b18613bd8565b1115613b2b57613b26613bfe565b613b5d565b6040517fd6bda27500000000000000000000000000000000000000000000000000000000815260040160405180910390fd5b505b92915050565b6000341115613ba0576040517fb398979f00000000000000000000000000000000000000000000000000000000815260040160405180910390fd5b565b6000613bac613786565b60000160089054906101000a900460ff16905090565b6000806000835160208501865af4905092915050565b60003d905090565b606060405190503d81523d6000602083013e3d602001810160405290565b6040513d6000823e3d81fd5b6040518060e0016040528060008152602001600073ffffffffffffffffffffffffffffffffffffffff168152602001606081526020016060815260200160008152602001600015158152602001606081525090565b508054613c6b90614fa6565b6000825580601f10613c7d5750613c9c565b601f016020900490600052602060002090810190613c9b9190613cf8565b5b50565b828054828255906000526020600020908101928215613ce7579160200282015b82811115613ce6578251829081613cd69190615268565b5091602001919060010190613cbf565b5b509050613cf49190613d15565b5090565b5b80821115613d11576000816000905550600101613cf9565b5090565b5b80821115613d355760008181613d2c9190613c5f565b50600101613d16565b5090565b6000604051905090565b600080fd5b600080fd5b6000819050919050565b613d6081613d4d565b8114613d6b57600080fd5b50565b600081359050613d7d81613d57565b92915050565b600060208284031215613d9957613d98613d43565b5b6000613da784828501613d6e565b91505092915050565b600081519050919050565b600082825260208201905092915050565b6000819050602082019050919050565b613de581613d4d565b82525050565b600073ffffffffffffffffffffffffffffffffffffffff82169050919050565b6000613e1682613deb565b9050919050565b613e2681613e0b565b82525050565b600081519050919050565b600082825260208201905092915050565b60005b83811015613e66578082015181840152602081019050613e4b565b60008484015250505050565b6000601f19601f8301169050919050565b6000613e8e82613e2c565b613e988185613e37565b9350613ea8818560208601613e48565b613eb181613e72565b840191505092915050565b600060a083016000830151613ed46000860182613ddc565b506020830151613ee76020860182613ddc565b506040830151613efa6040860182613e1d565b5060608301518482036060860152613f128282613e83565b9150506080830151613f276080860182613ddc565b508091505092915050565b6000613f3e8383613ebc565b905092915050565b6000602082019050919050565b6000613f5e82613db0565b613f688185613dbb565b935083602082028501613f7a85613dcc565b8060005b85811015613fb65784840389528151613f978582613f32565b9450613fa283613f46565b925060208a01995050600181019050613f7e565b50829750879550505050505092915050565b60006020820190508181036000830152613fe28184613f53565b905092915050565b613ff381613e0b565b8114613ffe57600080fd5b50565b60008135905061401081613fea565b92915050565b60006020828403121561402c5761402b613d43565b5b600061403a84828501614001565b91505092915050565b600081519050919050565b600082825260208201905092915050565b6000819050602082019050919050565b60006080830160008301516140876000860182613ddc565b50602083015161409a6020860182613ddc565b50604083015184820360408601526140b28282613e83565b91505060608301516140c76060860182613ddc565b508091505092915050565b60006140de838361406f565b905092915050565b6000602082019050919050565b60006140fe82614043565b614108818561404e565b93508360208202850161411a8561405f565b8060005b85811015614156578484038952815161413785826140d2565b9450614142836140e6565b925060208a0199505060018101905061411e565b50829750879550505050505092915050565b6000602082019050818103600083015261418281846140f3565b905092915050565b60008115159050919050565b61419f8161418a565b82525050565b600081519050919050565b600082825260208201905092915050565b6000819050602082019050919050565b60006141dd8383613e83565b905092915050565b6000602082019050919050565b60006141fd826141a5565b61420781856141b0565b935083602082028501614219856141c1565b8060005b85811015614255578484038952815161423685826141d1565b9450614241836141e5565b925060208a0199505060018101905061421d565b50829750879550505050505092915050565b600060e08301600083015161427f6000860182613ddc565b5060208301516142926020860182613e1d565b50604083015184820360408601526142aa8282613e83565b915050606083015184820360608601526142c48282613e83565b91505060808301516142d96080860182613ddc565b5060a08301516142ec60a0860182614196565b5060c083015184820360c086015261430482826141f2565b9150508091505092915050565b6000602082019050818103600083015261432b8184614267565b905092915050565b600080fd5b600080fd5b7f4e487b7100000000000000000000000000000000000000000000000000000000600052604160045260246000fd5b61437582613e72565b810181811067ffffffffffffffff821117156143945761439361433d565b5b80604052505050565b60006143a7613d39565b90506143b3828261436c565b919050565b600067ffffffffffffffff8211156143d3576143d261433d565b5b6143dc82613e72565b9050602081019050919050565b82818337600083830152505050565b600061440b614406846143b8565b61439d565b90508281526020810184848401111561442757614426614338565b5b6144328482856143e9565b509392505050565b600082601f83011261444f5761444e614333565b5b813561445f8482602086016143f8565b91505092915050565b600067ffffffffffffffff8211156144835761448261433d565b5b602082029050602081019050919050565b600080fd5b60006144ac6144a784614468565b61439d565b905080838252602082019050602084028301858111156144cf576144ce614494565b5b835b8181101561451657803567ffffffffffffffff8111156144f4576144f3614333565b5b808601614501898261443a565b855260208501945050506020810190506144d1565b5050509392505050565b600082601f83011261453557614534614333565b5b8135614545848260208601614499565b91505092915050565b6000806000806080858703121561456857614567613d43565b5b600061457687828801613d6e565b945050602085013567ffffffffffffffff81111561459757614596613d48565b5b6145a38782880161443a565b935050604085013567ffffffffffffffff8111156145c4576145c3613d48565b5b6145d08782880161443a565b925050606085013567ffffffffffffffff8111156145f1576145f0613d48565b5b6145fd87828801614520565b91505092959194509250565b61461281613d4d565b82525050565b600060208201905061462d6000830184614609565b92915050565b600067ffffffffffffffff82111561464e5761464d61433d565b5b61465782613e72565b9050602081019050919050565b600061467761467284614633565b61439d565b90508281526020810184848401111561469357614692614338565b5b61469e8482856143e9565b509392505050565b600082601f8301126146bb576146ba614333565b5b81356146cb848260208601614664565b91505092915050565b600080604083850312156146eb576146ea613d43565b5b60006146f985828601614001565b925050602083013567ffffffffffffffff81111561471a57614719613d48565b5b614726858286016146a6565b9150509250929050565b6000819050919050565b61474381614730565b82525050565b600060208201905061475e600083018461473a565b92915050565b600082825260208201905092915050565b6000614780826141a5565b61478a8185614764565b93508360208202850161479c856141c1565b8060005b858110156147d857848403895281516147b985826141d1565b94506147c4836141e5565b925060208a019950506001810190506147a0565b50829750879550505050505092915050565b600060208201905081810360008301526148048184614775565b905092915050565b61481581613e0b565b82525050565b6000602082019050614830600083018461480c565b92915050565b600081519050919050565b600082825260208201905092915050565b6000819050602082019050919050565b600061486e8383613ddc565b60208301905092915050565b6000602082019050919050565b600061489282614836565b61489c8185614841565b93506148a783614852565b8060005b838110156148d85781516148bf8882614862565b97506148ca8361487a565b9250506001810190506148ab565b5085935050505092915050565b600060208201905081810360008301526148ff8184614887565b905092915050565b6000806040838503121561491e5761491d613d43565b5b600061492c85828601613d6e565b925050602061493d85828601614001565b9150509250929050565b6149508161418a565b82525050565b600060208201905061496b6000830184614947565b92915050565b6000806040838503121561498857614987613d43565b5b600061499685828601614001565b92505060206149a785828601614001565b9150509250929050565b600080604083850312156149c8576149c7613d43565b5b60006149d685828601613d6e565b925050602083013567ffffffffffffffff8111156149f7576149f6613d48565b5b614a038582860161443a565b9150509250929050565b600082825260208201905092915050565b6000614a2982613e2c565b614a338185614a0d565b9350614a43818560208601613e48565b614a4c81613e72565b840191505092915050565b60006020820190508181036000830152614a718184614a1e565b905092915050565b600080600060608486031215614a9257614a91613d43565b5b600084013567ffffffffffffffff811115614ab057614aaf613d48565b5b614abc8682870161443a565b935050602084013567ffffffffffffffff811115614add57614adc613d48565b5b614ae98682870161443a565b925050604084013567ffffffffffffffff811115614b0a57614b09613d48565b5b614b1686828701614520565b9150509250925092565b600081519050919050565b600082825260208201905092915050565b6000819050602082019050919050565b6000614b588383613e1d565b60208301905092915050565b6000602082019050919050565b6000614b7c82614b20565b614b868185614b2b565b9350614b9183614b3c565b8060005b83811015614bc2578151614ba98882614b4c565b9750614bb483614b64565b925050600181019050614b95565b5085935050505092915050565b60006020820190508181036000830152614be98184614b71565b905092915050565b600060208284031215614c0757614c06613d43565b5b600082013567ffffffffffffffff811115614c2557614c24613d48565b5b614c318482850161443a565b91505092915050565b600080fd5b60008083601f840112614c5557614c54614333565b5b8235905067ffffffffffffffff811115614c7257614c71614c3a565b5b602083019150836020820283011115614c8e57614c8d614494565b5b9250929050565b60008060208385031215614cac57614cab613d43565b5b600083013567ffffffffffffffff811115614cca57614cc9613d48565b5b614cd685828601614c3f565b92509250509250929050565b600081519050919050565b600082825260208201905092915050565b6000819050602082019050919050565b600060e083016000830151614d266000860182613ddc565b506020830151614d396020860182613e1d565b5060408301518482036040860152614d518282613e83565b91505060608301518482036060860152614d6b8282613e83565b9150506080830151614d806080860182613ddc565b5060a0830151614d9360a0860182614196565b5060c083015184820360c0860152614dab82826141f2565b9150508091505092915050565b6000614dc48383614d0e565b905092915050565b6000602082019050919050565b6000614de482614ce2565b614dee8185614ced565b935083602082028501614e0085614cfe565b8060005b85811015614e3c5784840389528151614e1d8582614db8565b9450614e2883614dcc565b925060208a01995050600181019050614e04565b50829750879550505050505092915050565b60006020820190508181036000830152614e688184614dd9565b905092915050565b7f506f737420646f6573206e6f7420657869737400000000000000000000000000600082015250565b6000614ea6601383614a0d565b9150614eb182614e70565b602082019050919050565b60006020820190508181036000830152614ed581614e99565b9050919050565b7f4e6f742074686520617574686f72000000000000000000000000000000000000600082015250565b6000614f12600e83614a0d565b9150614f1d82614edc565b602082019050919050565b60006020820190508181036000830152614f4181614f05565b9050919050565b7f4e487b7100000000000000000000000000000000000000000000000000000000600052603260045260246000fd5b7f4e487b7100000000000000000000000000000000000000000000000000000000600052602260045260246000fd5b60006002820490506001821680614fbe57607f821691505b602082108103614fd157614fd0614f77565b5b50919050565b600081905092915050565b6000614fed82613e2c565b614ff78185614fd7565b9350615007818560208601613e48565b80840191505092915050565b600061501f8284614fe2565b915081905092915050565b7f4e487b7100000000000000000000000000000000000000000000000000000000600052601160045260246000fd5b600061506482613d4d565b915061506f83613d4d565b92508282039050818111156150875761508661502a565b5b92915050565b7f4e487b7100000000000000000000000000000000000000000000000000000000600052603160045260246000fd5b60008190508160005260206000209050919050565b60006020601f8301049050919050565b600082821b905092915050565b60006008830261511e7fffffffffffffffffffffffffffffffffffffffffffffffffffffffffffffffff826150e1565b61512886836150e1565b95508019841693508086168417925050509392505050565b6000819050919050565b600061516561516061515b84613d4d565b615140565b613d4d565b9050919050565b6000819050919050565b61517f8361514a565b61519361518b8261516c565b8484546150ee565b825550505050565b600090565b6151a861519b565b6151b3818484615176565b505050565b5b818110156151d7576151cc6000826151a0565b6001810190506151b9565b5050565b601f82111561521c576151ed816150bc565b6151f6846150d1565b81016020851015615205578190505b615219615211856150d1565b8301826151b8565b50505b505050565b600082821c905092915050565b600061523f60001984600802615221565b1980831691505092915050565b6000615258838361522e565b9150826002028217905092915050565b61527182613e2c565b67ffffffffffffffff81111561528a5761528961433d565b5b6152948254614fa6565b61529f8282856151db565b600060209050601f8311600181146152d257600084156152c0578287015190505b6152ca858261524c565b865550615332565b601f1984166152e0866150bc565b60005b82811015615308578489015182556001820191506020850194506020810190506152e3565b868310156153255784890151615321601f89168261522e565b8355505b6001600288020188555050505b505050505050565b600060608201905081810360008301526153548186614a1e565b905081810360208301526153688185614a1e565b9050818103604083015261537c8184614775565b9050949350505050565b7f416c7265616479206c696b656400000000000000000000000000000000000000600082015250565b60006153bc600d83614a0d565b91506153c782615386565b602082019050919050565b600060208201905081810360008301526153eb816153af565b9050919050565b60006153fd82613d4d565b91507fffffffffffffffffffffffffffffffffffffffffffffffffffffffffffffffff820361542f5761542e61502a565b5b600182019050919050565b6000819050919050565b600067ffffffffffffffff82169050919050565b600061547361546e6154698461543a565b615140565b615444565b9050919050565b61548381615458565b82525050565b600060208201905061549e600083018461547a565b92915050565b7f416c726561647920666f6c6c6f77696e67000000000000000000000000000000600082015250565b60006154da601183614a0d565b91506154e5826154a4565b602082019050919050565b60006020820190508181036000830152615509816154cd565b9050919050565b7f43616e6e6f7420666f6c6c6f7720796f757273656c6600000000000000000000600082015250565b6000615546601683614a0d565b915061555182615510565b602082019050919050565b6000602082019050818103600083015261557581615539565b9050919050565b7f436f6d6d656e742063616e6e6f7420626520656d707479000000000000000000600082015250565b60006155b2601783614a0d565b91506155bd8261557c565b602082019050919050565b600060208201905081810360008301526155e1816155a5565b9050919050565b60006060820190506155fd6000830186614609565b61560a602083018561480c565b818103604083015261561c8184614a1e565b9050949350505050565b7f5469746c652063616e6e6f7420626520656d7074790000000000000000000000600082015250565b600061565c601583614a0d565b915061566782615626565b602082019050919050565b6000602082019050818103600083015261568b8161564f565b9050919050565b7f436f6e74656e7420686173682063616e6e6f7420626520656d70747900000000600082015250565b60006156c8601c83614a0d565b91506156d382615692565b602082019050919050565b600060208201905081810360008301526156f7816156bb565b9050919050565b600060808201905081810360008301526157188187614a1e565b9050818103602083015261572c8186614a1e565b905061573b6040830185614609565b818103606083015261574d8184614775565b905095945050505050565b7f4e6f7420666f6c6c6f77696e6700000000000000000000000000000000000000600082015250565b600061578e600d83614a0d565b915061579982615758565b602082019050919050565b600060208201905081810360008301526157bd81615781565b9050919050565b6157cd81614730565b81146157d857600080fd5b50565b6000815190506157ea816157c4565b92915050565b60006020828403121561580657615805613d43565b5b6000615814848285016157db565b9150509291505056fea26469706673582212206d93e544cba4159dbfd86a1a0dde5aaeacc3ac3cf58e584f9904ba89c4506de064736f6c634300081c0033",
  "linkReferences": {},
  "deployedLinkReferences": {}
}