{
  "_format": "hh-sol-artifact-1",
  "contractName": "DecentralizedBlog",
  "sourceName": "contracts/Blog.sol",
  "abi": [
    {
      "inputs": [],
      "stateMutability": "nonpayable",
      "type": "constructor"
    },
    {
      "inputs": [
        {
          "internalType": "address",
          "name": "owner",
          "type": "address"
        }
      ],
      "name": "OwnableInvalidOwner",
      "type": "error"
    },
    {
      "inputs": [
        {
          "internalType": "address",
          "name": "account",
          "type": "address"
        }
      ],
      "name": "OwnableUnauthorizedAccount",
      "type": "error"
    },
    {
      "anonymous": false,
      "inputs": [
        {
          "indexed": true,
          "internalType": "uint256",
          "name": "postId",
          "type": "uint256"
        },
        {
          "indexed": false,
          "internalType": "uint256",
          "name": "commentId",
          "type": "uint256"
        },
        {
          "indexed": false,
          "internalType": "address",
          "name": "author",
          "type": "address"
        },
        {
          "indexed": false,
          "internalType": "string",
          "name": "content",
          "type": "string"
        }
      ],
      "name": "CommentAdded",
      "type": "event"
    },
    {
      "anonymous": false,
      "inputs": [
        {
          "indexed": true,
          "internalType": "address",
          "name": "previousOwner",
          "type": "address"
        },
        {
          "indexed": true,
          "internalType": "address",
          "name": "newOwner",
          "type": "address"
        }
      ],
      "name": "OwnershipTransferred",
      "type": "event"
    },
    {
      "anonymous": false,
      "inputs": [
        {
          "indexed": true,
          "internalType": "uint256",
          "name": "id",
          "type": "uint256"
        },
        {
          "indexed": true,
          "internalType": "address",
          "name": "author",
          "type": "address"
        },
        {
          "indexed": false,
          "internalType": "string",
          "name": "title",
          "type": "string"
        },
        {
          "indexed": false,
          "internalType": "string",
          "name": "contentHash",
          "type": "string"
        },
        {
          "indexed": false,
          "internalType": "uint256",
          "name": "timestamp",
          "type": "uint256"
        },
        {
          "indexed": false,
          "internalType": "string[]",
          "name": "tags",
          "type": "string[]"
        }
      ],
      "name": "PostCreated",
      "type": "event"
    },
    {
      "anonymous": false,
      "inputs": [
        {
          "indexed": true,
          "internalType": "uint256",
          "name": "id",
          "type": "uint256"
        }
      ],
      "name": "PostDeleted",
      "type": "event"
    },
    {
      "anonymous": false,
      "inputs": [
        {
          "indexed": true,
          "internalType": "uint256",
          "name": "id",
          "type": "uint256"
        },
        {
          "indexed": false,
          "internalType": "string",
          "name": "newTitle",
          "type": "string"
        },
        {
          "indexed": false,
          "internalType": "string",
          "name": "newContentHash",
          "type": "string"
        },
        {
          "indexed": false,
          "internalType": "string[]",
          "name": "newTags",
          "type": "string[]"
        }
      ],
      "name": "PostUpdated",
      "type": "event"
    },
    {
      "anonymous": false,
      "inputs": [
        {
          "indexed": true,
          "internalType": "address",
          "name": "follower",
          "type": "address"
        },
        {
          "indexed": true,
          "internalType": "address",
          "name": "followed",
          "type": "address"
        }
      ],
      "name": "UserFollowed",
      "type": "event"
    },
    {
      "anonymous": false,
      "inputs": [
        {
          "indexed": true,
          "internalType": "address",
          "name": "follower",
          "type": "address"
        },
        {
          "indexed": true,
          "internalType": "address",
          "name": "unfollowed",
          "type": "address"
        }
      ],
      "name": "UserUnfollowed",
      "type": "event"
    },
    {
      "inputs": [
        {
          "internalType": "uint256",
          "name": "_postId",
          "type": "uint256"
        },
        {
          "internalType": "string",
          "name": "_content",
          "type": "string"
        }
      ],
      "name": "addComment",
      "outputs": [],
      "stateMutability": "nonpayable",
      "type": "function"
    },
    {
      "inputs": [
        {
          "internalType": "string",
          "name": "_title",
          "type": "string"
        },
        {
          "internalType": "string",
          "name": "_contentHash",
          "type": "string"
        },
        {
          "internalType": "string[]",
          "name": "_tags",
          "type": "string[]"
        }
      ],
      "name": "createPost",
      "outputs": [
        {
          "internalType": "uint256",
          "name": "",
          "type": "uint256"
        }
      ],
      "stateMutability": "nonpayable",
      "type": "function"
    },
    {
      "inputs": [
        {
          "internalType": "uint256",
          "name": "_postId",
          "type": "uint256"
        }
      ],
      "name": "deletePost",
      "outputs": [],
      "stateMutability": "nonpayable",
      "type": "function"
    },
    {
      "inputs": [
        {
          "internalType": "address",
          "name": "_userToFollow",
          "type": "address"
        }
      ],
      "name": "followUser",
      "outputs": [],
      "stateMutability": "nonpayable",
      "type": "function"
    },
    {
      "inputs": [],
      "name": "getAllPostIds",
      "outputs": [
        {
          "internalType": "uint256[]",
          "name": "",
          "type": "uint256[]"
        }
      ],
      "stateMutability": "view",
      "type": "function"
    },
    {
      "inputs": [],
      "name": "getAllTags",
      "outputs": [
        {
          "internalType": "string[]",
          "name": "",
          "type": "string[]"
        }
      ],
      "stateMutability": "view",
      "type": "function"
    },
    {
      "inputs": [
        {
          "internalType": "uint256",
          "name": "_postId",
          "type": "uint256"
        }
      ],
      "name": "getComments",
      "outputs": [
        {
          "components": [
            {
              "internalType": "uint256",
              "name": "id",
              "type": "uint256"
            },
            {
              "internalType": "uint256",
              "name": "postId",
              "type": "uint256"
            },
            {
              "internalType": "address",
              "name": "author",
              "type": "address"
            },
            {
              "internalType": "string",
              "name": "content",
              "type": "string"
            },
            {
              "internalType": "uint256",
              "name": "timestamp",
              "type": "uint256"
            }
          ],
          "internalType": "struct DecentralizedBlog.Comment[]",
          "name": "",
          "type": "tuple[]"
        }
      ],
      "stateMutability": "view",
      "type": "function"
    },
    {
      "inputs": [
        {
          "internalType": "address",
          "name": "_user",
          "type": "address"
        }
      ],
      "name": "getFollowerCount",
      "outputs": [
        {
          "internalType": "uint256",
          "name": "",
          "type": "uint256"
        }
      ],
      "stateMutability": "view",
      "type": "function"
    },
    {
      "inputs": [
        {
          "internalType": "address",
          "name": "_user",
          "type": "address"
        }
      ],
      "name": "getFollowers",
      "outputs": [
        {
          "internalType": "address[]",
          "name": "",
          "type": "address[]"
        }
      ],
      "stateMutability": "view",
      "type": "function"
    },
    {
      "inputs": [
        {
          "internalType": "address",
          "name": "_user",
          "type": "address"
        }
      ],
      "name": "getFollowing",
      "outputs": [
        {
          "internalType": "address[]",
          "name": "",
          "type": "address[]"
        }
      ],
      "stateMutability": "view",
      "type": "function"
    },
    {
      "inputs": [
        {
          "internalType": "uint256",
          "name": "_postId",
          "type": "uint256"
        }
      ],
      "name": "getLikeCount",
      "outputs": [
        {
          "internalType": "uint256",
          "name": "",
          "type": "uint256"
        }
      ],
      "stateMutability": "view",
      "type": "function"
    },
    {
      "inputs": [
        {
          "internalType": "address",
          "name": "_user",
          "type": "address"
        }
      ],
      "name": "getLikedPosts",
      "outputs": [
        {
          "internalType": "uint256[]",
          "name": "",
          "type": "uint256[]"
        }
      ],
      "stateMutability": "view",
      "type": "function"
    },
    {
      "inputs": [
        {
          "internalType": "uint256[]",
          "name": "_postIds",
          "type": "uint256[]"
        }
      ],
      "name": "getMultiplePosts",
      "outputs": [
        {
          "components": [
            {
              "internalType": "uint256",
              "name": "id",
              "type": "uint256"
            },
            {
              "internalType": "address",
              "name": "author",
              "type": "address"
            },
            {
              "internalType": "string",
              "name": "title",
              "type": "string"
            },
            {
              "internalType": "string",
              "name": "contentHash",
              "type": "string"
            },
            {
              "internalType": "uint256",
              "name": "timestamp",
              "type": "uint256"
            },
            {
              "internalType": "bool",
              "name": "published",
              "type": "bool"
            },
            {
              "internalType": "string[]",
              "name": "tags",
              "type": "string[]"
            }
          ],
          "internalType": "struct DecentralizedBlog.Post[]",
          "name": "",
          "type": "tuple[]"
        }
      ],
      "stateMutability": "view",
      "type": "function"
    },
    {
      "inputs": [
        {
          "internalType": "uint256",
          "name": "_postId",
          "type": "uint256"
        }
      ],
      "name": "getPost",
      "outputs": [
        {
          "components": [
            {
              "internalType": "uint256",
              "name": "id",
              "type": "uint256"
            },
            {
              "internalType": "address",
              "name": "author",
              "type": "address"
            },
            {
              "internalType": "string",
              "name": "title",
              "type": "string"
            },
            {
              "internalType": "string",
              "name": "contentHash",
              "type": "string"
            },
            {
              "internalType": "uint256",
              "name": "timestamp",
              "type": "uint256"
            },
            {
              "internalType": "bool",
              "name": "published",
              "type": "bool"
            },
            {
              "internalType": "string[]",
              "name": "tags",
              "type": "string[]"
            }
          ],
          "internalType": "struct DecentralizedBlog.Post",
          "name": "",
          "type": "tuple"
        }
      ],
      "stateMutability": "view",
      "type": "function"
    },
    {
      "inputs": [],
      "name": "getPostCount",
      "outputs": [
        {
          "internalType": "uint256",
          "name": "",
          "type": "uint256"
        }
      ],
      "stateMutability": "view",
      "type": "function"
    },
    {
      "inputs": [
        {
          "internalType": "string",
          "name": "_tag",
          "type": "string"
        }
      ],
      "name": "getPostsByTag",
      "outputs": [
        {
          "internalType": "uint256[]",
          "name": "",
          "type": "uint256[]"
        }
      ],
      "stateMutability": "view",
      "type": "function"
    },
    {
      "inputs": [],
      "name": "getTagCount",
      "outputs": [
        {
          "internalType": "uint256",
          "name": "",
          "type": "uint256"
        }
      ],
      "stateMutability": "view",
      "type": "function"
    },
    {
      "inputs": [
        {
          "internalType": "address",
          "name": "_user",
          "type": "address"
        }
      ],
      "name": "getUserCommentCount",
      "outputs": [
        {
          "internalType": "uint256",
          "name": "",
          "type": "uint256"
        }
      ],
      "stateMutability": "view",
      "type": "function"
    },
    {
      "inputs": [
        {
          "internalType": "address",
          "name": "_user",
          "type": "address"
        }
      ],
      "name": "getUserComments",
      "outputs": [
        {
          "components": [
            {
              "internalType": "uint256",
              "name": "postId",
              "type": "uint256"
            },
            {
              "internalType": "uint256",
              "name": "commentId",
              "type": "uint256"
            },
            {
              "internalType": "string",
              "name": "content",
              "type": "string"
            },
            {
              "internalType": "uint256",
              "name": "timestamp",
              "type": "uint256"
            }
          ],
          "internalType": "struct DecentralizedBlog.UserComment[]",
          "name": "",
          "type": "tuple[]"
        }
      ],
      "stateMutability": "view",
      "type": "function"
    },
    {
      "inputs": [
        {
          "internalType": "uint256",
          "name": "_postId",
          "type": "uint256"
        }
      ],
      "name": "getViewCount",
      "outputs": [
        {
          "internalType": "uint256",
          "name": "",
          "type": "uint256"
        }
      ],
      "stateMutability": "view",
      "type": "function"
    },
    {
      "inputs": [
        {
          "internalType": "uint256",
          "name": "_postId",
          "type": "uint256"
        },
        {
          "internalType": "address",
          "name": "_user",
          "type": "address"
        }
      ],
      "name": "hasLiked",
      "outputs": [
        {
          "internalType": "bool",
          "name": "",
          "type": "bool"
        }
      ],
      "stateMutability": "view",
      "type": "function"
    },
    {
      "inputs": [
        {
          "internalType": "uint256",
          "name": "_postId",
          "type": "uint256"
        }
      ],
      "name": "incrementViewCount",
      "outputs": [],
      "stateMutability": "nonpayable",
      "type": "function"
    },
    {
      "inputs": [
        {
          "internalType": "address",
          "name": "_user",
          "type": "address"
        },
        {
          "internalType": "address",
          "name": "_follower",
          "type": "address"
        }
      ],
      "name": "isFollower",
      "outputs": [
        {
          "internalType": "bool",
          "name": "",
          "type": "bool"
        }
      ],
      "stateMutability": "view",
      "type": "function"
    },
    {
      "inputs": [
        {
          "internalType": "address",
          "name": "_follower",
          "type": "address"
        },
        {
          "internalType": "address",
          "name": "_followed",
          "type": "address"
        }
      ],
      "name": "isFollowing",
      "outputs": [
        {
          "internalType": "bool",
          "name": "",
          "type": "bool"
        }
      ],
      "stateMutability": "view",
      "type": "function"
    },
    {
      "inputs": [
        {
          "internalType": "uint256",
          "name": "_postId",
          "type": "uint256"
        }
      ],
      "name": "likePost",
      "outputs": [],
      "stateMutability": "nonpayable",
      "type": "function"
    },
    {
      "inputs": [],
      "name": "owner",
      "outputs": [
        {
          "internalType": "address",
          "name": "",
          "type": "address"
        }
      ],
      "stateMutability": "view",
      "type": "function"
    },
    {
      "inputs": [],
      "name": "renounceOwnership",
      "outputs": [],
      "stateMutability": "nonpayable",
      "type": "function"
    },
    {
      "inputs": [
        {
          "internalType": "address",
          "name": "newOwner",
          "type": "address"
        }
      ],
      "name": "transferOwnership",
      "outputs": [],
      "stateMutability": "nonpayable",
      "type": "function"
    },
    {
      "inputs": [
        {
          "internalType": "address",
          "name": "_userToUnfollow",
          "type": "address"
        }
      ],
      "name": "unfollowUser",
      "outputs": [],
      "stateMutability": "nonpayable",
      "type": "function"
    },
    {
      "inputs": [
        {
          "internalType": "uint256",
          "name": "_postId",
          "type": "uint256"
        },
        {
          "internalType": "string",
          "name": "_newTitle",
          "type": "string"
        },
        {
          "internalType": "string",
          "name": "_newContentHash",
          "type": "string"
        },
        {
          "internalType": "string[]",
          "name": "_newTags",
          "type": "string[]"
        }
      ],
      "name": "updatePost",
      "outputs": [],
      "stateMutability": "nonpayable",
      "type": "function"
    }
  ],
  "bytecode": "0x6080604052600180556001600a5534801561001957600080fd5b5033600073ffffffffffffffffffffffffffffffffffffffff168173ffffffffffffffffffffffffffffffffffffffff160361008d5760006040517f1e4fbdf700000000000000000000000000000000000000000000000000000000815260040161008491906101a7565b60405180910390fd5b61009c816100a260201b60201c565b506101c2565b60008060009054906101000a900473ffffffffffffffffffffffffffffffffffffffff169050816000806101000a81548173ffffffffffffffffffffffffffffffffffffffff021916908373ffffffffffffffffffffffffffffffffffffffff1602179055508173ffffffffffffffffffffffffffffffffffffffff168173ffffffffffffffffffffffffffffffffffffffff167f8be0079c531659141344cd1fd0a4f28419497f9722a3daafe3b4186f6b6457e060405160405180910390a35050565b600073ffffffffffffffffffffffffffffffffffffffff82169050919050565b600061019182610166565b9050919050565b6101a181610186565b82525050565b60006020820190506101bc6000830184610198565b92915050565b614ab2806101d16000396000f3fe608060405234801561001057600080fd5b50600436106101da5760003560e01c8063a70806f711610104578063cb04c970116100a2578063e5fe947711610071578063e5fe9477146105c7578063f107cfcb146105f7578063f2fde38b14610613578063f6f7712b1461062f576101da565b8063cb04c97014610507578063cdfd9b8614610537578063d8236dff14610567578063dec3c63314610597576101da565b8063bcc95407116100de578063bcc9540714610459578063c2fe202214610477578063c55a3362146104a7578063c88790a2146104d7576101da565b8063a70806f7146103f1578063aa7e56831461040d578063b01c7a4d14610429576101da565b8063715018a61161017c5780638fb7092c1161014b5780638fb7092c14610357578063986f191c1461038757806399ec3a42146103a5578063a3770481146103d5576101da565b8063715018a6146102f5578063725009d3146102ff5780638da5cb5b1461031b5780638e25df9e14610339576101da565b806340731c24116101b857806340731c241461025b57806346a3ebf31461028b5780634ef576ad146102a75780637038f157146102d7576101da565b8063094cd5ee146101df57806323edf697146101fb5780632b3c6e221461022b575b600080fd5b6101f960048036038101906101f491906131f8565b61065f565b005b610215600480360381019061021091906131f8565b610a0c565b604051610222919061343d565b60405180910390f35b6102456004803603810190610240919061348b565b610b84565b60405161025291906135dd565b60405180910390f35b610275600480360381019061027091906131f8565b610cd2565b6040516102829190613786565b60405180910390f35b6102a560048036038101906102a091906139c3565b610fce565b005b6102c160048036038101906102bc91906131f8565b61138f565b6040516102ce9190613a8d565b60405180910390f35b6102df6113ac565b6040516102ec9190613b2e565b60405180910390f35b6102fd611485565b005b610319600480360381019061031491906131f8565b611499565b005b6103236115cc565b6040516103309190613b5f565b60405180910390f35b6103416115f5565b60405161034e9190613c29565b60405180910390f35b610371600480360381019061036c9190613c4b565b61164d565b60405161037e9190613c9a565b60405180910390f35b61038f6116b5565b60405161039c9190613a8d565b60405180910390f35b6103bf60048036038101906103ba9190613cb5565b6116c2565b6040516103cc9190613c9a565b60405180910390f35b6103ef60048036038101906103ea91906131f8565b611756565b005b61040b6004803603810190610406919061348b565b6117db565b005b61042760048036038101906104229190613cf5565b611b45565b005b610443600480360381019061043e9190613d51565b611e54565b6040516104509190613a8d565b60405180910390f35b6104616120b7565b60405161046e9190613a8d565b60405180910390f35b610491600480360381019061048c919061348b565b6120c4565b60405161049e9190613ea7565b60405180910390f35b6104c160048036038101906104bc9190613ec9565b612191565b6040516104ce9190613c29565b60405180910390f35b6104f160048036038101906104ec919061348b565b612207565b6040516104fe9190613a8d565b60405180910390f35b610521600480360381019061051c919061348b565b612250565b60405161052e9190613a8d565b60405180910390f35b610551600480360381019061054c919061348b565b61229c565b60405161055e9190613c29565b60405180910390f35b610581600480360381019061057c919061348b565b612470565b60405161058e9190613ea7565b60405180910390f35b6105b160048036038101906105ac91906131f8565b61253d565b6040516105be9190613a8d565b60405180910390f35b6105e160048036038101906105dc9190613cb5565b61255a565b6040516105ee9190613c9a565b60405180910390f35b610611600480360381019061060c919061348b565b6126a1565b005b61062d6004803603810190610628919061348b565b612a21565b005b61064960048036038101906106449190613f6d565b612aa7565b6040516106569190614126565b60405180910390f35b600060026000838152602001908152602001600020905060008160000154036106bd576040517f08c379a00000000000000000000000000000000000000000000000000000000081526004016106b4906141a5565b60405180910390fd5b3373ffffffffffffffffffffffffffffffffffffffff168160010160009054906101000a900473ffffffffffffffffffffffffffffffffffffffff1673ffffffffffffffffffffffffffffffffffffffff161461074f576040517f08c379a000000000000000000000000000000000000000000000000000000000815260040161074690614211565b60405180910390fd5b60008160050160006101000a81548160ff02191690831515021790555060005b816006018054905081101561091857600082600601828154811061079657610795614231565b5b9060005260206000200180546107ab9061428f565b80601f01602080910402602001604051908101604052809291908181526020018280546107d79061428f565b80156108245780601f106107f957610100808354040283529160200191610824565b820191906000526020600020905b81548152906001019060200180831161080757829003601f168201915b50505050509050600060048260405161083d91906142fc565b9081526020016040518091039020905060005b818054905081101561090857858282815481106108705761086f614231565b5b9060005260206000200154036108fb5781600183805490506108929190614342565b815481106108a3576108a2614231565b5b90600052602060002001548282815481106108c1576108c0614231565b5b9060005260206000200181905550818054806108e0576108df614376565b5b60019003818190600052602060002001600090559055610908565b8080600101915050610850565b505050808060010191505061076f565b5060005b6003805490508110156109da57826003828154811061093e5761093d614231565b5b9060005260206000200154036109cd57600360016003805490506109629190614342565b8154811061097357610972614231565b5b90600052602060002001546003828154811061099257610991614231565b5b906000526020600020018190555060038054806109b2576109b1614376565b5b600190038181906000526020600020016000905590556109da565b808060010191505061091c565b50817f32d67e2131cd025eb20e7256680e338dedbe17b28943a11681860a9271ad119d60405160405180910390a25050565b606060096000838152602001908152602001600020805480602002602001604051908101604052809291908181526020016000905b82821015610b7957838290600052602060002090600502016040518060a001604052908160008201548152602001600182015481526020016002820160009054906101000a900473ffffffffffffffffffffffffffffffffffffffff1673ffffffffffffffffffffffffffffffffffffffff1673ffffffffffffffffffffffffffffffffffffffff168152602001600382018054610ade9061428f565b80601f0160208091040260200160405190810160405280929190818152602001828054610b0a9061428f565b8015610b575780601f10610b2c57610100808354040283529160200191610b57565b820191906000526020600020905b815481529060010190602001808311610b3a57829003601f168201915b5050505050815260200160048201548152505081526020019060010190610a41565b505050509050919050565b6060600760008373ffffffffffffffffffffffffffffffffffffffff1673ffffffffffffffffffffffffffffffffffffffff168152602001908152602001600020805480602002602001604051908101604052809291908181526020016000905b82821015610cc757838290600052602060002090600402016040518060800160405290816000820154815260200160018201548152602001600282018054610c2c9061428f565b80601f0160208091040260200160405190810160405280929190818152602001828054610c589061428f565b8015610ca55780601f10610c7a57610100808354040283529160200191610ca5565b820191906000526020600020905b815481529060010190602001808311610c8857829003601f168201915b5050505050815260200160038201548152505081526020019060010190610be5565b505050509050919050565b610cda61307f565b6000600260008481526020019081526020016000206040518060e0016040529081600082015481526020016001820160009054906101000a900473ffffffffffffffffffffffffffffffffffffffff1673ffffffffffffffffffffffffffffffffffffffff1673ffffffffffffffffffffffffffffffffffffffff168152602001600282018054610d6a9061428f565b80601f0160208091040260200160405190810160405280929190818152602001828054610d969061428f565b8015610de35780601f10610db857610100808354040283529160200191610de3565b820191906000526020600020905b815481529060010190602001808311610dc657829003601f168201915b50505050508152602001600382018054610dfc9061428f565b80601f0160208091040260200160405190810160405280929190818152602001828054610e289061428f565b8015610e755780601f10610e4a57610100808354040283529160200191610e75565b820191906000526020600020905b815481529060010190602001808311610e5857829003601f168201915b50505050508152602001600482015481526020016005820160009054906101000a900460ff1615151515815260200160068201805480602002602001604051908101604052809291908181526020016000905b82821015610f74578382906000526020600020018054610ee79061428f565b80601f0160208091040260200160405190810160405280929190818152602001828054610f139061428f565b8015610f605780601f10610f3557610100808354040283529160200191610f60565b820191906000526020600020905b815481529060010190602001808311610f4357829003601f168201915b505050505081526020019060010190610ec8565b505050508152505090506000816000015103610fc5576040517f08c379a0000000000000000000000000000000000000000000000000000000008152600401610fbc906141a5565b60405180910390fd5b80915050919050565b6000600260008681526020019081526020016000209050600081600001540361102c576040517f08c379a0000000000000000000000000000000000000000000000000000000008152600401611023906141a5565b60405180910390fd5b3373ffffffffffffffffffffffffffffffffffffffff168160010160009054906101000a900473ffffffffffffffffffffffffffffffffffffffff1673ffffffffffffffffffffffffffffffffffffffff16146110be576040517f08c379a00000000000000000000000000000000000000000000000000000000081526004016110b590614211565b60405180910390fd5b60005b816006018054905081101561126a5760008260060182815481106110e8576110e7614231565b5b9060005260206000200180546110fd9061428f565b80601f01602080910402602001604051908101604052809291908181526020018280546111299061428f565b80156111765780601f1061114b57610100808354040283529160200191611176565b820191906000526020600020905b81548152906001019060200180831161115957829003601f168201915b50505050509050600060048260405161118f91906142fc565b9081526020016040518091039020905060005b818054905081101561125a57888282815481106111c2576111c1614231565b5b90600052602060002001540361124d5781600183805490506111e49190614342565b815481106111f5576111f4614231565b5b906000526020600020015482828154811061121357611212614231565b5b90600052602060002001819055508180548061123257611231614376565b5b6001900381819060005260206000200160009055905561125a565b80806001019150506111a2565b50505080806001019150506110c1565b508381600201908161127c9190614551565b508281600301908161128e9190614551565b505b6000816006018054905011156112d757806006018054806112b4576112b3614376565b5b6001900381819060005260206000200160006112d091906130d4565b9055611290565b60005b825181101561134157816006018382815181106112fa576112f9614231565b5b60200260200101519080600181540180825580915050600190039060005260206000200160009091909190915090816113339190614551565b5080806001019150506112da565b5061134c8583612e01565b847f60944e494f6efd304ca8f340b1f251e65c2b3d605e6a26d0b8d62016c93c6fe38585856040516113809392919061465c565b60405180910390a25050505050565b6000600c6000838152602001908152602001600020549050919050565b60606005805480602002602001604051908101604052809291908181526020016000905b8282101561147c5783829060005260206000200180546113ef9061428f565b80601f016020809104026020016040519081016040528092919081815260200182805461141b9061428f565b80156114685780601f1061143d57610100808354040283529160200191611468565b820191906000526020600020905b81548152906001019060200180831161144b57829003601f168201915b5050505050815260200190600101906113d0565b50505050905090565b61148d612f2c565b6114976000612fb3565b565b600b600082815260200190815260200160002060003373ffffffffffffffffffffffffffffffffffffffff1673ffffffffffffffffffffffffffffffffffffffff16815260200190815260200160002060009054906101000a900460ff1615611537576040517f08c379a000000000000000000000000000000000000000000000000000000000815260040161152e906146f4565b60405180910390fd5b6001600b600083815260200190815260200160002060003373ffffffffffffffffffffffffffffffffffffffff1673ffffffffffffffffffffffffffffffffffffffff16815260200190815260200160002060006101000a81548160ff021916908315150217905550600c600082815260200190815260200160002060008154809291906115c490614714565b919050555050565b60008060009054906101000a900473ffffffffffffffffffffffffffffffffffffffff16905090565b6060600380548060200260200160405190810160405280929190818152602001828054801561164357602002820191906000526020600020905b81548152602001906001019080831161162f575b5050505050905090565b6000600b600084815260200190815260200160002060008373ffffffffffffffffffffffffffffffffffffffff1673ffffffffffffffffffffffffffffffffffffffff16815260200190815260200160002060009054906101000a900460ff16905092915050565b6000600580549050905090565b6000600e60008473ffffffffffffffffffffffffffffffffffffffff1673ffffffffffffffffffffffffffffffffffffffff16815260200190815260200160002060008373ffffffffffffffffffffffffffffffffffffffff1673ffffffffffffffffffffffffffffffffffffffff16815260200190815260200160002060009054906101000a900460ff16905092915050565b60006002600083815260200190815260200160002060000154036117af576040517f08c379a00000000000000000000000000000000000000000000000000000000081526004016117a6906141a5565b60405180910390fd5b6010600082815260200190815260200160002060008154809291906117d390614714565b919050555050565b600e60003373ffffffffffffffffffffffffffffffffffffffff1673ffffffffffffffffffffffffffffffffffffffff16815260200190815260200160002060008273ffffffffffffffffffffffffffffffffffffffff1673ffffffffffffffffffffffffffffffffffffffff16815260200190815260200160002060009054906101000a900460ff16156118a5576040517f08c379a000000000000000000000000000000000000000000000000000000000815260040161189c906147a8565b60405180910390fd5b3373ffffffffffffffffffffffffffffffffffffffff168173ffffffffffffffffffffffffffffffffffffffff1603611913576040517f08c379a000000000000000000000000000000000000000000000000000000000815260040161190a90614814565b60405180910390fd5b600d60003373ffffffffffffffffffffffffffffffffffffffff1673ffffffffffffffffffffffffffffffffffffffff168152602001908152602001600020819080600181540180825580915050600190039060005260206000200160009091909190916101000a81548173ffffffffffffffffffffffffffffffffffffffff021916908373ffffffffffffffffffffffffffffffffffffffff1602179055506001600e60003373ffffffffffffffffffffffffffffffffffffffff1673ffffffffffffffffffffffffffffffffffffffff16815260200190815260200160002060008373ffffffffffffffffffffffffffffffffffffffff1673ffffffffffffffffffffffffffffffffffffffff16815260200190815260200160002060006101000a81548160ff021916908315150217905550600f60008273ffffffffffffffffffffffffffffffffffffffff1673ffffffffffffffffffffffffffffffffffffffff168152602001908152602001600020339080600181540180825580915050600190039060005260206000200160009091909190916101000a81548173ffffffffffffffffffffffffffffffffffffffff021916908373ffffffffffffffffffffffffffffffffffffffff1602179055508073ffffffffffffffffffffffffffffffffffffffff163373ffffffffffffffffffffffffffffffffffffffff167f30b3435b456f45779984ddfa456115ee4c20d9e446979b1b9e90dbb7e12b90b760405160405180910390a350565b6000600260008481526020019081526020016000206000015403611b9e576040517f08c379a0000000000000000000000000000000000000000000000000000000008152600401611b95906141a5565b60405180910390fd5b6000815111611be2576040517f08c379a0000000000000000000000000000000000000000000000000000000008152600401611bd990614880565b60405180910390fd5b6000600a6000815480929190611bf790614714565b91905055905060006040518060a001604052808381526020018581526020013373ffffffffffffffffffffffffffffffffffffffff16815260200184815260200142815250905060096000858152602001908152602001600020819080600181540180825580915050600190039060005260206000209060050201600090919091909150600082015181600001556020820151816001015560408201518160020160006101000a81548173ffffffffffffffffffffffffffffffffffffffff021916908373ffffffffffffffffffffffffffffffffffffffff1602179055506060820151816003019081611ceb9190614551565b5060808201518160040155505060006040518060800160405280868152602001848152602001858152602001428152509050600760003373ffffffffffffffffffffffffffffffffffffffff1673ffffffffffffffffffffffffffffffffffffffff16815260200190815260200160002081908060018154018082558091505060019003906000526020600020906004020160009091909190915060008201518160000155602082015181600101556040820151816002019081611daf9190614551565b50606082015181600301555050600860003373ffffffffffffffffffffffffffffffffffffffff1673ffffffffffffffffffffffffffffffffffffffff1681526020019081526020016000206000815480929190611e0c90614714565b9190505550847f96d81cac001a263174d42d42cfad470fec9d863bcf6d52ba8b93d47c7ee00de3843387604051611e45939291906148a0565b60405180910390a25050505050565b600080845111611e99576040517f08c379a0000000000000000000000000000000000000000000000000000000008152600401611e909061492a565b60405180910390fd5b6000835111611edd576040517f08c379a0000000000000000000000000000000000000000000000000000000008152600401611ed490614996565b60405180910390fd5b600060016000815480929190611ef290614714565b91905055905060006040518060e001604052808381526020013373ffffffffffffffffffffffffffffffffffffffff16815260200187815260200186815260200142815260200160011515815260200185815250905080600260008481526020019081526020016000206000820151816000015560208201518160010160006101000a81548173ffffffffffffffffffffffffffffffffffffffff021916908373ffffffffffffffffffffffffffffffffffffffff1602179055506040820151816002019081611fc29190614551565b506060820151816003019081611fd89190614551565b506080820151816004015560a08201518160050160006101000a81548160ff02191690831515021790555060c082015181600601908051906020019061201f929190613114565b5090505060038290806001815401808255809150506001900390600052602060002001600090919091909150556120568285612e01565b3373ffffffffffffffffffffffffffffffffffffffff16827fdacee0e38aaa0223bb57054e596dbd69bb70b012e47016e5a57c9734f2a6150a888842896040516120a394939291906149b6565b60405180910390a381925050509392505050565b6000600380549050905090565b6060600f60008373ffffffffffffffffffffffffffffffffffffffff1673ffffffffffffffffffffffffffffffffffffffff16815260200190815260200160002080548060200260200160405190810160405280929190818152602001828054801561218557602002820191906000526020600020905b8160009054906101000a900473ffffffffffffffffffffffffffffffffffffffff1673ffffffffffffffffffffffffffffffffffffffff168152602001906001019080831161213b575b50505050509050919050565b60606004826040516121a391906142fc565b90815260200160405180910390208054806020026020016040519081016040528092919081815260200182805480156121fb57602002820191906000526020600020905b8154815260200190600101908083116121e7575b50505050509050919050565b6000600860008373ffffffffffffffffffffffffffffffffffffffff1673ffffffffffffffffffffffffffffffffffffffff168152602001908152602001600020549050919050565b6000600f60008373ffffffffffffffffffffffffffffffffffffffff1673ffffffffffffffffffffffffffffffffffffffff168152602001908152602001600020805490509050919050565b6060600060038054905067ffffffffffffffff8111156122bf576122be6137b2565b5b6040519080825280602002602001820160405280156122ed5781602001602082028036833780820191505090505b5090506000805b6003805490508110156123c45760006003828154811061231757612316614231565b5b90600052602060002001549050600b600082815260200190815260200160002060008773ffffffffffffffffffffffffffffffffffffffff1673ffffffffffffffffffffffffffffffffffffffff16815260200190815260200160002060009054906101000a900460ff16156123b6578084848151811061239b5761239a614231565b5b60200260200101818152505082806123b290614714565b9350505b5080806001019150506122f4565b5060008167ffffffffffffffff8111156123e1576123e06137b2565b5b60405190808252806020026020018201604052801561240f5781602001602082028036833780820191505090505b50905060005b82811015612464578381815181106124305761242f614231565b5b602002602001015182828151811061244b5761244a614231565b5b6020026020010181815250508080600101915050612415565b50809350505050919050565b6060600d60008373ffffffffffffffffffffffffffffffffffffffff1673ffffffffffffffffffffffffffffffffffffffff16815260200190815260200160002080548060200260200160405190810160405280929190818152602001828054801561253157602002820191906000526020600020905b8160009054906101000a900473ffffffffffffffffffffffffffffffffffffffff1673ffffffffffffffffffffffffffffffffffffffff16815260200190600101908083116124e7575b50505050509050919050565b600060106000838152602001908152602001600020549050919050565b600080600f60008573ffffffffffffffffffffffffffffffffffffffff1673ffffffffffffffffffffffffffffffffffffffff16815260200190815260200160002080548060200260200160405190810160405280929190818152602001828054801561261c57602002820191906000526020600020905b8160009054906101000a900473ffffffffffffffffffffffffffffffffffffffff1673ffffffffffffffffffffffffffffffffffffffff16815260200190600101908083116125d2575b5050505050905060005b8151811015612694578373ffffffffffffffffffffffffffffffffffffffff1682828151811061265957612658614231565b5b602002602001015173ffffffffffffffffffffffffffffffffffffffff16036126875760019250505061269b565b8080600101915050612626565b5060009150505b92915050565b600e60003373ffffffffffffffffffffffffffffffffffffffff1673ffffffffffffffffffffffffffffffffffffffff16815260200190815260200160002060008273ffffffffffffffffffffffffffffffffffffffff1673ffffffffffffffffffffffffffffffffffffffff16815260200190815260200160002060009054906101000a900460ff1661276a576040517f08c379a000000000000000000000000000000000000000000000000000000000815260040161276190614a5c565b60405180910390fd5b6000600d60003373ffffffffffffffffffffffffffffffffffffffff1673ffffffffffffffffffffffffffffffffffffffff168152602001908152602001600020905060005b818054905081101561292d578273ffffffffffffffffffffffffffffffffffffffff168282815481106127e6576127e5614231565b5b9060005260206000200160009054906101000a900473ffffffffffffffffffffffffffffffffffffffff1673ffffffffffffffffffffffffffffffffffffffff160361292057816001838054905061283e9190614342565b8154811061284f5761284e614231565b5b9060005260206000200160009054906101000a900473ffffffffffffffffffffffffffffffffffffffff1682828154811061288d5761288c614231565b5b9060005260206000200160006101000a81548173ffffffffffffffffffffffffffffffffffffffff021916908373ffffffffffffffffffffffffffffffffffffffff160217905550818054806128e6576128e5614376565b5b6001900381819060005260206000200160006101000a81549073ffffffffffffffffffffffffffffffffffffffff0219169055905561292d565b80806001019150506127b0565b506000600e60003373ffffffffffffffffffffffffffffffffffffffff1673ffffffffffffffffffffffffffffffffffffffff16815260200190815260200160002060008473ffffffffffffffffffffffffffffffffffffffff1673ffffffffffffffffffffffffffffffffffffffff16815260200190815260200160002060006101000a81548160ff0219169083151502179055508173ffffffffffffffffffffffffffffffffffffffff163373ffffffffffffffffffffffffffffffffffffffff167fe7339343c6edff57f2d15278c419523844cea30ae5ee2146aa22cb9e3107dab760405160405180910390a35050565b612a29612f2c565b600073ffffffffffffffffffffffffffffffffffffffff168173ffffffffffffffffffffffffffffffffffffffff1603612a9b5760006040517f1e4fbdf7000000000000000000000000000000000000000000000000000000008152600401612a929190613b5f565b60405180910390fd5b612aa481612fb3565b50565b606060008383905067ffffffffffffffff811115612ac857612ac76137b2565b5b604051908082528060200260200182016040528015612b0157816020015b612aee61307f565b815260200190600190039081612ae65790505b50905060005b84849050811015612df65760026000868684818110612b2957612b28614231565b5b9050602002013581526020019081526020016000206040518060e0016040529081600082015481526020016001820160009054906101000a900473ffffffffffffffffffffffffffffffffffffffff1673ffffffffffffffffffffffffffffffffffffffff1673ffffffffffffffffffffffffffffffffffffffff168152602001600282018054612bb99061428f565b80601f0160208091040260200160405190810160405280929190818152602001828054612be59061428f565b8015612c325780601f10612c0757610100808354040283529160200191612c32565b820191906000526020600020905b815481529060010190602001808311612c1557829003601f168201915b50505050508152602001600382018054612c4b9061428f565b80601f0160208091040260200160405190810160405280929190818152602001828054612c779061428f565b8015612cc45780601f10612c9957610100808354040283529160200191612cc4565b820191906000526020600020905b815481529060010190602001808311612ca757829003601f168201915b50505050508152602001600482015481526020016005820160009054906101000a900460ff1615151515815260200160068201805480602002602001604051908101604052809291908181526020016000905b82821015612dc3578382906000526020600020018054612d369061428f565b80601f0160208091040260200160405190810160405280929190818152602001828054612d629061428f565b8015612daf5780601f10612d8457610100808354040283529160200191612daf565b820191906000526020600020905b815481529060010190602001808311612d9257829003601f168201915b505050505081526020019060010190612d17565b5050505081525050828281518110612dde57612ddd614231565b5b60200260200101819052508080600101915050612b07565b508091505092915050565b60005b8151811015612f27576000828281518110612e2257612e21614231565b5b60200260200101519050600081511115612f1957600681604051612e4691906142fc565b908152602001604051809103902060009054906101000a900460ff16612ed3576001600682604051612e7891906142fc565b908152602001604051809103902060006101000a81548160ff021916908315150217905550600581908060018154018082558091505060019003906000526020600020016000909190919091509081612ed19190614551565b505b600481604051612ee391906142fc565b90815260200160405180910390208490806001815401808255809150506001900390600052602060002001600090919091909150555b508080600101915050612e04565b505050565b612f34613077565b73ffffffffffffffffffffffffffffffffffffffff16612f526115cc565b73ffffffffffffffffffffffffffffffffffffffff1614612fb157612f75613077565b6040517f118cdaa7000000000000000000000000000000000000000000000000000000008152600401612fa89190613b5f565b60405180910390fd5b565b60008060009054906101000a900473ffffffffffffffffffffffffffffffffffffffff169050816000806101000a81548173ffffffffffffffffffffffffffffffffffffffff021916908373ffffffffffffffffffffffffffffffffffffffff1602179055508173ffffffffffffffffffffffffffffffffffffffff168173ffffffffffffffffffffffffffffffffffffffff167f8be0079c531659141344cd1fd0a4f28419497f9722a3daafe3b4186f6b6457e060405160405180910390a35050565b600033905090565b6040518060e0016040528060008152602001600073ffffffffffffffffffffffffffffffffffffffff168152602001606081526020016060815260200160008152602001600015158152602001606081525090565b5080546130e09061428f565b6000825580601f106130f25750613111565b601f016020900490600052602060002090810190613110919061316d565b5b50565b82805482825590600052602060002090810192821561315c579160200282015b8281111561315b57825182908161314b9190614551565b5091602001919060010190613134565b5b509050613169919061318a565b5090565b5b8082111561318657600081600090555060010161316e565b5090565b5b808211156131aa57600081816131a191906130d4565b5060010161318b565b5090565b6000604051905090565b600080fd5b600080fd5b6000819050919050565b6131d5816131c2565b81146131e057600080fd5b50565b6000813590506131f2816131cc565b92915050565b60006020828403121561320e5761320d6131b8565b5b600061321c848285016131e3565b91505092915050565b600081519050919050565b600082825260208201905092915050565b6000819050602082019050919050565b61325a816131c2565b82525050565b600073ffffffffffffffffffffffffffffffffffffffff82169050919050565b600061328b82613260565b9050919050565b61329b81613280565b82525050565b600081519050919050565b600082825260208201905092915050565b60005b838110156132db5780820151818401526020810190506132c0565b60008484015250505050565b6000601f19601f8301169050919050565b6000613303826132a1565b61330d81856132ac565b935061331d8185602086016132bd565b613326816132e7565b840191505092915050565b600060a0830160008301516133496000860182613251565b50602083015161335c6020860182613251565b50604083015161336f6040860182613292565b506060830151848203606086015261338782826132f8565b915050608083015161339c6080860182613251565b508091505092915050565b60006133b38383613331565b905092915050565b6000602082019050919050565b60006133d382613225565b6133dd8185613230565b9350836020820285016133ef85613241565b8060005b8581101561342b578484038952815161340c85826133a7565b9450613417836133bb565b925060208a019950506001810190506133f3565b50829750879550505050505092915050565b6000602082019050818103600083015261345781846133c8565b905092915050565b61346881613280565b811461347357600080fd5b50565b6000813590506134858161345f565b92915050565b6000602082840312156134a1576134a06131b8565b5b60006134af84828501613476565b91505092915050565b600081519050919050565b600082825260208201905092915050565b6000819050602082019050919050565b60006080830160008301516134fc6000860182613251565b50602083015161350f6020860182613251565b506040830151848203604086015261352782826132f8565b915050606083015161353c6060860182613251565b508091505092915050565b600061355383836134e4565b905092915050565b6000602082019050919050565b6000613573826134b8565b61357d81856134c3565b93508360208202850161358f856134d4565b8060005b858110156135cb57848403895281516135ac8582613547565b94506135b78361355b565b925060208a01995050600181019050613593565b50829750879550505050505092915050565b600060208201905081810360008301526135f78184613568565b905092915050565b60008115159050919050565b613614816135ff565b82525050565b600081519050919050565b600082825260208201905092915050565b6000819050602082019050919050565b600061365283836132f8565b905092915050565b6000602082019050919050565b60006136728261361a565b61367c8185613625565b93508360208202850161368e85613636565b8060005b858110156136ca57848403895281516136ab8582613646565b94506136b68361365a565b925060208a01995050600181019050613692565b50829750879550505050505092915050565b600060e0830160008301516136f46000860182613251565b5060208301516137076020860182613292565b506040830151848203604086015261371f82826132f8565b9150506060830151848203606086015261373982826132f8565b915050608083015161374e6080860182613251565b5060a083015161376160a086018261360b565b5060c083015184820360c08601526137798282613667565b9150508091505092915050565b600060208201905081810360008301526137a081846136dc565b905092915050565b600080fd5b600080fd5b7f4e487b7100000000000000000000000000000000000000000000000000000000600052604160045260246000fd5b6137ea826132e7565b810181811067ffffffffffffffff82111715613809576138086137b2565b5b80604052505050565b600061381c6131ae565b905061382882826137e1565b919050565b600067ffffffffffffffff821115613848576138476137b2565b5b613851826132e7565b9050602081019050919050565b82818337600083830152505050565b600061388061387b8461382d565b613812565b90508281526020810184848401111561389c5761389b6137ad565b5b6138a784828561385e565b509392505050565b600082601f8301126138c4576138c36137a8565b5b81356138d484826020860161386d565b91505092915050565b600067ffffffffffffffff8211156138f8576138f76137b2565b5b602082029050602081019050919050565b600080fd5b600061392161391c846138dd565b613812565b9050808382526020820190506020840283018581111561394457613943613909565b5b835b8181101561398b57803567ffffffffffffffff811115613969576139686137a8565b5b80860161397689826138af565b85526020850194505050602081019050613946565b5050509392505050565b600082601f8301126139aa576139a96137a8565b5b81356139ba84826020860161390e565b91505092915050565b600080600080608085870312156139dd576139dc6131b8565b5b60006139eb878288016131e3565b945050602085013567ffffffffffffffff811115613a0c57613a0b6131bd565b5b613a18878288016138af565b935050604085013567ffffffffffffffff811115613a3957613a386131bd565b5b613a45878288016138af565b925050606085013567ffffffffffffffff811115613a6657613a656131bd565b5b613a7287828801613995565b91505092959194509250565b613a87816131c2565b82525050565b6000602082019050613aa26000830184613a7e565b92915050565b600082825260208201905092915050565b6000613ac48261361a565b613ace8185613aa8565b935083602082028501613ae085613636565b8060005b85811015613b1c5784840389528151613afd8582613646565b9450613b088361365a565b925060208a01995050600181019050613ae4565b50829750879550505050505092915050565b60006020820190508181036000830152613b488184613ab9565b905092915050565b613b5981613280565b82525050565b6000602082019050613b746000830184613b50565b92915050565b600081519050919050565b600082825260208201905092915050565b6000819050602082019050919050565b6000613bb28383613251565b60208301905092915050565b6000602082019050919050565b6000613bd682613b7a565b613be08185613b85565b9350613beb83613b96565b8060005b83811015613c1c578151613c038882613ba6565b9750613c0e83613bbe565b925050600181019050613bef565b5085935050505092915050565b60006020820190508181036000830152613c438184613bcb565b905092915050565b60008060408385031215613c6257613c616131b8565b5b6000613c70858286016131e3565b9250506020613c8185828601613476565b9150509250929050565b613c94816135ff565b82525050565b6000602082019050613caf6000830184613c8b565b92915050565b60008060408385031215613ccc57613ccb6131b8565b5b6000613cda85828601613476565b9250506020613ceb85828601613476565b9150509250929050565b60008060408385031215613d0c57613d0b6131b8565b5b6000613d1a858286016131e3565b925050602083013567ffffffffffffffff811115613d3b57613d3a6131bd565b5b613d47858286016138af565b9150509250929050565b600080600060608486031215613d6a57613d696131b8565b5b600084013567ffffffffffffffff811115613d8857613d876131bd565b5b613d94868287016138af565b935050602084013567ffffffffffffffff811115613db557613db46131bd565b5b613dc1868287016138af565b925050604084013567ffffffffffffffff811115613de257613de16131bd565b5b613dee86828701613995565b9150509250925092565b600081519050919050565b600082825260208201905092915050565b6000819050602082019050919050565b6000613e308383613292565b60208301905092915050565b6000602082019050919050565b6000613e5482613df8565b613e5e8185613e03565b9350613e6983613e14565b8060005b83811015613e9a578151613e818882613e24565b9750613e8c83613e3c565b925050600181019050613e6d565b5085935050505092915050565b60006020820190508181036000830152613ec18184613e49565b905092915050565b600060208284031215613edf57613ede6131b8565b5b600082013567ffffffffffffffff811115613efd57613efc6131bd565b5b613f09848285016138af565b91505092915050565b600080fd5b60008083601f840112613f2d57613f2c6137a8565b5b8235905067ffffffffffffffff811115613f4a57613f49613f12565b5b602083019150836020820283011115613f6657613f65613909565b5b9250929050565b60008060208385031215613f8457613f836131b8565b5b600083013567ffffffffffffffff811115613fa257613fa16131bd565b5b613fae85828601613f17565b92509250509250929050565b600081519050919050565b600082825260208201905092915050565b6000819050602082019050919050565b600060e083016000830151613ffe6000860182613251565b5060208301516140116020860182613292565b506040830151848203604086015261402982826132f8565b9150506060830151848203606086015261404382826132f8565b91505060808301516140586080860182613251565b5060a083015161406b60a086018261360b565b5060c083015184820360c08601526140838282613667565b9150508091505092915050565b600061409c8383613fe6565b905092915050565b6000602082019050919050565b60006140bc82613fba565b6140c68185613fc5565b9350836020820285016140d885613fd6565b8060005b8581101561411457848403895281516140f58582614090565b9450614100836140a4565b925060208a019950506001810190506140dc565b50829750879550505050505092915050565b6000602082019050818103600083015261414081846140b1565b905092915050565b600082825260208201905092915050565b7f506f737420646f6573206e6f7420657869737400000000000000000000000000600082015250565b600061418f601383614148565b915061419a82614159565b602082019050919050565b600060208201905081810360008301526141be81614182565b9050919050565b7f4e6f742074686520617574686f72000000000000000000000000000000000000600082015250565b60006141fb600e83614148565b9150614206826141c5565b602082019050919050565b6000602082019050818103600083015261422a816141ee565b9050919050565b7f4e487b7100000000000000000000000000000000000000000000000000000000600052603260045260246000fd5b7f4e487b7100000000000000000000000000000000000000000000000000000000600052602260045260246000fd5b600060028204905060018216806142a757607f821691505b6020821081036142ba576142b9614260565b5b50919050565b600081905092915050565b60006142d6826132a1565b6142e081856142c0565b93506142f08185602086016132bd565b80840191505092915050565b600061430882846142cb565b915081905092915050565b7f4e487b7100000000000000000000000000000000000000000000000000000000600052601160045260246000fd5b600061434d826131c2565b9150614358836131c2565b92508282039050818111156143705761436f614313565b5b92915050565b7f4e487b7100000000000000000000000000000000000000000000000000000000600052603160045260246000fd5b60008190508160005260206000209050919050565b60006020601f8301049050919050565b600082821b905092915050565b6000600883026144077fffffffffffffffffffffffffffffffffffffffffffffffffffffffffffffffff826143ca565b61441186836143ca565b95508019841693508086168417925050509392505050565b6000819050919050565b600061444e614449614444846131c2565b614429565b6131c2565b9050919050565b6000819050919050565b61446883614433565b61447c61447482614455565b8484546143d7565b825550505050565b600090565b614491614484565b61449c81848461445f565b505050565b5b818110156144c0576144b5600082614489565b6001810190506144a2565b5050565b601f821115614505576144d6816143a5565b6144df846143ba565b810160208510156144ee578190505b6145026144fa856143ba565b8301826144a1565b50505b505050565b600082821c905092915050565b60006145286000198460080261450a565b1980831691505092915050565b60006145418383614517565b9150826002028217905092915050565b61455a826132a1565b67ffffffffffffffff811115614573576145726137b2565b5b61457d825461428f565b6145888282856144c4565b600060209050601f8311600181146145bb57600084156145a9578287015190505b6145b38582614535565b86555061461b565b601f1984166145c9866143a5565b60005b828110156145f1578489015182556001820191506020850194506020810190506145cc565b8683101561460e578489015161460a601f891682614517565b8355505b6001600288020188555050505b505050505050565b600061462e826132a1565b6146388185614148565b93506146488185602086016132bd565b614651816132e7565b840191505092915050565b600060608201905081810360008301526146768186614623565b9050818103602083015261468a8185614623565b9050818103604083015261469e8184613ab9565b9050949350505050565b7f416c7265616479206c696b656400000000000000000000000000000000000000600082015250565b60006146de600d83614148565b91506146e9826146a8565b602082019050919050565b6000602082019050818103600083015261470d816146d1565b9050919050565b600061471f826131c2565b91507fffffffffffffffffffffffffffffffffffffffffffffffffffffffffffffffff820361475157614750614313565b5b600182019050919050565b7f416c726561647920666f6c6c6f77696e67000000000000000000000000000000600082015250565b6000614792601183614148565b915061479d8261475c565b602082019050919050565b600060208201905081810360008301526147c181614785565b9050919050565b7f43616e6e6f7420666f6c6c6f7720796f757273656c6600000000000000000000600082015250565b60006147fe601683614148565b9150614809826147c8565b602082019050919050565b6000602082019050818103600083015261482d816147f1565b9050919050565b7f436f6d6d656e742063616e6e6f7420626520656d707479000000000000000000600082015250565b600061486a601783614148565b915061487582614834565b602082019050919050565b600060208201905081810360008301526148998161485d565b9050919050565b60006060820190506148b56000830186613a7e565b6148c26020830185613b50565b81810360408301526148d48184614623565b9050949350505050565b7f5469746c652063616e6e6f7420626520656d7074790000000000000000000000600082015250565b6000614914601583614148565b915061491f826148de565b602082019050919050565b6000602082019050818103600083015261494381614907565b9050919050565b7f436f6e74656e7420686173682063616e6e6f7420626520656d70747900000000600082015250565b6000614980601c83614148565b915061498b8261494a565b602082019050919050565b600060208201905081810360008301526149af81614973565b9050919050565b600060808201905081810360008301526149d08187614623565b905081810360208301526149e48186614623565b90506149f36040830185613a7e565b8181036060830152614a058184613ab9565b905095945050505050565b7f4e6f7420666f6c6c6f77696e6700000000000000000000000000000000000000600082015250565b6000614a46600d83614148565b9150614a5182614a10565b602082019050919050565b60006020820190508181036000830152614a7581614a39565b905091905056fea2646970667358221220334a725337c331050ab844145912eb9f06b3462dde9c784a8d4429e988d4edbf64736f6c634300081c0033",
  "linkReferences": {},
  "deployedLinkReferences": {}
}